{
  "address": "0x8d01805A1881BeBA3BC0d682D634f60D87Fd10c0",
  "abi": [
    {
      "inputs": [],
      "stateMutability": "nonpayable",
      "type": "constructor"
    },
    {
      "anonymous": false,
      "inputs": [
        {
          "indexed": true,
          "internalType": "address",
          "name": "account",
          "type": "address"
        },
        {
          "indexed": true,
          "internalType": "address",
          "name": "operator",
          "type": "address"
        },
        {
          "indexed": false,
          "internalType": "bool",
          "name": "approved",
          "type": "bool"
        }
      ],
      "name": "ApprovalForAll",
      "type": "event"
    },
    {
      "anonymous": false,
      "inputs": [
        {
          "indexed": true,
          "internalType": "address",
          "name": "operator",
          "type": "address"
        },
        {
          "indexed": true,
          "internalType": "address",
          "name": "from",
          "type": "address"
        },
        {
          "indexed": true,
          "internalType": "address",
          "name": "to",
          "type": "address"
        },
        {
          "indexed": false,
          "internalType": "uint256[]",
          "name": "ids",
          "type": "uint256[]"
        },
        {
          "indexed": false,
          "internalType": "uint256[]",
          "name": "values",
          "type": "uint256[]"
        }
      ],
      "name": "TransferBatch",
      "type": "event"
    },
    {
      "anonymous": false,
      "inputs": [
        {
          "indexed": true,
          "internalType": "address",
          "name": "operator",
          "type": "address"
        },
        {
          "indexed": true,
          "internalType": "address",
          "name": "from",
          "type": "address"
        },
        {
          "indexed": true,
          "internalType": "address",
          "name": "to",
          "type": "address"
        },
        {
          "indexed": false,
          "internalType": "uint256",
          "name": "id",
          "type": "uint256"
        },
        {
          "indexed": false,
          "internalType": "uint256",
          "name": "value",
          "type": "uint256"
        }
      ],
      "name": "TransferSingle",
      "type": "event"
    },
    {
      "anonymous": false,
      "inputs": [
        {
          "indexed": false,
          "internalType": "string",
          "name": "value",
          "type": "string"
        },
        {
          "indexed": true,
          "internalType": "uint256",
          "name": "id",
          "type": "uint256"
        }
      ],
      "name": "URI",
      "type": "event"
    },
    {
      "anonymous": false,
      "inputs": [
        {
          "indexed": false,
          "internalType": "address",
          "name": "owner",
          "type": "address"
        },
        {
          "indexed": false,
          "internalType": "uint256",
          "name": "id",
          "type": "uint256"
        },
        {
          "indexed": false,
          "internalType": "uint256",
          "name": "quantity",
          "type": "uint256"
        },
        {
          "indexed": false,
          "internalType": "uint256",
          "name": "totalSupply",
          "type": "uint256"
        }
      ],
      "name": "mintEvent",
      "type": "event"
    },
    {
      "inputs": [],
      "name": "MAX_ADDRESS_TOKEN",
      "outputs": [
        {
          "internalType": "uint256",
          "name": "",
          "type": "uint256"
        }
      ],
      "stateMutability": "view",
      "type": "function"
    },
    {
      "inputs": [],
      "name": "MAX_NORMAL_TOKEN",
      "outputs": [
        {
          "internalType": "uint256",
          "name": "",
          "type": "uint256"
        }
      ],
      "stateMutability": "view",
      "type": "function"
    },
    {
      "inputs": [],
      "name": "MAX_SPECIAL_TOKEN",
      "outputs": [
        {
          "internalType": "uint256",
          "name": "",
          "type": "uint256"
        }
      ],
      "stateMutability": "view",
      "type": "function"
    },
    {
      "inputs": [],
      "name": "PRICE",
      "outputs": [
        {
          "internalType": "uint256",
          "name": "",
          "type": "uint256"
        }
      ],
      "stateMutability": "view",
      "type": "function"
    },
    {
      "inputs": [],
      "name": "SPECIAL_CARD_CONDICTION",
      "outputs": [
        {
          "internalType": "uint256",
          "name": "",
          "type": "uint256"
        }
      ],
      "stateMutability": "view",
      "type": "function"
    },
    {
      "inputs": [
        {
          "internalType": "address",
          "name": "",
          "type": "address"
        }
      ],
      "name": "addressHasClaimed",
      "outputs": [
        {
          "internalType": "uint256",
          "name": "",
          "type": "uint256"
        }
      ],
      "stateMutability": "view",
      "type": "function"
    },
    {
      "inputs": [
        {
          "internalType": "address",
          "name": "",
          "type": "address"
        }
      ],
      "name": "addressHasMinted",
      "outputs": [
        {
          "internalType": "uint256",
          "name": "",
          "type": "uint256"
        }
      ],
      "stateMutability": "view",
      "type": "function"
    },
    {
      "inputs": [],
      "name": "auctionEndPrice",
      "outputs": [
        {
          "internalType": "uint256",
          "name": "",
          "type": "uint256"
        }
      ],
      "stateMutability": "view",
      "type": "function"
    },
    {
      "inputs": [],
      "name": "auctionPriceStep",
      "outputs": [
        {
          "internalType": "uint256",
          "name": "",
          "type": "uint256"
        }
      ],
      "stateMutability": "view",
      "type": "function"
    },
    {
      "inputs": [],
      "name": "auctionStageLimit",
      "outputs": [
        {
          "internalType": "uint256",
          "name": "",
          "type": "uint256"
        }
      ],
      "stateMutability": "view",
      "type": "function"
    },
    {
      "inputs": [],
      "name": "auctionStartPrice",
      "outputs": [
        {
          "internalType": "uint256",
          "name": "",
          "type": "uint256"
        }
      ],
      "stateMutability": "view",
      "type": "function"
    },
    {
      "inputs": [],
      "name": "auctionStartTimestamp",
      "outputs": [
        {
          "internalType": "uint256",
          "name": "",
          "type": "uint256"
        }
      ],
      "stateMutability": "view",
      "type": "function"
    },
    {
      "inputs": [],
      "name": "auctionStepNumber",
      "outputs": [
        {
          "internalType": "uint256",
          "name": "",
          "type": "uint256"
        }
      ],
      "stateMutability": "view",
      "type": "function"
    },
    {
      "inputs": [],
      "name": "auctionTimeStep",
      "outputs": [
        {
          "internalType": "uint256",
          "name": "",
          "type": "uint256"
        }
      ],
      "stateMutability": "view",
      "type": "function"
    },
    {
      "inputs": [
        {
          "internalType": "address",
          "name": "account",
          "type": "address"
        },
        {
          "internalType": "uint256",
          "name": "id",
          "type": "uint256"
        }
      ],
      "name": "balanceOf",
      "outputs": [
        {
          "internalType": "uint256",
          "name": "",
          "type": "uint256"
        }
      ],
      "stateMutability": "view",
      "type": "function"
    },
    {
      "inputs": [
        {
          "internalType": "address[]",
          "name": "accounts",
          "type": "address[]"
        },
        {
          "internalType": "uint256[]",
          "name": "ids",
          "type": "uint256[]"
        }
      ],
      "name": "balanceOfBatch",
      "outputs": [
        {
          "internalType": "uint256[]",
          "name": "",
          "type": "uint256[]"
        }
      ],
      "stateMutability": "view",
      "type": "function"
    },
    {
      "inputs": [
        {
          "internalType": "address",
          "name": "account",
          "type": "address"
        },
        {
          "internalType": "uint256",
          "name": "id",
          "type": "uint256"
        },
        {
          "internalType": "uint256",
          "name": "quantity",
          "type": "uint256"
        }
      ],
      "name": "burn",
      "outputs": [],
      "stateMutability": "nonpayable",
      "type": "function"
    },
    {
      "inputs": [],
      "name": "burnStarted",
      "outputs": [
        {
          "internalType": "bool",
          "name": "",
          "type": "bool"
        }
      ],
      "stateMutability": "view",
      "type": "function"
    },
    {
      "inputs": [
        {
          "internalType": "uint256",
          "name": "maxQuantity",
          "type": "uint256"
        },
        {
          "internalType": "bytes",
          "name": "SIGNATURE",
          "type": "bytes"
        }
      ],
      "name": "claimSpecial",
      "outputs": [],
      "stateMutability": "payable",
      "type": "function"
    },
    {
      "inputs": [],
      "name": "claimStageLimit",
      "outputs": [
        {
          "internalType": "uint256",
          "name": "",
          "type": "uint256"
        }
      ],
      "stateMutability": "view",
      "type": "function"
    },
    {
      "inputs": [],
      "name": "getDutchAuctionPrice",
      "outputs": [
        {
          "internalType": "uint256",
          "name": "",
          "type": "uint256"
        }
      ],
      "stateMutability": "view",
      "type": "function"
    },
    {
      "inputs": [
        {
          "internalType": "address",
          "name": "to",
          "type": "address"
        },
        {
          "internalType": "uint256",
          "name": "id",
          "type": "uint256"
        },
        {
          "internalType": "uint256",
          "name": "quantity",
          "type": "uint256"
        }
      ],
      "name": "giveawayNFT",
      "outputs": [],
      "stateMutability": "nonpayable",
      "type": "function"
    },
    {
      "inputs": [],
      "name": "hasAuctionStarted",
      "outputs": [
        {
          "internalType": "bool",
          "name": "",
          "type": "bool"
        }
      ],
      "stateMutability": "view",
      "type": "function"
    },
    {
      "inputs": [],
      "name": "hasClaimStarted",
      "outputs": [
        {
          "internalType": "bool",
          "name": "",
          "type": "bool"
        }
      ],
      "stateMutability": "view",
      "type": "function"
    },
    {
      "inputs": [],
      "name": "hasSaleStarted",
      "outputs": [
        {
          "internalType": "bool",
          "name": "",
          "type": "bool"
        }
      ],
      "stateMutability": "view",
      "type": "function"
    },
    {
      "inputs": [
        {
          "internalType": "uint256",
          "name": "",
          "type": "uint256"
        }
      ],
      "name": "idHasMinted",
      "outputs": [
        {
          "internalType": "uint256",
          "name": "",
          "type": "uint256"
        }
      ],
      "stateMutability": "view",
      "type": "function"
    },
    {
      "inputs": [
        {
          "internalType": "address",
          "name": "account",
          "type": "address"
        },
        {
          "internalType": "address",
          "name": "operator",
          "type": "address"
        }
      ],
      "name": "isApprovedForAll",
      "outputs": [
        {
          "internalType": "bool",
          "name": "",
          "type": "bool"
        }
      ],
      "stateMutability": "view",
      "type": "function"
    },
    {
      "inputs": [
        {
          "internalType": "uint256",
          "name": "quantity",
          "type": "uint256"
        },
        {
          "internalType": "uint256",
          "name": "maxQuantity",
          "type": "uint256"
        },
        {
          "internalType": "bytes",
          "name": "SIGNATURE",
          "type": "bytes"
        }
      ],
      "name": "mintNormal",
      "outputs": [],
      "stateMutability": "payable",
      "type": "function"
    },
    {
      "inputs": [],
      "name": "name",
      "outputs": [
        {
          "internalType": "string",
          "name": "",
          "type": "string"
        }
      ],
      "stateMutability": "view",
      "type": "function"
    },
    {
      "inputs": [],
      "name": "normalSupply",
      "outputs": [
        {
          "internalType": "uint256",
          "name": "",
          "type": "uint256"
        }
      ],
      "stateMutability": "view",
      "type": "function"
    },
    {
      "inputs": [],
      "name": "owner",
      "outputs": [
        {
          "internalType": "address",
          "name": "",
          "type": "address"
        }
      ],
      "stateMutability": "view",
      "type": "function"
    },
    {
      "inputs": [
        {
          "internalType": "uint256",
          "name": "",
          "type": "uint256"
        }
      ],
      "name": "quantityLimit",
      "outputs": [
        {
          "internalType": "uint256",
          "name": "",
          "type": "uint256"
        }
      ],
      "stateMutability": "view",
      "type": "function"
    },
    {
      "inputs": [
        {
          "internalType": "address",
          "name": "from",
          "type": "address"
        },
        {
          "internalType": "address",
          "name": "to",
          "type": "address"
        },
        {
          "internalType": "uint256[]",
          "name": "ids",
          "type": "uint256[]"
        },
        {
          "internalType": "uint256[]",
          "name": "amounts",
          "type": "uint256[]"
        },
        {
          "internalType": "bytes",
          "name": "data",
          "type": "bytes"
        }
      ],
      "name": "safeBatchTransferFrom",
      "outputs": [],
      "stateMutability": "nonpayable",
      "type": "function"
    },
    {
      "inputs": [
        {
          "internalType": "address",
          "name": "from",
          "type": "address"
        },
        {
          "internalType": "address",
          "name": "to",
          "type": "address"
        },
        {
          "internalType": "uint256",
          "name": "id",
          "type": "uint256"
        },
        {
          "internalType": "uint256",
          "name": "amount",
          "type": "uint256"
        },
        {
          "internalType": "bytes",
          "name": "data",
          "type": "bytes"
        }
      ],
      "name": "safeTransferFrom",
      "outputs": [],
      "stateMutability": "nonpayable",
      "type": "function"
    },
    {
      "inputs": [],
      "name": "saleTimestamp",
      "outputs": [
        {
          "internalType": "uint256",
          "name": "",
          "type": "uint256"
        }
      ],
      "stateMutability": "view",
      "type": "function"
    },
    {
      "inputs": [
        {
          "internalType": "address",
          "name": "operator",
          "type": "address"
        },
        {
          "internalType": "bool",
          "name": "approved",
          "type": "bool"
        }
      ],
      "name": "setApprovalForAll",
      "outputs": [],
      "stateMutability": "nonpayable",
      "type": "function"
    },
    {
      "inputs": [
        {
          "internalType": "string",
          "name": "baseURI",
          "type": "string"
        }
      ],
      "name": "setBaseURI",
      "outputs": [],
      "stateMutability": "nonpayable",
      "type": "function"
    },
    {
      "inputs": [
        {
          "internalType": "bool",
          "name": "_burnStarted",
          "type": "bool"
        }
      ],
      "name": "setBurn",
      "outputs": [],
      "stateMutability": "nonpayable",
      "type": "function"
    },
    {
      "inputs": [
        {
          "internalType": "uint256",
          "name": "_auctionStartTimestamp",
          "type": "uint256"
        },
        {
          "internalType": "uint256",
          "name": "_auctionTimeStep",
          "type": "uint256"
        },
        {
          "internalType": "uint256",
          "name": "_auctionStartPrice",
          "type": "uint256"
        },
        {
          "internalType": "uint256",
          "name": "_auctionEndPrice",
          "type": "uint256"
        },
        {
          "internalType": "uint256",
          "name": "_auctionPriceStep",
          "type": "uint256"
        },
        {
          "internalType": "uint256",
          "name": "_auctionStepNumber",
          "type": "uint256"
        }
      ],
      "name": "setDutchAuction",
      "outputs": [],
      "stateMutability": "nonpayable",
      "type": "function"
    },
    {
      "inputs": [
        {
          "internalType": "uint256",
          "name": "_id",
          "type": "uint256"
        },
        {
          "internalType": "uint256",
          "name": "_MAX",
          "type": "uint256"
        }
      ],
      "name": "setIdLimit",
      "outputs": [],
      "stateMutability": "nonpayable",
      "type": "function"
    },
    {
      "inputs": [
        {
          "internalType": "address",
          "name": "_owner",
          "type": "address"
        }
      ],
      "name": "setOwner",
      "outputs": [],
      "stateMutability": "nonpayable",
      "type": "function"
    },
    {
      "inputs": [
        {
          "internalType": "bool",
          "name": "_hasSaleStarted",
          "type": "bool"
        },
        {
          "internalType": "bool",
          "name": "_hasClaimStarted",
          "type": "bool"
        },
        {
          "internalType": "bool",
          "name": "_hasAuctionStarted",
          "type": "bool"
        },
        {
          "internalType": "bool",
          "name": "_whitelistSwitch",
          "type": "bool"
        },
        {
          "internalType": "uint256",
          "name": "_saleTimestamp",
          "type": "uint256"
        }
      ],
      "name": "setSaleSwitch",
      "outputs": [],
      "stateMutability": "nonpayable",
      "type": "function"
    },
    {
      "inputs": [
        {
          "internalType": "uint256",
          "name": "_claimStageLimit",
          "type": "uint256"
        },
        {
          "internalType": "uint256",
          "name": "_auctionStageLimit",
          "type": "uint256"
        }
      ],
      "name": "setStageLimit",
      "outputs": [],
      "stateMutability": "nonpayable",
      "type": "function"
    },
    {
      "inputs": [
        {
          "internalType": "uint256",
          "name": "_MAX_NORMAL_TOKEN",
          "type": "uint256"
        },
        {
          "internalType": "uint256",
          "name": "_MAX_SPECIAL_TOKEN",
          "type": "uint256"
        },
        {
          "internalType": "uint256",
          "name": "_SPECIAL_CARD_CONDICTION",
          "type": "uint256"
        },
        {
          "internalType": "uint256",
          "name": "_MAX_ADDRESS_TOKEN",
          "type": "uint256"
        },
        {
          "internalType": "uint256",
          "name": "_specialCardId",
          "type": "uint256"
        }
      ],
      "name": "setTokenLimit",
      "outputs": [],
      "stateMutability": "nonpayable",
      "type": "function"
    },
    {
      "inputs": [
        {
          "internalType": "address",
          "name": "_treasury",
          "type": "address"
        }
      ],
      "name": "setTreasury",
      "outputs": [],
      "stateMutability": "nonpayable",
      "type": "function"
    },
    {
      "inputs": [
        {
          "internalType": "uint256",
          "name": "_price",
          "type": "uint256"
        }
      ],
      "name": "set_PRICE",
      "outputs": [],
      "stateMutability": "nonpayable",
      "type": "function"
    },
    {
      "inputs": [],
      "name": "specialCardId",
      "outputs": [
        {
          "internalType": "uint256",
          "name": "",
          "type": "uint256"
        }
      ],
      "stateMutability": "view",
      "type": "function"
    },
    {
      "inputs": [],
      "name": "specialSupply",
      "outputs": [
        {
          "internalType": "uint256",
          "name": "",
          "type": "uint256"
        }
      ],
      "stateMutability": "view",
      "type": "function"
    },
    {
      "inputs": [
        {
          "internalType": "bytes4",
          "name": "interfaceId",
          "type": "bytes4"
        }
      ],
      "name": "supportsInterface",
      "outputs": [
        {
          "internalType": "bool",
          "name": "",
          "type": "bool"
        }
      ],
      "stateMutability": "view",
      "type": "function"
    },
    {
      "inputs": [],
      "name": "symbol",
      "outputs": [
        {
          "internalType": "string",
          "name": "",
          "type": "string"
        }
      ],
      "stateMutability": "view",
      "type": "function"
    },
    {
      "inputs": [],
      "name": "totalSupply",
      "outputs": [
        {
          "internalType": "uint256",
          "name": "",
          "type": "uint256"
        }
      ],
      "stateMutability": "view",
      "type": "function"
    },
    {
      "inputs": [],
      "name": "treasury",
      "outputs": [
        {
          "internalType": "address",
          "name": "",
          "type": "address"
        }
      ],
      "stateMutability": "view",
      "type": "function"
    },
    {
      "inputs": [
        {
          "internalType": "uint256",
          "name": "",
          "type": "uint256"
        }
      ],
      "name": "uri",
      "outputs": [
        {
          "internalType": "string",
          "name": "",
          "type": "string"
        }
      ],
      "stateMutability": "view",
      "type": "function"
    },
    {
      "inputs": [
        {
          "internalType": "uint256",
          "name": "maxQuantity",
          "type": "uint256"
        },
        {
          "internalType": "bytes",
          "name": "SIGNATURE",
          "type": "bytes"
        }
      ],
      "name": "verify",
      "outputs": [
        {
          "internalType": "bool",
          "name": "",
          "type": "bool"
        }
      ],
      "stateMutability": "view",
      "type": "function"
    },
    {
      "inputs": [],
      "name": "whitelistSwitch",
      "outputs": [
        {
          "internalType": "bool",
          "name": "",
          "type": "bool"
        }
      ],
      "stateMutability": "view",
      "type": "function"
    },
    {
      "inputs": [],
      "name": "withdrawAll",
      "outputs": [],
      "stateMutability": "payable",
      "type": "function"
    }
  ],
  "transactionHash": "0xd6eebdf4858024087b3837340cc067596e66eab2701ab34087b2514d7849d986",
  "args": [],
  "numDeployments": 4,
  "solcInputHash": "672e1af379039eaf3bf1b7d5ebbfb741",
  "bytecode": "0x6101606040526001610120819052605560f81b6101409081526200002791600391906200027f565b50604080518082019091526004808252631411955560e21b60209092019182526200005391816200027f565b50610898600581905560166006556003600755600a60088190556702c68af0bb1400006009556361e5301090556000600b819055600c819055600d55601e600e55600f55601560105560118054785279246e3626cebe71a4c181382a50a71d2a415600000001016001600160c81b0319909116179055601280546001600160a01b031916735279246e3626cebe71a4c181382a50a71d2a4156179055348015620000fc57600080fd5b5060405180606001604052806028815260200162003b49602891396040805180820182526006815265556e6e616d6560d01b60208083019182528351808501855260058152640312e302e360dc1b908201529151902060c08181527f06c015bd22b4c69690933c1058878ebdfef31f9aaae40bbe86d8a09fe1b2972c60e08190524660a081815286517f8b73c3c69bb8fe3d512ecc4cf759cc79239f7b179b0ffacaa9a75d522b39400f8188018190528189019690965260608101939093526080808401929092523083820152865180840390910181529190920190945283519390920192909220905261010052620001f58162000266565b5060015b60158110156200022a576000818152601960205260409020606e905580620002218162000362565b915050620001f9565b5060155b602b8110156200025f5760008181526019602052604090206001905580620002568162000362565b9150506200022e565b506200038a565b80516200027b9060029060208401906200027f565b5050565b8280546200028d9062000325565b90600052602060002090601f016020900481019282620002b15760008555620002fc565b82601f10620002cc57805160ff1916838001178555620002fc565b82800160010185558215620002fc579182015b82811115620002fc578251825591602001919060010190620002df565b506200030a9291506200030e565b5090565b5b808211156200030a57600081556001016200030f565b600181811c908216806200033a57607f821691505b602082108114156200035c57634e487b7160e01b600052602260045260246000fd5b50919050565b60006000198214156200038357634e487b7160e01b81526011600452602481fd5b5060010190565b60805160a05160c05160e0516101005161377a620003cf60003960006127b901526000612808015260006127e30152600061276701526000612790015261377a6000f3fe60806040526004361061036a5760003560e01c806385852ce4116101c6578063c4f9ff10116100f7578063e7e4346511610095578063f242432a1161006f578063f242432a146109a7578063f5298aca146109c7578063f5bb134e146109e7578063fbf76eb2146109fd57600080fd5b8063e7e434651461091e578063e985e9c51461093e578063f0f442601461098757600080fd5b8063d756985b116100d1578063d756985b146108af578063d7eef865146108c5578063dcb8101f146108db578063e2e771a41461090857600080fd5b8063c4f9ff1014610870578063c6a96c8f14610883578063c78225981461089957600080fd5b8063a04a6ac811610164578063b2a098d91161013e578063b2a098d9146107ec578063bcd25ee514610819578063bd55cf0d1461083a578063c44f81e21461085a57600080fd5b8063a04a6ac8146107a0578063a22cb465146107b6578063a5b5665c146107d657600080fd5b80638da5cb5b116101a05780638da5cb5b146107385780639196eba51461075f57806395d89b4114610775578063964dd2401461078a57600080fd5b806385852ce4146106ec578063862a2b451461070c5780638d859f3e1461072257600080fd5b80632eb2c2d6116102a05780634ca4fb341161023e57806361d027b31161021857806361d027b31461066d5780636456c205146106a5578063717bf336146106c5578063853828b6146106e457600080fd5b80634ca4fb34146105f35780634e1273f41461062057806355f804b31461064d57600080fd5b80634698a3d81161027a5780634698a3d81461059c57806348b5f2bc146105b257806349b88e76146105c85780634b30a910146105de57600080fd5b80632eb2c2d61461052f5780634017b12f1461054f57806344944f311461056f57600080fd5b806318160ddd1161030d57806326df66ce116102e757806326df66ce146104bc578063271cb22f146104dc5780632db218b6146104fc5780632e1de27f1461051c57600080fd5b806318160ddd1461046c57806319cb4a1c146104825780631c8b232d146104a257600080fd5b80630af012dd116103495780630af012dd146103f45780630b07e4d1146104165780630e89341c1461042c57806313af40351461044c57600080fd5b8062fdd58e1461036f57806301ffc9a7146103a257806306fdde03146103d2575b600080fd5b34801561037b57600080fd5b5061038f61038a366004612f0e565b610a1f565b6040519081526020015b60405180910390f35b3480156103ae57600080fd5b506103c26103bd3660046130a9565b610ab6565b6040519015158152602001610399565b3480156103de57600080fd5b506103e7610b08565b60405161039991906133fc565b34801561040057600080fd5b5061041461040f366004613182565b610b9a565b005b34801561042257600080fd5b5061038f60055481565b34801561043857600080fd5b506103e761044736600461312f565b610bad565b34801561045857600080fd5b50610414610467366004612d90565b610c41565b34801561047857600080fd5b5061038f600b5481565b34801561048e57600080fd5b5061041461049d3660046131f1565b610c77565b3480156104ae57600080fd5b506011546103c29060ff1681565b3480156104c857600080fd5b506011546103c29062010000900460ff1681565b3480156104e857600080fd5b506104146104f7366004613182565b610c96565b34801561050857600080fd5b5061041461051736600461304e565b610cb0565b61041461052a366004613147565b610d0c565b34801561053b57600080fd5b5061041461054a366004612ddc565b611189565b34801561055b57600080fd5b5061041461056a366004612f37565b611220565b34801561057b57600080fd5b5061038f61058a366004612d90565b601c6020526000908152604090205481565b3480156105a857600080fd5b5061038f60175481565b3480156105be57600080fd5b5061038f600c5481565b3480156105d457600080fd5b5061038f60075481565b3480156105ea57600080fd5b5061038f611375565b3480156105ff57600080fd5b5061038f61060e36600461312f565b601a6020526000908152604090205481565b34801561062c57600080fd5b5061064061063b366004612f69565b61144c565b60405161039991906133bb565b34801561065957600080fd5b506104146106683660046130e1565b6115ae565b34801561067957600080fd5b5060125461068d906001600160a01b031681565b6040516001600160a01b039091168152602001610399565b3480156106b157600080fd5b506104146106c036600461312f565b6115c2565b3480156106d157600080fd5b506011546103c290610100900460ff1681565b6104146115cf565b3480156106f857600080fd5b506103c2610707366004613147565b61160a565b34801561071857600080fd5b5061038f60085481565b34801561072e57600080fd5b5061038f60095481565b34801561074457600080fd5b5060115461068d90600160281b90046001600160a01b031681565b34801561076b57600080fd5b5061038f60145481565b34801561078157600080fd5b506103e761169c565b34801561079657600080fd5b5061038f60185481565b3480156107ac57600080fd5b5061038f60165481565b3480156107c257600080fd5b506104146107d1366004612ee5565b6116ab565b3480156107e257600080fd5b5061038f600d5481565b3480156107f857600080fd5b5061038f610807366004612d90565b601b6020526000908152604090205481565b34801561082557600080fd5b506011546103c2906301000000900460ff1681565b34801561084657600080fd5b50610414610855366004613034565b611782565b34801561086657600080fd5b5061038f600e5481565b61041461087e3660046131a3565b6117aa565b34801561088f57600080fd5b5061038f60135481565b3480156108a557600080fd5b5061038f600a5481565b3480156108bb57600080fd5b5061038f60155481565b3480156108d157600080fd5b5061038f600f5481565b3480156108e757600080fd5b5061038f6108f636600461312f565b60196020526000908152604090205481565b34801561091457600080fd5b5061038f60105481565b34801561092a57600080fd5b5061041461093936600461322b565b611c5e565b34801561094a57600080fd5b506103c2610959366004612daa565b6001600160a01b03918216600090815260016020908152604080832093909416825291909152205460ff1690565b34801561099357600080fd5b506104146109a2366004612d90565b611c83565b3480156109b357600080fd5b506104146109c2366004612e82565b611cad565b3480156109d357600080fd5b506104146109e2366004612f37565b611d34565b3480156109f357600080fd5b5061038f60065481565b348015610a0957600080fd5b506011546103c290640100000000900460ff1681565b60006001600160a01b038316610a905760405162461bcd60e51b815260206004820152602b60248201527f455243313135353a2062616c616e636520717565727920666f7220746865207a60448201526a65726f206164647265737360a81b60648201526084015b60405180910390fd5b506000908152602081815260408083206001600160a01b03949094168352929052205490565b60006001600160e01b03198216636cdb3d1360e11b1480610ae757506001600160e01b031982166303a24d0760e21b145b80610b0257506301ffc9a760e01b6001600160e01b03198316145b92915050565b606060038054610b17906135b4565b80601f0160208091040260200160405190810160405280929190818152602001828054610b43906135b4565b8015610b905780601f10610b6557610100808354040283529160200191610b90565b820191906000526020600020905b815481529060010190602001808311610b7357829003601f168201915b5050505050905090565b610ba2611e0c565b600e91909155600f55565b606060028054610bbc906135b4565b80601f0160208091040260200160405190810160405280929190818152602001828054610be8906135b4565b8015610c355780601f10610c0a57610100808354040283529160200191610c35565b820191906000526020600020905b815481529060010190602001808311610c1857829003601f168201915b50505050509050919050565b610c49611e0c565b601180546001600160a01b03909216600160281b0265010000000000600160c81b0319909216919091179055565b610c7f611e0c565b600594909455600692909255600755600855601055565b610c9e611e0c565b60009182526019602052604090912055565b610cb8611e0c565b6011805492151563010000000263ff0000001994151562010000029490941663ffff0000199515156101000261ff00199715159790971661ffff199094169390931795909517939093161717909155600a55565b323314610d505760405162461bcd60e51b815260206004820152601260248201527110d05313115497d254d7d0d3d395149050d560721b6044820152606401610a87565b60115460ff610100909104161515600114610da65760405162461bcd60e51b815260206004820152601660248201527521b630b4b6903430b9903737ba1039ba30b93a32b21760511b6044820152606401610a87565b600a54421015610dec5760405162461bcd60e51b81526020600482015260116024820152704e4f545f494e5f434c41494d5f54494d4560781b6044820152606401610a87565b600e546010541115610e565760405162461bcd60e51b815260206004820152602d60248201527f45786365656420746865207370656369616c206964206f6620636c61696d206160448201526c3a103a3434b99039ba30b3b29760991b6064820152608401610a87565b610e60828261160a565b610eac5760405162461bcd60e51b815260206004820152601760248201527f4e6f7420656c696769626c6520666f7220636c61696d2e0000000000000000006044820152606401610a87565b600060015b6015811015610ee957610ec43382610a1f565b15610ed757610ed4826001613552565b91505b80610ee18161361c565b915050610eb1565b50600754811015610f3c5760405162461bcd60e51b815260206004820152601760248201527f4e6f7420656e6f756768206e6f726d616c20636172642e0000000000000000006044820152606401610a87565b6009543414610f5d5760405162461bcd60e51b8152600401610a8790613457565b600654600d54610f6e906001611e62565b1115610fbc5760405162461bcd60e51b815260206004820152601a60248201527f45786365656473204d41585f5350454349414c5f544f4b454e2e0000000000006044820152606401610a87565b601054600090815260196020908152604080832054601a90925290912054610fe5906001611e62565b11156110335760405162461bcd60e51b815260206004820152601a60248201527f45786365656473206964207175616e74697479206c696d69742e0000000000006044820152606401610a87565b336000908152601c60205260409020548390611050906001611e62565b11156110975760405162461bcd60e51b815260206004820152601660248201527522bc32b2b2399031b630b4b69038bab0b73a34ba3c9760511b6044820152606401610a87565b6110b533601054600160405180602001604052806000815250611e75565b6010546000908152601a60205260409020546110d2906001611e62565b6010546000908152601a6020526040902055600d546110f2906001611e62565b600d55600b54611103906001611e62565b600b8190556010546040517fb32c32014221c522f5b713daa9a1df4bd21450f8b5c763ba3ca01f088f95c864926111409233929091600191613395565b60405180910390a1601054611156906001613552565b601055336000908152601c6020526040902054611174906001611e62565b336000908152601c6020526040902055505050565b6001600160a01b0385163314806111a557506111a58533610959565b61120c5760405162461bcd60e51b815260206004820152603260248201527f455243313135353a207472616e736665722063616c6c6572206973206e6f74206044820152711bdddb995c881b9bdc88185c1c1c9bdd995960721b6064820152608401610a87565b6112198585858585611f7f565b5050505050565b611228611e0c565b60008111801561125b5750600082815260196020908152604080832054601a909252909120546112589083611e62565b11155b6112a75760405162461bcd60e51b815260206004820152601a60248201527f45786365656473206964207175616e74697479206c696d69742e0000000000006044820152606401610a87565b6112c283838360405180602001604052806000815250611e75565b60148211156112e057600d546112d89082611e62565b600d556112f1565b600c546112ed9082611e62565b600c555b600d54600c546113019190613552565b600b556000828152601a602052604090205461131d9082611e62565b6000838152601a60205260409081902091909155600b5490517fb32c32014221c522f5b713daa9a1df4bd21450f8b5c763ba3ca01f088f95c864916113689186918691869190613395565b60405180910390a1505050565b60115460009062010000900460ff1615156001146113ca5760405162461bcd60e51b815260206004820152601260248201527141554354494f4e5f4e4f545f41435449564560701b6044820152606401610a87565b6013544210156113db575060155490565b6000601454601354426113ee919061359d565b6113f8919061356a565b905060185481111561140957506018545b601754611416908261357e565b601554111561143f5760175461142c908261357e565b601554611439919061359d565b91505090565b505060165490565b505b90565b606081518351146114b15760405162461bcd60e51b815260206004820152602960248201527f455243313135353a206163636f756e747320616e6420696473206c656e677468604482015268040dad2e6dac2e8c6d60bb1b6064820152608401610a87565b6000835167ffffffffffffffff8111156114db57634e487b7160e01b600052604160045260246000fd5b604051908082528060200260200182016040528015611504578160200160208202803683370190505b50905060005b84518110156115a65761156b85828151811061153657634e487b7160e01b600052603260045260246000fd5b602002602001015185838151811061155e57634e487b7160e01b600052603260045260246000fd5b6020026020010151610a1f565b82828151811061158b57634e487b7160e01b600052603260045260246000fd5b602090810291909101015261159f8161361c565b905061150a565b509392505050565b6115b6611e0c565b6115bf81612178565b50565b6115ca611e0c565b600955565b6115d7611e0c565b6012546040516001600160a01b03909116904780156108fc02916000818181858888f1935050505061160857600080fd5b565b60008061167b6116757f182854de6a51f3818344a7eb784b9d55c1e6d2d20c9f9aea309f5daaaaddfec1336040805160208101939093526001600160a01b0390911690820152606081018790526080016040516020818303038152906040528051906020012061218f565b846121dd565b601154600160281b90046001600160a01b0390811691161491505092915050565b606060048054610b17906135b4565b336001600160a01b03831614156117165760405162461bcd60e51b815260206004820152602960248201527f455243313135353a2073657474696e6720617070726f76616c20737461747573604482015268103337b91039b2b63360b91b6064820152608401610a87565b3360008181526001602090815260408083206001600160a01b03871680855290835292819020805460ff191686151590811790915590519081529192917f17307eab39ab6107e8899845ad3d59bd9653f200f220920489ca2b5937696c31910160405180910390a35050565b61178a611e0c565b601180549115156401000000000264ff0000000019909216919091179055565b60115460ff1615156001146117f35760405162461bcd60e51b815260206004820152600f60248201526e53414c455f4e4f545f41435449564560881b6044820152606401610a87565b600a544210156118385760405162461bcd60e51b815260206004820152601060248201526f4e4f545f494e5f53414c455f54494d4560801b6044820152606401610a87565b32331461187c5760405162461bcd60e51b815260206004820152601260248201527110d05313115497d254d7d0d3d395149050d560721b6044820152606401610a87565b6011546301000000900460ff161515600114156118ef5761189d828261160a565b6118e95760405162461bcd60e51b815260206004820152601b60248201527f4e6f7420656c696769626c6520666f722077686974656c6973742e00000000006044820152606401610a87565b60088290555b60115462010000900460ff161515600114156119d15761191783611911611375565b906121f9565b3410156119665760405162461bcd60e51b815260206004820152601f60248201527f45746865722076616c75652073656e74206973206e6f7420656e6f7567682e006044820152606401610a87565b6000831180156119845750600f54600c546119819085611e62565b11155b6119cc5760405162461bcd60e51b815260206004820152601960248201527822bc31b2b2b2399026a0ac2fa727a926a0a62faa27a5a2a71760391b6044820152606401610a87565b6119fc565b6009546119de90846121f9565b34146119fc5760405162461bcd60e51b8152600401610a8790613457565b600083118015611a1a5750600554600c54611a179085611e62565b11155b611a625760405162461bcd60e51b815260206004820152601960248201527822bc31b2b2b2399026a0ac2fa727a926a0a62faa27a5a2a71760391b6044820152606401610a87565b600854336000908152601b6020526040902054611a7f9085611e62565b1115611ac05760405162461bcd60e51b815260206004820152601060248201526f22bc32b2b2399038bab0b73a34ba3c9760811b6044820152606401610a87565b60008060005b85811015611c2c576040516bffffffffffffffffffffffff193360601b166020820152603481018290524260548201526000906074016040516020818303038152906040529050611b1681612205565b9350611b23846001613552565b92505b600083815260196020908152604080832054601a90925290912054611b4c906001611e62565b1115611b7257611b5d836001613552565b92506014831115611b6d57600192505b611b26565b611b8e3384600160405180602001604052806000815250611e75565b6000838152601a6020526040902054611ba8906001611e62565b6000848152601a6020526040902055600c54611bc5906001611e62565b600c55600b54611bd6906001611e62565b600b8190556040517fb32c32014221c522f5b713daa9a1df4bd21450f8b5c763ba3ca01f088f95c86491611c11913391879160019190613395565b60405180910390a15080611c248161361c565b915050611ac6565b50336000908152601b6020526040902054611c479086611e62565b336000908152601b60205260409020555050505050565b611c66611e0c565b601395909555601493909355601591909155601655601755601855565b611c8b611e0c565b601280546001600160a01b0319166001600160a01b0392909216919091179055565b6001600160a01b038516331480611cc95750611cc98533610959565b611d275760405162461bcd60e51b815260206004820152602960248201527f455243313135353a2063616c6c6572206973206e6f74206f776e6572206e6f7260448201526808185c1c1c9bdd995960ba1b6064820152608401610a87565b611219858585858561223e565b601154640100000000900460ff161515600114611d8a5760405162461bcd60e51b8152602060048201526014602482015273213ab937103430b9b713ba1039ba30b93a32b21760611b6044820152606401610a87565b6001600160a01b038316321480611da65750611da68333610959565b611dfc5760405162461bcd60e51b815260206004820152602160248201527f43616c6c6572206973206e6f74206f776e6572206e6f7220617070726f7665646044820152601760f91b6064820152608401610a87565b611e0783838361235b565b505050565b601154600160281b90046001600160a01b031633146116085760405162461bcd60e51b81526020600482015260126024820152712cb7ba9030b932903737ba1037bbb732b91760711b6044820152606401610a87565b6000611e6e8284613552565b9392505050565b6001600160a01b038416611ed55760405162461bcd60e51b815260206004820152602160248201527f455243313135353a206d696e7420746f20746865207a65726f206164647265736044820152607360f81b6064820152608401610a87565b33611eef81600087611ee6886124d5565b611219886124d5565b6000848152602081815260408083206001600160a01b038916845290915281208054859290611f1f908490613552565b909155505060408051858152602081018590526001600160a01b0380881692600092918516917fc3d58168c5ae7397731d063d5bbf3d657854427343f4c083240f7aacaa2d0f62910160405180910390a46112198160008787878761252e565b8151835114611fe15760405162461bcd60e51b815260206004820152602860248201527f455243313135353a2069647320616e6420616d6f756e7473206c656e677468206044820152670dad2e6dac2e8c6d60c31b6064820152608401610a87565b6001600160a01b0384166120075760405162461bcd60e51b8152600401610a879061349f565b3360005b845181101561210a57600085828151811061203657634e487b7160e01b600052603260045260246000fd5b60200260200101519050600085838151811061206257634e487b7160e01b600052603260045260246000fd5b602090810291909101810151600084815280835260408082206001600160a01b038e1683529093529190912054909150818110156120b25760405162461bcd60e51b8152600401610a87906134e4565b6000838152602081815260408083206001600160a01b038e8116855292528083208585039055908b168252812080548492906120ef908490613552565b92505081905550505050806121039061361c565b905061200b565b50846001600160a01b0316866001600160a01b0316826001600160a01b03167f4a39dc06d4c0dbc64b70af90fd698a233a518aa5d07e595d983b8c0526c8f7fb878760405161215a9291906133ce565b60405180910390a4612170818787878787612699565b505050505050565b805161218b906002906020840190612be3565b5050565b6000610b0261219c612763565b8360405161190160f01b6020820152602281018390526042810182905260009060620160405160208183030381529060405280519060200120905092915050565b60008060006121ec8585612856565b915091506115a6816128c6565b6000611e6e828461357e565b6000808260405160200161221991906133fc565b60408051601f1981840301815291905280516020909101209050611e6e601482613637565b6001600160a01b0384166122645760405162461bcd60e51b8152600401610a879061349f565b33612274818787611ee6886124d5565b6000848152602081815260408083206001600160a01b038a168452909152902054838110156122b55760405162461bcd60e51b8152600401610a87906134e4565b6000858152602081815260408083206001600160a01b038b81168552925280832087850390559088168252812080548692906122f2908490613552565b909155505060408051868152602081018690526001600160a01b03808916928a821692918616917fc3d58168c5ae7397731d063d5bbf3d657854427343f4c083240f7aacaa2d0f62910160405180910390a461235282888888888861252e565b50505050505050565b6001600160a01b0383166123bd5760405162461bcd60e51b815260206004820152602360248201527f455243313135353a206275726e2066726f6d20746865207a65726f206164647260448201526265737360e81b6064820152608401610a87565b336123ed818560006123ce876124d5565b6123d7876124d5565b5050604080516020810190915260009052505050565b6000838152602081815260408083206001600160a01b03881684529091529020548281101561246a5760405162461bcd60e51b8152602060048201526024808201527f455243313135353a206275726e20616d6f756e7420657863656564732062616c604482015263616e636560e01b6064820152608401610a87565b6000848152602081815260408083206001600160a01b03898116808652918452828520888703905582518981529384018890529092908616917fc3d58168c5ae7397731d063d5bbf3d657854427343f4c083240f7aacaa2d0f62910160405180910390a45050505050565b6040805160018082528183019092526060916000919060208083019080368337019050509050828160008151811061251d57634e487b7160e01b600052603260045260246000fd5b602090810291909101015292915050565b6001600160a01b0384163b156121705760405163f23a6e6160e01b81526001600160a01b0385169063f23a6e61906125729089908990889088908890600401613350565b602060405180830381600087803b15801561258c57600080fd5b505af19250505080156125bc575060408051601f3d908101601f191682019092526125b9918101906130c5565b60015b612669576125c861368d565b806308c379a0141561260257506125dd6136a4565b806125e85750612604565b8060405162461bcd60e51b8152600401610a8791906133fc565b505b60405162461bcd60e51b815260206004820152603460248201527f455243313135353a207472616e7366657220746f206e6f6e20455243313135356044820152732932b1b2b4bb32b91034b6b83632b6b2b73a32b960611b6064820152608401610a87565b6001600160e01b0319811663f23a6e6160e01b146123525760405162461bcd60e51b8152600401610a879061340f565b6001600160a01b0384163b156121705760405163bc197c8160e01b81526001600160a01b0385169063bc197c81906126dd90899089908890889088906004016132f2565b602060405180830381600087803b1580156126f757600080fd5b505af1925050508015612727575060408051601f3d908101601f19168201909252612724918101906130c5565b60015b612733576125c861368d565b6001600160e01b0319811663bc197c8160e01b146123525760405162461bcd60e51b8152600401610a879061340f565b60007f00000000000000000000000000000000000000000000000000000000000000004614156127b257507f000000000000000000000000000000000000000000000000000000000000000090565b50604080517f00000000000000000000000000000000000000000000000000000000000000006020808301919091527f0000000000000000000000000000000000000000000000000000000000000000828401527f000000000000000000000000000000000000000000000000000000000000000060608301524660808301523060a0808401919091528351808403909101815260c0909201909252805191012090565b60008082516041141561288d5760208301516040840151606085015160001a61288187828585612ac7565b945094505050506128bf565b8251604014156128b757602083015160408401516128ac868383612bb4565b9350935050506128bf565b506000905060025b9250929050565b60008160048111156128e857634e487b7160e01b600052602160045260246000fd5b14156128f15750565b600181600481111561291357634e487b7160e01b600052602160045260246000fd5b14156129615760405162461bcd60e51b815260206004820152601860248201527f45434453413a20696e76616c6964207369676e617475726500000000000000006044820152606401610a87565b600281600481111561298357634e487b7160e01b600052602160045260246000fd5b14156129d15760405162461bcd60e51b815260206004820152601f60248201527f45434453413a20696e76616c6964207369676e6174757265206c656e677468006044820152606401610a87565b60038160048111156129f357634e487b7160e01b600052602160045260246000fd5b1415612a4c5760405162461bcd60e51b815260206004820152602260248201527f45434453413a20696e76616c6964207369676e6174757265202773272076616c604482015261756560f01b6064820152608401610a87565b6004816004811115612a6e57634e487b7160e01b600052602160045260246000fd5b14156115bf5760405162461bcd60e51b815260206004820152602260248201527f45434453413a20696e76616c6964207369676e6174757265202776272076616c604482015261756560f01b6064820152608401610a87565b6000807f7fffffffffffffffffffffffffffffff5d576e7357a4501ddfe92f46681b20a0831115612afe5750600090506003612bab565b8460ff16601b14158015612b1657508460ff16601c14155b15612b275750600090506004612bab565b6040805160008082526020820180845289905260ff881692820192909252606081018690526080810185905260019060a0016020604051602081039080840390855afa158015612b7b573d6000803e3d6000fd5b5050604051601f1901519150506001600160a01b038116612ba457600060019250925050612bab565b9150600090505b94509492505050565b6000806001600160ff1b03831660ff84901c601b01612bd587828885612ac7565b935093505050935093915050565b828054612bef906135b4565b90600052602060002090601f016020900481019282612c115760008555612c57565b82601f10612c2a57805160ff1916838001178555612c57565b82800160010185558215612c57579182015b82811115612c57578251825591602001919060010190612c3c565b506114479291505b808211156114475760008155600101612c5f565b600067ffffffffffffffff831115612c8d57612c8d613677565b604051612ca4601f8501601f1916602001826135ef565b809150838152848484011115612cb957600080fd5b83836020830137600060208583010152509392505050565b80356001600160a01b0381168114612ce857600080fd5b919050565b600082601f830112612cfd578081fd5b81356020612d0a8261352e565b604051612d1782826135ef565b8381528281019150858301600585901b87018401881015612d36578586fd5b855b85811015612d5457813584529284019290840190600101612d38565b5090979650505050505050565b80358015158114612ce857600080fd5b600082601f830112612d81578081fd5b611e6e83833560208501612c73565b600060208284031215612da1578081fd5b611e6e82612cd1565b60008060408385031215612dbc578081fd5b612dc583612cd1565b9150612dd360208401612cd1565b90509250929050565b600080600080600060a08688031215612df3578081fd5b612dfc86612cd1565b9450612e0a60208701612cd1565b9350604086013567ffffffffffffffff80821115612e26578283fd5b612e3289838a01612ced565b94506060880135915080821115612e47578283fd5b612e5389838a01612ced565b93506080880135915080821115612e68578283fd5b50612e7588828901612d71565b9150509295509295909350565b600080600080600060a08688031215612e99578081fd5b612ea286612cd1565b9450612eb060208701612cd1565b93506040860135925060608601359150608086013567ffffffffffffffff811115612ed9578182fd5b612e7588828901612d71565b60008060408385031215612ef7578182fd5b612f0083612cd1565b9150612dd360208401612d61565b60008060408385031215612f20578182fd5b612f2983612cd1565b946020939093013593505050565b600080600060608486031215612f4b578283fd5b612f5484612cd1565b95602085013595506040909401359392505050565b60008060408385031215612f7b578182fd5b823567ffffffffffffffff80821115612f92578384fd5b818501915085601f830112612fa5578384fd5b81356020612fb28261352e565b604051612fbf82826135ef565b8381528281019150858301600585901b870184018b1015612fde578889fd5b8896505b8487101561300757612ff381612cd1565b835260019690960195918301918301612fe2565b509650508601359250508082111561301d578283fd5b5061302a85828601612ced565b9150509250929050565b600060208284031215613045578081fd5b611e6e82612d61565b600080600080600060a08688031215613065578283fd5b61306e86612d61565b945061307c60208701612d61565b935061308a60408701612d61565b925061309860608701612d61565b949793965091946080013592915050565b6000602082840312156130ba578081fd5b8135611e6e8161372e565b6000602082840312156130d6578081fd5b8151611e6e8161372e565b6000602082840312156130f2578081fd5b813567ffffffffffffffff811115613108578182fd5b8201601f81018413613118578182fd5b61312784823560208401612c73565b949350505050565b600060208284031215613140578081fd5b5035919050565b60008060408385031215613159578182fd5b82359150602083013567ffffffffffffffff811115613176578182fd5b61302a85828601612d71565b60008060408385031215613194578182fd5b50508035926020909101359150565b6000806000606084860312156131b7578081fd5b8335925060208401359150604084013567ffffffffffffffff8111156131db578182fd5b6131e786828701612d71565b9150509250925092565b600080600080600060a08688031215613208578283fd5b505083359560208501359550604085013594606081013594506080013592509050565b60008060008060008060c08789031215613243578384fd5b505084359660208601359650604086013595606081013595506080810135945060a0013592509050565b6000815180845260208085019450808401835b8381101561329c57815187529582019590820190600101613280565b509495945050505050565b60008151808452815b818110156132cc576020818501810151868301820152016132b0565b818111156132dd5782602083870101525b50601f01601f19169290920160200192915050565b6001600160a01b0386811682528516602082015260a06040820181905260009061331e9083018661326d565b8281036060840152613330818661326d565b9050828103608084015261334481856132a7565b98975050505050505050565b6001600160a01b03868116825285166020820152604081018490526060810183905260a06080820181905260009061338a908301846132a7565b979650505050505050565b6001600160a01b0394909416845260208401929092526040830152606082015260800190565b602081526000611e6e602083018461326d565b6040815260006133e1604083018561326d565b82810360208401526133f3818561326d565b95945050505050565b602081526000611e6e60208301846132a7565b60208082526028908201527f455243313135353a204552433131353552656365697665722072656a656374656040820152676420746f6b656e7360c01b606082015260800190565b60208082526028908201527f45746865722076616c75652073656e74206973206e6f7420657175616c2074686040820152673290383934b1b29760c11b606082015260800190565b60208082526025908201527f455243313135353a207472616e7366657220746f20746865207a65726f206164604082015264647265737360d81b606082015260800190565b6020808252602a908201527f455243313135353a20696e73756666696369656e742062616c616e636520666f60408201526939103a3930b739b332b960b11b606082015260800190565b600067ffffffffffffffff82111561354857613548613677565b5060051b60200190565b600082198211156135655761356561364b565b500190565b60008261357957613579613661565b500490565b60008160001904831182151516156135985761359861364b565b500290565b6000828210156135af576135af61364b565b500390565b600181811c908216806135c857607f821691505b602082108114156135e957634e487b7160e01b600052602260045260246000fd5b50919050565b601f8201601f1916810167ffffffffffffffff8111828210171561361557613615613677565b6040525050565b60006000198214156136305761363061364b565b5060010190565b60008261364657613646613661565b500690565b634e487b7160e01b600052601160045260246000fd5b634e487b7160e01b600052601260045260246000fd5b634e487b7160e01b600052604160045260246000fd5b600060033d111561144957600481823e5160e01c90565b600060443d10156136b25790565b6040516003193d81016004833e81513d67ffffffffffffffff81602484011181841117156136e257505050505090565b82850191508151818111156136fa5750505050505090565b843d87010160208285010111156137145750505050505090565b613723602082860101876135ef565b509095945050505050565b6001600160e01b0319811681146115bf57600080fdfea2646970667358221220a88d390e856fe40c3522bd762b5ef088b21c812477be3d6b088d068a99fc3d1c64736f6c63430008040033687474703a2f2f6170692e756e6e616d65746f6b656e2e636f6d2f4d657461646174612f7b69647d",
  "devdoc": {
    "kind": "dev",
    "methods": {
      "balanceOf(address,uint256)": {
        "details": "See {IERC1155-balanceOf}. Requirements: - `account` cannot be the zero address."
      },
      "balanceOfBatch(address[],uint256[])": {
        "details": "See {IERC1155-balanceOfBatch}. Requirements: - `accounts` and `ids` must have the same length."
      },
      "isApprovedForAll(address,address)": {
        "details": "See {IERC1155-isApprovedForAll}."
      },
      "safeBatchTransferFrom(address,address,uint256[],uint256[],bytes)": {
        "details": "See {IERC1155-safeBatchTransferFrom}."
      },
      "safeTransferFrom(address,address,uint256,uint256,bytes)": {
        "details": "See {IERC1155-safeTransferFrom}."
      },
      "setApprovalForAll(address,bool)": {
        "details": "See {IERC1155-setApprovalForAll}."
      },
      "supportsInterface(bytes4)": {
        "details": "See {IERC165-supportsInterface}."
      },
      "uri(uint256)": {
        "details": "See {IERC1155MetadataURI-uri}. This implementation returns the same URI for *all* token types. It relies on the token type ID substitution mechanism https://eips.ethereum.org/EIPS/eip-1155#metadata[defined in the EIP]. Clients calling this function must replace the `\\{id\\}` substring with the actual token type ID."
      }
    },
    "version": 1
  },
  "userdoc": {
    "kind": "user",
    "methods": {},
    "version": 1
  },
  "storageLayout": {
    "storage": [
      {
        "astId": 25,
        "contract": "contracts/Unname.sol:Unname",
        "label": "_balances",
        "offset": 0,
        "slot": "0",
        "type": "t_mapping(t_uint256,t_mapping(t_address,t_uint256))"
      },
      {
        "astId": 31,
        "contract": "contracts/Unname.sol:Unname",
        "label": "_operatorApprovals",
        "offset": 0,
        "slot": "1",
        "type": "t_mapping(t_address,t_mapping(t_address,t_bool))"
      },
      {
        "astId": 33,
        "contract": "contracts/Unname.sol:Unname",
        "label": "_uri",
        "offset": 0,
        "slot": "2",
        "type": "t_string_storage"
      },
      {
        "astId": 2654,
        "contract": "contracts/Unname.sol:Unname",
        "label": "_name",
        "offset": 0,
        "slot": "3",
        "type": "t_string_storage"
      },
      {
        "astId": 2657,
        "contract": "contracts/Unname.sol:Unname",
        "label": "_symbol",
        "offset": 0,
        "slot": "4",
        "type": "t_string_storage"
      },
      {
        "astId": 2660,
        "contract": "contracts/Unname.sol:Unname",
        "label": "MAX_NORMAL_TOKEN",
        "offset": 0,
        "slot": "5",
        "type": "t_uint256"
      },
      {
        "astId": 2663,
        "contract": "contracts/Unname.sol:Unname",
        "label": "MAX_SPECIAL_TOKEN",
        "offset": 0,
        "slot": "6",
        "type": "t_uint256"
      },
      {
        "astId": 2666,
        "contract": "contracts/Unname.sol:Unname",
        "label": "SPECIAL_CARD_CONDICTION",
        "offset": 0,
        "slot": "7",
        "type": "t_uint256"
      },
      {
        "astId": 2669,
        "contract": "contracts/Unname.sol:Unname",
        "label": "MAX_ADDRESS_TOKEN",
        "offset": 0,
        "slot": "8",
        "type": "t_uint256"
      },
      {
        "astId": 2672,
        "contract": "contracts/Unname.sol:Unname",
        "label": "PRICE",
        "offset": 0,
        "slot": "9",
        "type": "t_uint256"
      },
      {
        "astId": 2675,
        "contract": "contracts/Unname.sol:Unname",
        "label": "saleTimestamp",
        "offset": 0,
        "slot": "10",
        "type": "t_uint256"
      },
      {
        "astId": 2678,
        "contract": "contracts/Unname.sol:Unname",
        "label": "totalSupply",
        "offset": 0,
        "slot": "11",
        "type": "t_uint256"
      },
      {
        "astId": 2681,
        "contract": "contracts/Unname.sol:Unname",
        "label": "normalSupply",
        "offset": 0,
        "slot": "12",
        "type": "t_uint256"
      },
      {
        "astId": 2684,
        "contract": "contracts/Unname.sol:Unname",
        "label": "specialSupply",
        "offset": 0,
        "slot": "13",
        "type": "t_uint256"
      },
      {
        "astId": 2687,
        "contract": "contracts/Unname.sol:Unname",
        "label": "claimStageLimit",
        "offset": 0,
        "slot": "14",
        "type": "t_uint256"
      },
      {
        "astId": 2690,
        "contract": "contracts/Unname.sol:Unname",
        "label": "auctionStageLimit",
        "offset": 0,
        "slot": "15",
        "type": "t_uint256"
      },
      {
        "astId": 2693,
        "contract": "contracts/Unname.sol:Unname",
        "label": "specialCardId",
        "offset": 0,
        "slot": "16",
        "type": "t_uint256"
      },
      {
        "astId": 2696,
        "contract": "contracts/Unname.sol:Unname",
        "label": "hasSaleStarted",
        "offset": 0,
        "slot": "17",
        "type": "t_bool"
      },
      {
        "astId": 2699,
        "contract": "contracts/Unname.sol:Unname",
        "label": "hasClaimStarted",
        "offset": 1,
        "slot": "17",
        "type": "t_bool"
      },
      {
        "astId": 2702,
        "contract": "contracts/Unname.sol:Unname",
        "label": "hasAuctionStarted",
        "offset": 2,
        "slot": "17",
        "type": "t_bool"
      },
      {
        "astId": 2705,
        "contract": "contracts/Unname.sol:Unname",
        "label": "whitelistSwitch",
        "offset": 3,
        "slot": "17",
        "type": "t_bool"
      },
      {
        "astId": 2708,
        "contract": "contracts/Unname.sol:Unname",
        "label": "burnStarted",
        "offset": 4,
        "slot": "17",
        "type": "t_bool"
      },
      {
        "astId": 2711,
        "contract": "contracts/Unname.sol:Unname",
        "label": "owner",
        "offset": 5,
        "slot": "17",
        "type": "t_address"
      },
      {
        "astId": 2714,
        "contract": "contracts/Unname.sol:Unname",
        "label": "treasury",
        "offset": 0,
        "slot": "18",
        "type": "t_address"
      },
      {
        "astId": 2716,
        "contract": "contracts/Unname.sol:Unname",
        "label": "auctionStartTimestamp",
        "offset": 0,
        "slot": "19",
        "type": "t_uint256"
      },
      {
        "astId": 2718,
        "contract": "contracts/Unname.sol:Unname",
        "label": "auctionTimeStep",
        "offset": 0,
        "slot": "20",
        "type": "t_uint256"
      },
      {
        "astId": 2720,
        "contract": "contracts/Unname.sol:Unname",
        "label": "auctionStartPrice",
        "offset": 0,
        "slot": "21",
        "type": "t_uint256"
      },
      {
        "astId": 2722,
        "contract": "contracts/Unname.sol:Unname",
        "label": "auctionEndPrice",
        "offset": 0,
        "slot": "22",
        "type": "t_uint256"
      },
      {
        "astId": 2724,
        "contract": "contracts/Unname.sol:Unname",
        "label": "auctionPriceStep",
        "offset": 0,
        "slot": "23",
        "type": "t_uint256"
      },
      {
        "astId": 2726,
        "contract": "contracts/Unname.sol:Unname",
        "label": "auctionStepNumber",
        "offset": 0,
        "slot": "24",
        "type": "t_uint256"
      },
      {
        "astId": 2730,
        "contract": "contracts/Unname.sol:Unname",
        "label": "quantityLimit",
        "offset": 0,
        "slot": "25",
        "type": "t_mapping(t_uint256,t_uint256)"
      },
      {
        "astId": 2734,
        "contract": "contracts/Unname.sol:Unname",
        "label": "idHasMinted",
        "offset": 0,
        "slot": "26",
        "type": "t_mapping(t_uint256,t_uint256)"
      },
      {
        "astId": 2738,
        "contract": "contracts/Unname.sol:Unname",
        "label": "addressHasMinted",
        "offset": 0,
        "slot": "27",
        "type": "t_mapping(t_address,t_uint256)"
      },
      {
        "astId": 2742,
        "contract": "contracts/Unname.sol:Unname",
        "label": "addressHasClaimed",
        "offset": 0,
        "slot": "28",
        "type": "t_mapping(t_address,t_uint256)"
      }
    ],
    "types": {
      "t_address": {
        "encoding": "inplace",
        "label": "address",
        "numberOfBytes": "20"
      },
      "t_bool": {
        "encoding": "inplace",
        "label": "bool",
        "numberOfBytes": "1"
      },
      "t_mapping(t_address,t_bool)": {
        "encoding": "mapping",
        "key": "t_address",
        "label": "mapping(address => bool)",
        "numberOfBytes": "32",
        "value": "t_bool"
      },
      "t_mapping(t_address,t_mapping(t_address,t_bool))": {
        "encoding": "mapping",
        "key": "t_address",
        "label": "mapping(address => mapping(address => bool))",
        "numberOfBytes": "32",
        "value": "t_mapping(t_address,t_bool)"
      },
      "t_mapping(t_address,t_uint256)": {
        "encoding": "mapping",
        "key": "t_address",
        "label": "mapping(address => uint256)",
        "numberOfBytes": "32",
        "value": "t_uint256"
      },
      "t_mapping(t_uint256,t_mapping(t_address,t_uint256))": {
        "encoding": "mapping",
        "key": "t_uint256",
        "label": "mapping(uint256 => mapping(address => uint256))",
        "numberOfBytes": "32",
        "value": "t_mapping(t_address,t_uint256)"
      },
      "t_mapping(t_uint256,t_uint256)": {
        "encoding": "mapping",
        "key": "t_uint256",
        "label": "mapping(uint256 => uint256)",
        "numberOfBytes": "32",
        "value": "t_uint256"
      },
      "t_string_storage": {
        "encoding": "bytes",
        "label": "string",
        "numberOfBytes": "32"
      },
      "t_uint256": {
        "encoding": "inplace",
        "label": "uint256",
        "numberOfBytes": "32"
      }
    }
  }
}