{
  "address": "0x7296334165fC627d9Ed0D432d590b1475c2f3f2F",
  "abi": [
    {
      "inputs": [],
      "stateMutability": "nonpayable",
      "type": "constructor"
    },
    {
      "anonymous": false,
      "inputs": [
        {
          "indexed": true,
          "internalType": "address",
          "name": "account",
          "type": "address"
        },
        {
          "indexed": true,
          "internalType": "address",
          "name": "operator",
          "type": "address"
        },
        {
          "indexed": false,
          "internalType": "bool",
          "name": "approved",
          "type": "bool"
        }
      ],
      "name": "ApprovalForAll",
      "type": "event"
    },
    {
      "anonymous": false,
      "inputs": [
        {
          "indexed": true,
          "internalType": "address",
          "name": "operator",
          "type": "address"
        },
        {
          "indexed": true,
          "internalType": "address",
          "name": "from",
          "type": "address"
        },
        {
          "indexed": true,
          "internalType": "address",
          "name": "to",
          "type": "address"
        },
        {
          "indexed": false,
          "internalType": "uint256[]",
          "name": "ids",
          "type": "uint256[]"
        },
        {
          "indexed": false,
          "internalType": "uint256[]",
          "name": "values",
          "type": "uint256[]"
        }
      ],
      "name": "TransferBatch",
      "type": "event"
    },
    {
      "anonymous": false,
      "inputs": [
        {
          "indexed": true,
          "internalType": "address",
          "name": "operator",
          "type": "address"
        },
        {
          "indexed": true,
          "internalType": "address",
          "name": "from",
          "type": "address"
        },
        {
          "indexed": true,
          "internalType": "address",
          "name": "to",
          "type": "address"
        },
        {
          "indexed": false,
          "internalType": "uint256",
          "name": "id",
          "type": "uint256"
        },
        {
          "indexed": false,
          "internalType": "uint256",
          "name": "value",
          "type": "uint256"
        }
      ],
      "name": "TransferSingle",
      "type": "event"
    },
    {
      "anonymous": false,
      "inputs": [
        {
          "indexed": false,
          "internalType": "string",
          "name": "value",
          "type": "string"
        },
        {
          "indexed": true,
          "internalType": "uint256",
          "name": "id",
          "type": "uint256"
        }
      ],
      "name": "URI",
      "type": "event"
    },
    {
      "anonymous": false,
      "inputs": [
        {
          "indexed": false,
          "internalType": "address",
          "name": "owner",
          "type": "address"
        },
        {
          "indexed": false,
          "internalType": "uint256",
          "name": "id",
          "type": "uint256"
        },
        {
          "indexed": false,
          "internalType": "uint256",
          "name": "quantity",
          "type": "uint256"
        },
        {
          "indexed": false,
          "internalType": "uint256",
          "name": "totalSupply",
          "type": "uint256"
        }
      ],
      "name": "mintEvent",
      "type": "event"
    },
    {
      "inputs": [],
      "name": "MAX_ADDRESS_TOKEN",
      "outputs": [
        {
          "internalType": "uint256",
          "name": "",
          "type": "uint256"
        }
      ],
      "stateMutability": "view",
      "type": "function"
    },
    {
      "inputs": [],
      "name": "MAX_NORMAL_TOKEN",
      "outputs": [
        {
          "internalType": "uint256",
          "name": "",
          "type": "uint256"
        }
      ],
      "stateMutability": "view",
      "type": "function"
    },
    {
      "inputs": [],
      "name": "MAX_SPECIAL_TOKEN",
      "outputs": [
        {
          "internalType": "uint256",
          "name": "",
          "type": "uint256"
        }
      ],
      "stateMutability": "view",
      "type": "function"
    },
    {
      "inputs": [],
      "name": "PRICE",
      "outputs": [
        {
          "internalType": "uint256",
          "name": "",
          "type": "uint256"
        }
      ],
      "stateMutability": "view",
      "type": "function"
    },
    {
      "inputs": [],
      "name": "SPECIAL_CARD_CONDITION",
      "outputs": [
        {
          "internalType": "uint256",
          "name": "",
          "type": "uint256"
        }
      ],
      "stateMutability": "view",
      "type": "function"
    },
    {
      "inputs": [
        {
          "internalType": "address",
          "name": "",
          "type": "address"
        }
      ],
      "name": "addressHasClaimed",
      "outputs": [
        {
          "internalType": "uint256",
          "name": "",
          "type": "uint256"
        }
      ],
      "stateMutability": "view",
      "type": "function"
    },
    {
      "inputs": [
        {
          "internalType": "address",
          "name": "",
          "type": "address"
        }
      ],
      "name": "addressHasMinted",
      "outputs": [
        {
          "internalType": "uint256",
          "name": "",
          "type": "uint256"
        }
      ],
      "stateMutability": "view",
      "type": "function"
    },
    {
      "inputs": [],
      "name": "auctionEndPrice",
      "outputs": [
        {
          "internalType": "uint256",
          "name": "",
          "type": "uint256"
        }
      ],
      "stateMutability": "view",
      "type": "function"
    },
    {
      "inputs": [],
      "name": "auctionPriceStep",
      "outputs": [
        {
          "internalType": "uint256",
          "name": "",
          "type": "uint256"
        }
      ],
      "stateMutability": "view",
      "type": "function"
    },
    {
      "inputs": [],
      "name": "auctionStageLimit",
      "outputs": [
        {
          "internalType": "uint256",
          "name": "",
          "type": "uint256"
        }
      ],
      "stateMutability": "view",
      "type": "function"
    },
    {
      "inputs": [],
      "name": "auctionStartPrice",
      "outputs": [
        {
          "internalType": "uint256",
          "name": "",
          "type": "uint256"
        }
      ],
      "stateMutability": "view",
      "type": "function"
    },
    {
      "inputs": [],
      "name": "auctionStartTimestamp",
      "outputs": [
        {
          "internalType": "uint256",
          "name": "",
          "type": "uint256"
        }
      ],
      "stateMutability": "view",
      "type": "function"
    },
    {
      "inputs": [],
      "name": "auctionStepNumber",
      "outputs": [
        {
          "internalType": "uint256",
          "name": "",
          "type": "uint256"
        }
      ],
      "stateMutability": "view",
      "type": "function"
    },
    {
      "inputs": [],
      "name": "auctionTimeStep",
      "outputs": [
        {
          "internalType": "uint256",
          "name": "",
          "type": "uint256"
        }
      ],
      "stateMutability": "view",
      "type": "function"
    },
    {
      "inputs": [
        {
          "internalType": "address",
          "name": "account",
          "type": "address"
        },
        {
          "internalType": "uint256",
          "name": "id",
          "type": "uint256"
        }
      ],
      "name": "balanceOf",
      "outputs": [
        {
          "internalType": "uint256",
          "name": "",
          "type": "uint256"
        }
      ],
      "stateMutability": "view",
      "type": "function"
    },
    {
      "inputs": [
        {
          "internalType": "address[]",
          "name": "accounts",
          "type": "address[]"
        },
        {
          "internalType": "uint256[]",
          "name": "ids",
          "type": "uint256[]"
        }
      ],
      "name": "balanceOfBatch",
      "outputs": [
        {
          "internalType": "uint256[]",
          "name": "",
          "type": "uint256[]"
        }
      ],
      "stateMutability": "view",
      "type": "function"
    },
    {
      "inputs": [
        {
          "internalType": "address",
          "name": "account",
          "type": "address"
        },
        {
          "internalType": "uint256",
          "name": "id",
          "type": "uint256"
        },
        {
          "internalType": "uint256",
          "name": "quantity",
          "type": "uint256"
        }
      ],
      "name": "burn",
      "outputs": [],
      "stateMutability": "nonpayable",
      "type": "function"
    },
    {
      "inputs": [],
      "name": "burnStarted",
      "outputs": [
        {
          "internalType": "bool",
          "name": "",
          "type": "bool"
        }
      ],
      "stateMutability": "view",
      "type": "function"
    },
    {
      "inputs": [
        {
          "internalType": "uint256",
          "name": "maxQuantity",
          "type": "uint256"
        },
        {
          "internalType": "bytes",
          "name": "SIGNATURE",
          "type": "bytes"
        }
      ],
      "name": "claimSpecial",
      "outputs": [],
      "stateMutability": "payable",
      "type": "function"
    },
    {
      "inputs": [],
      "name": "claimStageLimit",
      "outputs": [
        {
          "internalType": "uint256",
          "name": "",
          "type": "uint256"
        }
      ],
      "stateMutability": "view",
      "type": "function"
    },
    {
      "inputs": [],
      "name": "getDutchAuctionPrice",
      "outputs": [
        {
          "internalType": "uint256",
          "name": "",
          "type": "uint256"
        }
      ],
      "stateMutability": "view",
      "type": "function"
    },
    {
      "inputs": [
        {
          "internalType": "address",
          "name": "to",
          "type": "address"
        },
        {
          "internalType": "uint256",
          "name": "id",
          "type": "uint256"
        },
        {
          "internalType": "uint256",
          "name": "quantity",
          "type": "uint256"
        }
      ],
      "name": "giveawayNFT",
      "outputs": [],
      "stateMutability": "nonpayable",
      "type": "function"
    },
    {
      "inputs": [],
      "name": "hasAuctionStarted",
      "outputs": [
        {
          "internalType": "bool",
          "name": "",
          "type": "bool"
        }
      ],
      "stateMutability": "view",
      "type": "function"
    },
    {
      "inputs": [],
      "name": "hasClaimStarted",
      "outputs": [
        {
          "internalType": "bool",
          "name": "",
          "type": "bool"
        }
      ],
      "stateMutability": "view",
      "type": "function"
    },
    {
      "inputs": [],
      "name": "hasSaleStarted",
      "outputs": [
        {
          "internalType": "bool",
          "name": "",
          "type": "bool"
        }
      ],
      "stateMutability": "view",
      "type": "function"
    },
    {
      "inputs": [
        {
          "internalType": "uint256",
          "name": "",
          "type": "uint256"
        }
      ],
      "name": "idHasMinted",
      "outputs": [
        {
          "internalType": "uint256",
          "name": "",
          "type": "uint256"
        }
      ],
      "stateMutability": "view",
      "type": "function"
    },
    {
      "inputs": [
        {
          "internalType": "address",
          "name": "account",
          "type": "address"
        },
        {
          "internalType": "address",
          "name": "operator",
          "type": "address"
        }
      ],
      "name": "isApprovedForAll",
      "outputs": [
        {
          "internalType": "bool",
          "name": "",
          "type": "bool"
        }
      ],
      "stateMutability": "view",
      "type": "function"
    },
    {
      "inputs": [
        {
          "internalType": "uint256",
          "name": "quantity",
          "type": "uint256"
        },
        {
          "internalType": "uint256",
          "name": "maxQuantity",
          "type": "uint256"
        },
        {
          "internalType": "bytes",
          "name": "SIGNATURE",
          "type": "bytes"
        }
      ],
      "name": "mintNormal",
      "outputs": [],
      "stateMutability": "payable",
      "type": "function"
    },
    {
      "inputs": [],
      "name": "name",
      "outputs": [
        {
          "internalType": "string",
          "name": "",
          "type": "string"
        }
      ],
      "stateMutability": "view",
      "type": "function"
    },
    {
      "inputs": [],
      "name": "normalSupply",
      "outputs": [
        {
          "internalType": "uint256",
          "name": "",
          "type": "uint256"
        }
      ],
      "stateMutability": "view",
      "type": "function"
    },
    {
      "inputs": [],
      "name": "owner",
      "outputs": [
        {
          "internalType": "address",
          "name": "",
          "type": "address"
        }
      ],
      "stateMutability": "view",
      "type": "function"
    },
    {
      "inputs": [
        {
          "internalType": "uint256",
          "name": "",
          "type": "uint256"
        }
      ],
      "name": "quantityLimit",
      "outputs": [
        {
          "internalType": "uint256",
          "name": "",
          "type": "uint256"
        }
      ],
      "stateMutability": "view",
      "type": "function"
    },
    {
      "inputs": [
        {
          "internalType": "address",
          "name": "from",
          "type": "address"
        },
        {
          "internalType": "address",
          "name": "to",
          "type": "address"
        },
        {
          "internalType": "uint256[]",
          "name": "ids",
          "type": "uint256[]"
        },
        {
          "internalType": "uint256[]",
          "name": "amounts",
          "type": "uint256[]"
        },
        {
          "internalType": "bytes",
          "name": "data",
          "type": "bytes"
        }
      ],
      "name": "safeBatchTransferFrom",
      "outputs": [],
      "stateMutability": "nonpayable",
      "type": "function"
    },
    {
      "inputs": [
        {
          "internalType": "address",
          "name": "from",
          "type": "address"
        },
        {
          "internalType": "address",
          "name": "to",
          "type": "address"
        },
        {
          "internalType": "uint256",
          "name": "id",
          "type": "uint256"
        },
        {
          "internalType": "uint256",
          "name": "amount",
          "type": "uint256"
        },
        {
          "internalType": "bytes",
          "name": "data",
          "type": "bytes"
        }
      ],
      "name": "safeTransferFrom",
      "outputs": [],
      "stateMutability": "nonpayable",
      "type": "function"
    },
    {
      "inputs": [],
      "name": "saleTimestamp",
      "outputs": [
        {
          "internalType": "uint256",
          "name": "",
          "type": "uint256"
        }
      ],
      "stateMutability": "view",
      "type": "function"
    },
    {
      "inputs": [
        {
          "internalType": "address",
          "name": "operator",
          "type": "address"
        },
        {
          "internalType": "bool",
          "name": "approved",
          "type": "bool"
        }
      ],
      "name": "setApprovalForAll",
      "outputs": [],
      "stateMutability": "nonpayable",
      "type": "function"
    },
    {
      "inputs": [
        {
          "internalType": "string",
          "name": "baseURI",
          "type": "string"
        }
      ],
      "name": "setBaseURI",
      "outputs": [],
      "stateMutability": "nonpayable",
      "type": "function"
    },
    {
      "inputs": [
        {
          "internalType": "bool",
          "name": "_burnStarted",
          "type": "bool"
        }
      ],
      "name": "setBurn",
      "outputs": [],
      "stateMutability": "nonpayable",
      "type": "function"
    },
    {
      "inputs": [
        {
          "internalType": "uint256",
          "name": "_auctionStartTimestamp",
          "type": "uint256"
        },
        {
          "internalType": "uint256",
          "name": "_auctionTimeStep",
          "type": "uint256"
        },
        {
          "internalType": "uint256",
          "name": "_auctionStartPrice",
          "type": "uint256"
        },
        {
          "internalType": "uint256",
          "name": "_auctionEndPrice",
          "type": "uint256"
        },
        {
          "internalType": "uint256",
          "name": "_auctionPriceStep",
          "type": "uint256"
        },
        {
          "internalType": "uint256",
          "name": "_auctionStepNumber",
          "type": "uint256"
        }
      ],
      "name": "setDutchAuction",
      "outputs": [],
      "stateMutability": "nonpayable",
      "type": "function"
    },
    {
      "inputs": [
        {
          "internalType": "uint256",
          "name": "_id",
          "type": "uint256"
        },
        {
          "internalType": "uint256",
          "name": "_MAX",
          "type": "uint256"
        }
      ],
      "name": "setIdLimit",
      "outputs": [],
      "stateMutability": "nonpayable",
      "type": "function"
    },
    {
      "inputs": [
        {
          "internalType": "address",
          "name": "_owner",
          "type": "address"
        }
      ],
      "name": "setOwner",
      "outputs": [],
      "stateMutability": "nonpayable",
      "type": "function"
    },
    {
      "inputs": [
        {
          "internalType": "uint256",
          "name": "_price",
          "type": "uint256"
        }
      ],
      "name": "setPRICE",
      "outputs": [],
      "stateMutability": "nonpayable",
      "type": "function"
    },
    {
      "inputs": [
        {
          "internalType": "bool",
          "name": "_hasSaleStarted",
          "type": "bool"
        },
        {
          "internalType": "bool",
          "name": "_hasClaimStarted",
          "type": "bool"
        },
        {
          "internalType": "bool",
          "name": "_hasAuctionStarted",
          "type": "bool"
        },
        {
          "internalType": "bool",
          "name": "_whitelistSwitch",
          "type": "bool"
        },
        {
          "internalType": "uint256",
          "name": "_saleTimestamp",
          "type": "uint256"
        }
      ],
      "name": "setSaleSwitch",
      "outputs": [],
      "stateMutability": "nonpayable",
      "type": "function"
    },
    {
      "inputs": [
        {
          "internalType": "address",
          "name": "_signer",
          "type": "address"
        }
      ],
      "name": "setSigner",
      "outputs": [],
      "stateMutability": "nonpayable",
      "type": "function"
    },
    {
      "inputs": [
        {
          "internalType": "uint256",
          "name": "_claimStageLimit",
          "type": "uint256"
        },
        {
          "internalType": "uint256",
          "name": "_auctionStageLimit",
          "type": "uint256"
        }
      ],
      "name": "setStageLimit",
      "outputs": [],
      "stateMutability": "nonpayable",
      "type": "function"
    },
    {
      "inputs": [
        {
          "internalType": "uint256",
          "name": "_MAX_NORMAL_TOKEN",
          "type": "uint256"
        },
        {
          "internalType": "uint256",
          "name": "_MAX_SPECIAL_TOKEN",
          "type": "uint256"
        },
        {
          "internalType": "uint256",
          "name": "_SPECIAL_CARD_CONDITION",
          "type": "uint256"
        },
        {
          "internalType": "uint256",
          "name": "_MAX_ADDRESS_TOKEN",
          "type": "uint256"
        },
        {
          "internalType": "uint256",
          "name": "_specialCardId",
          "type": "uint256"
        }
      ],
      "name": "setTokenLimit",
      "outputs": [],
      "stateMutability": "nonpayable",
      "type": "function"
    },
    {
      "inputs": [
        {
          "internalType": "address",
          "name": "_treasury",
          "type": "address"
        }
      ],
      "name": "setTreasury",
      "outputs": [],
      "stateMutability": "nonpayable",
      "type": "function"
    },
    {
      "inputs": [],
      "name": "signer",
      "outputs": [
        {
          "internalType": "address",
          "name": "",
          "type": "address"
        }
      ],
      "stateMutability": "view",
      "type": "function"
    },
    {
      "inputs": [],
      "name": "specialCardId",
      "outputs": [
        {
          "internalType": "uint256",
          "name": "",
          "type": "uint256"
        }
      ],
      "stateMutability": "view",
      "type": "function"
    },
    {
      "inputs": [],
      "name": "specialSupply",
      "outputs": [
        {
          "internalType": "uint256",
          "name": "",
          "type": "uint256"
        }
      ],
      "stateMutability": "view",
      "type": "function"
    },
    {
      "inputs": [
        {
          "internalType": "bytes4",
          "name": "interfaceId",
          "type": "bytes4"
        }
      ],
      "name": "supportsInterface",
      "outputs": [
        {
          "internalType": "bool",
          "name": "",
          "type": "bool"
        }
      ],
      "stateMutability": "view",
      "type": "function"
    },
    {
      "inputs": [],
      "name": "symbol",
      "outputs": [
        {
          "internalType": "string",
          "name": "",
          "type": "string"
        }
      ],
      "stateMutability": "view",
      "type": "function"
    },
    {
      "inputs": [],
      "name": "totalSupply",
      "outputs": [
        {
          "internalType": "uint256",
          "name": "",
          "type": "uint256"
        }
      ],
      "stateMutability": "view",
      "type": "function"
    },
    {
      "inputs": [],
      "name": "treasury",
      "outputs": [
        {
          "internalType": "address",
          "name": "",
          "type": "address"
        }
      ],
      "stateMutability": "view",
      "type": "function"
    },
    {
      "inputs": [
        {
          "internalType": "uint256",
          "name": "",
          "type": "uint256"
        }
      ],
      "name": "uri",
      "outputs": [
        {
          "internalType": "string",
          "name": "",
          "type": "string"
        }
      ],
      "stateMutability": "view",
      "type": "function"
    },
    {
      "inputs": [
        {
          "internalType": "uint256",
          "name": "maxQuantity",
          "type": "uint256"
        },
        {
          "internalType": "bytes",
          "name": "SIGNATURE",
          "type": "bytes"
        }
      ],
      "name": "verify",
      "outputs": [
        {
          "internalType": "bool",
          "name": "",
          "type": "bool"
        }
      ],
      "stateMutability": "view",
      "type": "function"
    },
    {
      "inputs": [],
      "name": "whitelistSwitch",
      "outputs": [
        {
          "internalType": "bool",
          "name": "",
          "type": "bool"
        }
      ],
      "stateMutability": "view",
      "type": "function"
    },
    {
      "inputs": [],
      "name": "withdrawAll",
      "outputs": [],
      "stateMutability": "payable",
      "type": "function"
    }
  ],
  "transactionHash": "0x003cec27c8cb895ef18c0c9331636a68be538b0356a122c1e284569244f43423",
  "args": [],
  "numDeployments": 7,
  "solcInputHash": "9dc89844f49bd5bfb4a73fcb770799b8",
  "bytecode": "0x6101606040526001610120819052600560fc1b61014090815262000027916003919062000288565b50604080518082019091526004808252631411955560e21b602090920191825262000053918162000288565b50610898600581905560166006556003600755600a60088190556702c68af0bb1400006009556361e5301090556000600b819055600c55601e600d55600e556015600f55601080546001600160c81b031916785279246e3626cebe71a4c181382a50a71d2a4156000000000017905560118054735279246e3626cebe71a4c181382a50a71d2a41566001600160a01b031991821681179092556012805490911690911790553480156200010557600080fd5b5060405180606001604052806028815260200162003bd5602891396040805180820182526006815265556e6e616d6560d01b60208083019182528351808501855260058152640312e302e360dc1b908201529151902060c08181527f06c015bd22b4c69690933c1058878ebdfef31f9aaae40bbe86d8a09fe1b2972c60e08190524660a081815286517f8b73c3c69bb8fe3d512ecc4cf759cc79239f7b179b0ffacaa9a75d522b39400f8188018190528189019690965260608101939093526080808401929092523083820152865180840390910181529190920190945283519390920192909220905261010052620001fe816200026f565b5060015b601581101562000233576000818152601960205260409020606e9055806200022a816200036b565b91505062000202565b5060155b602b8110156200026857600081815260196020526040902060019055806200025f816200036b565b91505062000237565b5062000393565b80516200028490600290602084019062000288565b5050565b82805462000296906200032e565b90600052602060002090601f016020900481019282620002ba576000855562000305565b82601f10620002d557805160ff191683800117855562000305565b8280016001018555821562000305579182015b8281111562000305578251825591602001919060010190620002e8565b506200031392915062000317565b5090565b5b8082111562000313576000815560010162000318565b600181811c908216806200034357607f821691505b602082108114156200036557634e487b7160e01b600052602260045260246000fd5b50919050565b60006000198214156200038c57634e487b7160e01b81526011600452602481fd5b5060010190565b60805160a05160c05160e051610100516137fd620003d860003960006128390152600061288801526000612863015260006127e70152600061281001526137fd6000f3fe6080604052600436106103805760003560e01c8063862a2b45116101d1578063c6a96c8f11610102578063e7e43465116100a0578063f242432a1161006f578063f242432a146109fe578063f5298aca14610a1e578063f5bb134e14610a3e578063fbf76eb214610a5457600080fd5b8063e7e4346514610955578063e985e9c514610975578063eea52d38146109be578063f0f44260146109de57600080fd5b8063d756985b116100dc578063d756985b146108e6578063d7eef865146108fc578063dcb8101f14610912578063e2e771a41461093f57600080fd5b8063c6a96c8f146108a4578063c7822598146108ba578063cca8a0d8146108d057600080fd5b8063a22cb4651161016f578063bcd25ee511610149578063bcd25ee51461083a578063bd55cf0d1461085b578063c44f81e21461087b578063c4f9ff101461089157600080fd5b8063a22cb465146107d7578063a5b5665c146107f7578063b2a098d91461080d57600080fd5b80639196eba5116101ab5780639196eba51461078057806395d89b4114610796578063964dd240146107ab578063a04a6ac8146107c157600080fd5b8063862a2b451461072b5780638d859f3e146107415780638da5cb5b1461075757600080fd5b80632e1de27f116102b65780634ca4fb34116102545780636c19e783116102235780636c19e783146106c4578063717bf336146106e4578063853828b61461070357806385852ce41461070b57600080fd5b80634ca4fb341461062a5780634e1273f41461065757806355f804b31461068457806361d027b3146106a457600080fd5b806344944f311161029057806344944f31146105bc5780634698a3d8146105e957806348b5f2bc146105ff5780634b30a9101461061557600080fd5b80632e1de27f146105695780632eb2c2d61461057c5780634017b12f1461059c57600080fd5b806318160ddd11610323578063238ac933116102fd578063238ac933146104d157806326df66ce14610509578063271cb22f146105295780632db218b61461054957600080fd5b806318160ddd1461048257806319cb4a1c146104975780631c8b232d146104b757600080fd5b80630af012dd1161035f5780630af012dd1461040a5780630b07e4d11461042c5780630e89341c1461044257806313af40351461046257600080fd5b8062fdd58e1461038557806301ffc9a7146103b857806306fdde03146103e8575b600080fd5b34801561039157600080fd5b506103a56103a0366004612f8e565b610a76565b6040519081526020015b60405180910390f35b3480156103c457600080fd5b506103d86103d3366004613129565b610b0d565b60405190151581526020016103af565b3480156103f457600080fd5b506103fd610b5f565b6040516103af919061347c565b34801561041657600080fd5b5061042a610425366004613202565b610bf1565b005b34801561043857600080fd5b506103a560055481565b34801561044e57600080fd5b506103fd61045d3660046131af565b610c04565b34801561046e57600080fd5b5061042a61047d366004612e10565b610c98565b34801561048e57600080fd5b506103a5610cd0565b3480156104a357600080fd5b5061042a6104b2366004613271565b610ce7565b3480156104c357600080fd5b506010546103d89060ff1681565b3480156104dd57600080fd5b506012546104f1906001600160a01b031681565b6040516001600160a01b0390911681526020016103af565b34801561051557600080fd5b506010546103d89062010000900460ff1681565b34801561053557600080fd5b5061042a610544366004613202565b610d06565b34801561055557600080fd5b5061042a6105643660046130ce565b610d20565b61042a6105773660046131c7565b610d7c565b34801561058857600080fd5b5061042a610597366004612e5c565b6111b5565b3480156105a857600080fd5b5061042a6105b7366004612fb7565b61124c565b3480156105c857600080fd5b506103a56105d7366004612e10565b601c6020526000908152604090205481565b3480156105f557600080fd5b506103a560175481565b34801561060b57600080fd5b506103a5600b5481565b34801561062157600080fd5b506103a561138e565b34801561063657600080fd5b506103a56106453660046131af565b601a6020526000908152604090205481565b34801561066357600080fd5b50610677610672366004612fe9565b611465565b6040516103af919061343b565b34801561069057600080fd5b5061042a61069f366004613161565b6115c7565b3480156106b057600080fd5b506011546104f1906001600160a01b031681565b3480156106d057600080fd5b5061042a6106df366004612e10565b6115db565b3480156106f057600080fd5b506010546103d890610100900460ff1681565b61042a611652565b34801561071757600080fd5b506103d86107263660046131c7565b61168d565b34801561073757600080fd5b506103a560085481565b34801561074d57600080fd5b506103a560095481565b34801561076357600080fd5b506010546104f1906501000000000090046001600160a01b031681565b34801561078c57600080fd5b506103a560145481565b3480156107a257600080fd5b506103fd611717565b3480156107b757600080fd5b506103a560185481565b3480156107cd57600080fd5b506103a560165481565b3480156107e357600080fd5b5061042a6107f2366004612f65565b611726565b34801561080357600080fd5b506103a5600c5481565b34801561081957600080fd5b506103a5610828366004612e10565b601b6020526000908152604090205481565b34801561084657600080fd5b506010546103d8906301000000900460ff1681565b34801561086757600080fd5b5061042a6108763660046130b4565b6117fd565b34801561088757600080fd5b506103a5600d5481565b61042a61089f366004613223565b611825565b3480156108b057600080fd5b506103a560135481565b3480156108c657600080fd5b506103a5600a5481565b3480156108dc57600080fd5b506103a560075481565b3480156108f257600080fd5b506103a560155481565b34801561090857600080fd5b506103a5600e5481565b34801561091e57600080fd5b506103a561092d3660046131af565b60196020526000908152604090205481565b34801561094b57600080fd5b506103a5600f5481565b34801561096157600080fd5b5061042a6109703660046132ab565b611ccf565b34801561098157600080fd5b506103d8610990366004612e2a565b6001600160a01b03918216600090815260016020908152604080832093909416825291909152205460ff1690565b3480156109ca57600080fd5b5061042a6109d93660046131af565b611cf4565b3480156109ea57600080fd5b5061042a6109f9366004612e10565b611d01565b348015610a0a57600080fd5b5061042a610a19366004612f02565b611d2b565b348015610a2a57600080fd5b5061042a610a39366004612fb7565b611db2565b348015610a4a57600080fd5b506103a560065481565b348015610a6057600080fd5b506010546103d890640100000000900460ff1681565b60006001600160a01b038316610ae75760405162461bcd60e51b815260206004820152602b60248201527f455243313135353a2062616c616e636520717565727920666f7220746865207a60448201526a65726f206164647265737360a81b60648201526084015b60405180910390fd5b506000908152602081815260408083206001600160a01b03949094168352929052205490565b60006001600160e01b03198216636cdb3d1360e11b1480610b3e57506001600160e01b031982166303a24d0760e21b145b80610b5957506301ffc9a760e01b6001600160e01b03198316145b92915050565b606060038054610b6e90613637565b80601f0160208091040260200160405190810160405280929190818152602001828054610b9a90613637565b8015610be75780601f10610bbc57610100808354040283529160200191610be7565b820191906000526020600020905b815481529060010190602001808311610bca57829003601f168201915b5050505050905090565b610bf9611e8a565b600d91909155600e55565b606060028054610c1390613637565b80601f0160208091040260200160405190810160405280929190818152602001828054610c3f90613637565b8015610c8c5780601f10610c6157610100808354040283529160200191610c8c565b820191906000526020600020905b815481529060010190602001808311610c6f57829003601f168201915b50505050509050919050565b610ca0611e8a565b601080546001600160a01b03909216650100000000000265010000000000600160c81b0319909216919091179055565b6000600c54600b54610ce291906135d5565b905090565b610cef611e8a565b600594909455600692909255600755600855600f55565b610d0e611e8a565b60009182526019602052604090912055565b610d28611e8a565b6010805492151563010000000263ff0000001994151562010000029490941663ffff0000199515156101000261ff00199715159790971661ffff199094169390931795909517939093161717909155600a55565b60105460ff610100909104161515600114610dd25760405162461bcd60e51b815260206004820152601660248201527521b630b4b6903430b9903737ba1039ba30b93a32b21760511b6044820152606401610ade565b600a54421015610e185760405162461bcd60e51b81526020600482015260116024820152704e4f545f494e5f434c41494d5f54494d4560781b6044820152606401610ade565b600d54600f541115610e825760405162461bcd60e51b815260206004820152602d60248201527f45786365656420746865207370656369616c206964206f6620636c61696d206160448201526c3a103a3434b99039ba30b3b29760991b6064820152608401610ade565b610e8c828261168d565b610ed85760405162461bcd60e51b815260206004820152601760248201527f4e6f7420656c696769626c6520666f7220636c61696d2e0000000000000000006044820152606401610ade565b600060015b6015811015610f1557610ef03382610a76565b15610f0357610f008260016135d5565b91505b80610f0d8161369f565b915050610edd565b50600754811015610f685760405162461bcd60e51b815260206004820152601760248201527f4e6f7420656e6f756768206e6f726d616c20636172642e0000000000000000006044820152606401610ade565b600954341015610f8a5760405162461bcd60e51b8152600401610ade906134d7565b600654600c54610f9b906001611ee2565b1115610fe95760405162461bcd60e51b815260206004820152601a60248201527f45786365656473204d41585f5350454349414c5f544f4b454e2e0000000000006044820152606401610ade565b600f54600090815260196020908152604080832054601a90925290912054611012906001611ee2565b11156110605760405162461bcd60e51b815260206004820152601a60248201527f45786365656473206964207175616e74697479206c696d69742e0000000000006044820152606401610ade565b336000908152601c6020526040902054839061107d906001611ee2565b11156110cb5760405162461bcd60e51b815260206004820152601760248201527f4578636565647320636c61696d207175616e746974792e0000000000000000006044820152606401610ade565b600f546000908152601a60205260409020546110e8906001611ee2565b600f546000908152601a6020908152604080832093909355338252601c90522054611114906001611ee2565b336000818152601c6020908152604080832094909455600f5484519182019094529081526111459290600190611ef5565b600c54611153906001611ee2565b600c55600f547fb32c32014221c522f5b713daa9a1df4bd21450f8b5c763ba3ca01f088f95c8649033906001611187610cd0565b6040516111979493929190613415565b60405180910390a1600f546111ad9060016135d5565b600f55505050565b6001600160a01b0385163314806111d157506111d18533610990565b6112385760405162461bcd60e51b815260206004820152603260248201527f455243313135353a207472616e736665722063616c6c6572206973206e6f74206044820152711bdddb995c881b9bdc88185c1c1c9bdd995960721b6064820152608401610ade565b6112458585858585611fff565b5050505050565b611254611e8a565b6000811180156112875750600082815260196020908152604080832054601a909252909120546112849083611ee2565b11155b6112d35760405162461bcd60e51b815260206004820152601a60248201527f45786365656473206964207175616e74697479206c696d69742e0000000000006044820152606401610ade565b6112ee83838360405180602001604052806000815250611ef5565b601482111561130c57600c546113049082611ee2565b600c5561131d565b600b546113199082611ee2565b600b555b6000828152601a60205260409020546113369082611ee2565b6000838152601a60205260409020557fb32c32014221c522f5b713daa9a1df4bd21450f8b5c763ba3ca01f088f95c864838383611371610cd0565b6040516113819493929190613415565b60405180910390a1505050565b60105460009062010000900460ff1615156001146113e35760405162461bcd60e51b815260206004820152601260248201527141554354494f4e5f4e4f545f41435449564560701b6044820152606401610ade565b6013544210156113f4575060155490565b6000601454601354426114079190613620565b61141191906135ed565b905060185481111561142257506018545b60175461142f9082613601565b6015541115611458576017546114459082613601565b6015546114529190613620565b91505090565b505060165490565b505b90565b606081518351146114ca5760405162461bcd60e51b815260206004820152602960248201527f455243313135353a206163636f756e747320616e6420696473206c656e677468604482015268040dad2e6dac2e8c6d60bb1b6064820152608401610ade565b6000835167ffffffffffffffff8111156114f457634e487b7160e01b600052604160045260246000fd5b60405190808252806020026020018201604052801561151d578160200160208202803683370190505b50905060005b84518110156115bf5761158485828151811061154f57634e487b7160e01b600052603260045260246000fd5b602002602001015185838151811061157757634e487b7160e01b600052603260045260246000fd5b6020026020010151610a76565b8282815181106115a457634e487b7160e01b600052603260045260246000fd5b60209081029190910101526115b88161369f565b9050611523565b509392505050565b6115cf611e8a565b6115d8816121f8565b50565b6115e3611e8a565b6001600160a01b0381166116305760405162461bcd60e51b815260206004820152601460248201527353455454494e475f5a45524f5f4144445245535360601b6044820152606401610ade565b601280546001600160a01b0319166001600160a01b0392909216919091179055565b61165a611e8a565b6011546040516001600160a01b03909116904780156108fc02916000818181858888f1935050505061168b57600080fd5b565b6000806116fe6116f87f182854de6a51f3818344a7eb784b9d55c1e6d2d20c9f9aea309f5daaaaddfec1336040805160208101939093526001600160a01b0390911690820152606081018790526080016040516020818303038152906040528051906020012061220f565b8461225d565b6012546001600160a01b03918216911614949350505050565b606060048054610b6e90613637565b336001600160a01b03831614156117915760405162461bcd60e51b815260206004820152602960248201527f455243313135353a2073657474696e6720617070726f76616c20737461747573604482015268103337b91039b2b63360b91b6064820152608401610ade565b3360008181526001602090815260408083206001600160a01b03871680855290835292819020805460ff191686151590811790915590519081529192917f17307eab39ab6107e8899845ad3d59bd9653f200f220920489ca2b5937696c31910160405180910390a35050565b611805611e8a565b601080549115156401000000000264ff0000000019909216919091179055565b60105460ff16151560011461186e5760405162461bcd60e51b815260206004820152600f60248201526e53414c455f4e4f545f41435449564560881b6044820152606401610ade565b600a544210156118b35760405162461bcd60e51b815260206004820152601060248201526f4e4f545f494e5f53414c455f54494d4560801b6044820152606401610ade565b3233146118f75760405162461bcd60e51b815260206004820152601260248201527110d05313115497d254d7d0d3d395149050d560721b6044820152606401610ade565b6010546301000000900460ff1615156001141561196a57611918828261168d565b6119645760405162461bcd60e51b815260206004820152601b60248201527f4e6f7420656c696769626c6520666f722077686974656c6973742e00000000006044820152606401610ade565b60088290555b60105462010000900460ff16151560011415611a4c576119928361198c61138e565b90612279565b3410156119e15760405162461bcd60e51b815260206004820152601f60248201527f45746865722076616c75652073656e74206973206e6f7420656e6f7567682e006044820152606401610ade565b6000831180156119ff5750600e54600b546119fc9085611ee2565b11155b611a475760405162461bcd60e51b815260206004820152601960248201527822bc31b2b2b2399026a0ac2fa727a926a0a62faa27a5a2a71760391b6044820152606401610ade565b611a78565b600954611a599084612279565b341015611a785760405162461bcd60e51b8152600401610ade906134d7565b600083118015611a965750600554600b54611a939085611ee2565b11155b611ade5760405162461bcd60e51b815260206004820152601960248201527822bc31b2b2b2399026a0ac2fa727a926a0a62faa27a5a2a71760391b6044820152606401610ade565b600854336000908152601b6020526040902054611afb9085611ee2565b1115611b3d5760405162461bcd60e51b815260206004820152601160248201527022bc31b2b2b2399038bab0b73a34ba3c9760791b6044820152606401610ade565b60008060005b85811015611c9d576040516bffffffffffffffffffffffff193360601b166020820152603481018290524260548201526000906074016040516020818303038152906040529050611b9381612285565b9350611ba08460016135d5565b92505b600083815260196020908152604080832054601a90925290912054611bc9906001611ee2565b1115611bef57611bda8360016135d5565b92506014831115611bea57600192505b611ba3565b611c0b3384600160405180602001604052806000815250611ef5565b6000838152601a6020526040902054611c25906001611ee2565b6000848152601a6020526040902055600b54611c42906001611ee2565b600b557fb32c32014221c522f5b713daa9a1df4bd21450f8b5c763ba3ca01f088f95c86433846001611c72610cd0565b604051611c829493929190613415565b60405180910390a15080611c958161369f565b915050611b43565b50336000908152601b6020526040902054611cb89086611ee2565b336000908152601b60205260409020555050505050565b611cd7611e8a565b601395909555601493909355601591909155601655601755601855565b611cfc611e8a565b600955565b611d09611e8a565b601180546001600160a01b0319166001600160a01b0392909216919091179055565b6001600160a01b038516331480611d475750611d478533610990565b611da55760405162461bcd60e51b815260206004820152602960248201527f455243313135353a2063616c6c6572206973206e6f74206f776e6572206e6f7260448201526808185c1c1c9bdd995960ba1b6064820152608401610ade565b61124585858585856122be565b601054640100000000900460ff161515600114611e085760405162461bcd60e51b8152602060048201526014602482015273213ab937103430b9b713ba1039ba30b93a32b21760611b6044820152606401610ade565b6001600160a01b038316321480611e245750611e248333610990565b611e7a5760405162461bcd60e51b815260206004820152602160248201527f43616c6c6572206973206e6f74206f776e6572206e6f7220617070726f7665646044820152601760f91b6064820152608401610ade565b611e858383836123db565b505050565b6010546501000000000090046001600160a01b0316331461168b5760405162461bcd60e51b81526020600482015260126024820152712cb7ba9030b932903737ba1037bbb732b91760711b6044820152606401610ade565b6000611eee82846135d5565b9392505050565b6001600160a01b038416611f555760405162461bcd60e51b815260206004820152602160248201527f455243313135353a206d696e7420746f20746865207a65726f206164647265736044820152607360f81b6064820152608401610ade565b33611f6f81600087611f6688612555565b61124588612555565b6000848152602081815260408083206001600160a01b038916845290915281208054859290611f9f9084906135d5565b909155505060408051858152602081018590526001600160a01b0380881692600092918516917fc3d58168c5ae7397731d063d5bbf3d657854427343f4c083240f7aacaa2d0f62910160405180910390a4611245816000878787876125ae565b81518351146120615760405162461bcd60e51b815260206004820152602860248201527f455243313135353a2069647320616e6420616d6f756e7473206c656e677468206044820152670dad2e6dac2e8c6d60c31b6064820152608401610ade565b6001600160a01b0384166120875760405162461bcd60e51b8152600401610ade90613522565b3360005b845181101561218a5760008582815181106120b657634e487b7160e01b600052603260045260246000fd5b6020026020010151905060008583815181106120e257634e487b7160e01b600052603260045260246000fd5b602090810291909101810151600084815280835260408082206001600160a01b038e1683529093529190912054909150818110156121325760405162461bcd60e51b8152600401610ade90613567565b6000838152602081815260408083206001600160a01b038e8116855292528083208585039055908b1682528120805484929061216f9084906135d5565b92505081905550505050806121839061369f565b905061208b565b50846001600160a01b0316866001600160a01b0316826001600160a01b03167f4a39dc06d4c0dbc64b70af90fd698a233a518aa5d07e595d983b8c0526c8f7fb87876040516121da92919061344e565b60405180910390a46121f0818787878787612719565b505050505050565b805161220b906002906020840190612c63565b5050565b6000610b5961221c6127e3565b8360405161190160f01b6020820152602281018390526042810182905260009060620160405160208183030381529060405280519060200120905092915050565b600080600061226c85856128d6565b915091506115bf81612946565b6000611eee8284613601565b60008082604051602001612299919061347c565b60408051601f1981840301815291905280516020909101209050611eee6014826136ba565b6001600160a01b0384166122e45760405162461bcd60e51b8152600401610ade90613522565b336122f4818787611f6688612555565b6000848152602081815260408083206001600160a01b038a168452909152902054838110156123355760405162461bcd60e51b8152600401610ade90613567565b6000858152602081815260408083206001600160a01b038b81168552925280832087850390559088168252812080548692906123729084906135d5565b909155505060408051868152602081018690526001600160a01b03808916928a821692918616917fc3d58168c5ae7397731d063d5bbf3d657854427343f4c083240f7aacaa2d0f62910160405180910390a46123d28288888888886125ae565b50505050505050565b6001600160a01b03831661243d5760405162461bcd60e51b815260206004820152602360248201527f455243313135353a206275726e2066726f6d20746865207a65726f206164647260448201526265737360e81b6064820152608401610ade565b3361246d8185600061244e87612555565b61245787612555565b5050604080516020810190915260009052505050565b6000838152602081815260408083206001600160a01b0388168452909152902054828110156124ea5760405162461bcd60e51b8152602060048201526024808201527f455243313135353a206275726e20616d6f756e7420657863656564732062616c604482015263616e636560e01b6064820152608401610ade565b6000848152602081815260408083206001600160a01b03898116808652918452828520888703905582518981529384018890529092908616917fc3d58168c5ae7397731d063d5bbf3d657854427343f4c083240f7aacaa2d0f62910160405180910390a45050505050565b6040805160018082528183019092526060916000919060208083019080368337019050509050828160008151811061259d57634e487b7160e01b600052603260045260246000fd5b602090810291909101015292915050565b6001600160a01b0384163b156121f05760405163f23a6e6160e01b81526001600160a01b0385169063f23a6e61906125f290899089908890889088906004016133d0565b602060405180830381600087803b15801561260c57600080fd5b505af192505050801561263c575060408051601f3d908101601f1916820190925261263991810190613145565b60015b6126e957612648613710565b806308c379a01415612682575061265d613727565b806126685750612684565b8060405162461bcd60e51b8152600401610ade919061347c565b505b60405162461bcd60e51b815260206004820152603460248201527f455243313135353a207472616e7366657220746f206e6f6e20455243313135356044820152732932b1b2b4bb32b91034b6b83632b6b2b73a32b960611b6064820152608401610ade565b6001600160e01b0319811663f23a6e6160e01b146123d25760405162461bcd60e51b8152600401610ade9061348f565b6001600160a01b0384163b156121f05760405163bc197c8160e01b81526001600160a01b0385169063bc197c819061275d9089908990889088908890600401613372565b602060405180830381600087803b15801561277757600080fd5b505af19250505080156127a7575060408051601f3d908101601f191682019092526127a491810190613145565b60015b6127b357612648613710565b6001600160e01b0319811663bc197c8160e01b146123d25760405162461bcd60e51b8152600401610ade9061348f565b60007f000000000000000000000000000000000000000000000000000000000000000046141561283257507f000000000000000000000000000000000000000000000000000000000000000090565b50604080517f00000000000000000000000000000000000000000000000000000000000000006020808301919091527f0000000000000000000000000000000000000000000000000000000000000000828401527f000000000000000000000000000000000000000000000000000000000000000060608301524660808301523060a0808401919091528351808403909101815260c0909201909252805191012090565b60008082516041141561290d5760208301516040840151606085015160001a61290187828585612b47565b9450945050505061293f565b825160401415612937576020830151604084015161292c868383612c34565b93509350505061293f565b506000905060025b9250929050565b600081600481111561296857634e487b7160e01b600052602160045260246000fd5b14156129715750565b600181600481111561299357634e487b7160e01b600052602160045260246000fd5b14156129e15760405162461bcd60e51b815260206004820152601860248201527f45434453413a20696e76616c6964207369676e617475726500000000000000006044820152606401610ade565b6002816004811115612a0357634e487b7160e01b600052602160045260246000fd5b1415612a515760405162461bcd60e51b815260206004820152601f60248201527f45434453413a20696e76616c6964207369676e6174757265206c656e677468006044820152606401610ade565b6003816004811115612a7357634e487b7160e01b600052602160045260246000fd5b1415612acc5760405162461bcd60e51b815260206004820152602260248201527f45434453413a20696e76616c6964207369676e6174757265202773272076616c604482015261756560f01b6064820152608401610ade565b6004816004811115612aee57634e487b7160e01b600052602160045260246000fd5b14156115d85760405162461bcd60e51b815260206004820152602260248201527f45434453413a20696e76616c6964207369676e6174757265202776272076616c604482015261756560f01b6064820152608401610ade565b6000807f7fffffffffffffffffffffffffffffff5d576e7357a4501ddfe92f46681b20a0831115612b7e5750600090506003612c2b565b8460ff16601b14158015612b9657508460ff16601c14155b15612ba75750600090506004612c2b565b6040805160008082526020820180845289905260ff881692820192909252606081018690526080810185905260019060a0016020604051602081039080840390855afa158015612bfb573d6000803e3d6000fd5b5050604051601f1901519150506001600160a01b038116612c2457600060019250925050612c2b565b9150600090505b94509492505050565b6000806001600160ff1b03831660ff84901c601b01612c5587828885612b47565b935093505050935093915050565b828054612c6f90613637565b90600052602060002090601f016020900481019282612c915760008555612cd7565b82601f10612caa57805160ff1916838001178555612cd7565b82800160010185558215612cd7579182015b82811115612cd7578251825591602001919060010190612cbc565b506114609291505b808211156114605760008155600101612cdf565b600067ffffffffffffffff831115612d0d57612d0d6136fa565b604051612d24601f8501601f191660200182613672565b809150838152848484011115612d3957600080fd5b83836020830137600060208583010152509392505050565b80356001600160a01b0381168114612d6857600080fd5b919050565b600082601f830112612d7d578081fd5b81356020612d8a826135b1565b604051612d978282613672565b8381528281019150858301600585901b87018401881015612db6578586fd5b855b85811015612dd457813584529284019290840190600101612db8565b5090979650505050505050565b80358015158114612d6857600080fd5b600082601f830112612e01578081fd5b611eee83833560208501612cf3565b600060208284031215612e21578081fd5b611eee82612d51565b60008060408385031215612e3c578081fd5b612e4583612d51565b9150612e5360208401612d51565b90509250929050565b600080600080600060a08688031215612e73578081fd5b612e7c86612d51565b9450612e8a60208701612d51565b9350604086013567ffffffffffffffff80821115612ea6578283fd5b612eb289838a01612d6d565b94506060880135915080821115612ec7578283fd5b612ed389838a01612d6d565b93506080880135915080821115612ee8578283fd5b50612ef588828901612df1565b9150509295509295909350565b600080600080600060a08688031215612f19578081fd5b612f2286612d51565b9450612f3060208701612d51565b93506040860135925060608601359150608086013567ffffffffffffffff811115612f59578182fd5b612ef588828901612df1565b60008060408385031215612f77578182fd5b612f8083612d51565b9150612e5360208401612de1565b60008060408385031215612fa0578182fd5b612fa983612d51565b946020939093013593505050565b600080600060608486031215612fcb578283fd5b612fd484612d51565b95602085013595506040909401359392505050565b60008060408385031215612ffb578182fd5b823567ffffffffffffffff80821115613012578384fd5b818501915085601f830112613025578384fd5b81356020613032826135b1565b60405161303f8282613672565b8381528281019150858301600585901b870184018b101561305e578889fd5b8896505b848710156130875761307381612d51565b835260019690960195918301918301613062565b509650508601359250508082111561309d578283fd5b506130aa85828601612d6d565b9150509250929050565b6000602082840312156130c5578081fd5b611eee82612de1565b600080600080600060a086880312156130e5578283fd5b6130ee86612de1565b94506130fc60208701612de1565b935061310a60408701612de1565b925061311860608701612de1565b949793965091946080013592915050565b60006020828403121561313a578081fd5b8135611eee816137b1565b600060208284031215613156578081fd5b8151611eee816137b1565b600060208284031215613172578081fd5b813567ffffffffffffffff811115613188578182fd5b8201601f81018413613198578182fd5b6131a784823560208401612cf3565b949350505050565b6000602082840312156131c0578081fd5b5035919050565b600080604083850312156131d9578182fd5b82359150602083013567ffffffffffffffff8111156131f6578182fd5b6130aa85828601612df1565b60008060408385031215613214578182fd5b50508035926020909101359150565b600080600060608486031215613237578081fd5b8335925060208401359150604084013567ffffffffffffffff81111561325b578182fd5b61326786828701612df1565b9150509250925092565b600080600080600060a08688031215613288578283fd5b505083359560208501359550604085013594606081013594506080013592509050565b60008060008060008060c087890312156132c3578384fd5b505084359660208601359650604086013595606081013595506080810135945060a0013592509050565b6000815180845260208085019450808401835b8381101561331c57815187529582019590820190600101613300565b509495945050505050565b60008151808452815b8181101561334c57602081850181015186830182015201613330565b8181111561335d5782602083870101525b50601f01601f19169290920160200192915050565b6001600160a01b0386811682528516602082015260a06040820181905260009061339e908301866132ed565b82810360608401526133b081866132ed565b905082810360808401526133c48185613327565b98975050505050505050565b6001600160a01b03868116825285166020820152604081018490526060810183905260a06080820181905260009061340a90830184613327565b979650505050505050565b6001600160a01b0394909416845260208401929092526040830152606082015260800190565b602081526000611eee60208301846132ed565b60408152600061346160408301856132ed565b828103602084015261347381856132ed565b95945050505050565b602081526000611eee6020830184613327565b60208082526028908201527f455243313135353a204552433131353552656365697665722072656a656374656040820152676420746f6b656e7360c01b606082015260800190565b6020808252602b908201527f45746865722076616c75652073656e74206973206e6f7420657175616c20746f60408201526a103a343290383934b1b29760a91b606082015260800190565b60208082526025908201527f455243313135353a207472616e7366657220746f20746865207a65726f206164604082015264647265737360d81b606082015260800190565b6020808252602a908201527f455243313135353a20696e73756666696369656e742062616c616e636520666f60408201526939103a3930b739b332b960b11b606082015260800190565b600067ffffffffffffffff8211156135cb576135cb6136fa565b5060051b60200190565b600082198211156135e8576135e86136ce565b500190565b6000826135fc576135fc6136e4565b500490565b600081600019048311821515161561361b5761361b6136ce565b500290565b600082821015613632576136326136ce565b500390565b600181811c9082168061364b57607f821691505b6020821081141561366c57634e487b7160e01b600052602260045260246000fd5b50919050565b601f8201601f1916810167ffffffffffffffff81118282101715613698576136986136fa565b6040525050565b60006000198214156136b3576136b36136ce565b5060010190565b6000826136c9576136c96136e4565b500690565b634e487b7160e01b600052601160045260246000fd5b634e487b7160e01b600052601260045260246000fd5b634e487b7160e01b600052604160045260246000fd5b600060033d111561146257600481823e5160e01c90565b600060443d10156137355790565b6040516003193d81016004833e81513d67ffffffffffffffff816024840111818411171561376557505050505090565b828501915081518181111561377d5750505050505090565b843d87010160208285010111156137975750505050505090565b6137a660208286010187613672565b509095945050505050565b6001600160e01b0319811681146115d857600080fdfea2646970667358221220e11002d8fc6534961d352dcb1f60dc2ac91735ee03bcc7b6beb68aab671bb9f864736f6c63430008040033687474703a2f2f6170692e756e6e616d65746f6b656e2e636f6d2f4d657461646174612f7b69647d",
  "devdoc": {
    "kind": "dev",
    "methods": {
      "balanceOf(address,uint256)": {
        "details": "See {IERC1155-balanceOf}. Requirements: - `account` cannot be the zero address."
      },
      "balanceOfBatch(address[],uint256[])": {
        "details": "See {IERC1155-balanceOfBatch}. Requirements: - `accounts` and `ids` must have the same length."
      },
      "isApprovedForAll(address,address)": {
        "details": "See {IERC1155-isApprovedForAll}."
      },
      "safeBatchTransferFrom(address,address,uint256[],uint256[],bytes)": {
        "details": "See {IERC1155-safeBatchTransferFrom}."
      },
      "safeTransferFrom(address,address,uint256,uint256,bytes)": {
        "details": "See {IERC1155-safeTransferFrom}."
      },
      "setApprovalForAll(address,bool)": {
        "details": "See {IERC1155-setApprovalForAll}."
      },
      "supportsInterface(bytes4)": {
        "details": "See {IERC165-supportsInterface}."
      },
      "uri(uint256)": {
        "details": "See {IERC1155MetadataURI-uri}. This implementation returns the same URI for *all* token types. It relies on the token type ID substitution mechanism https://eips.ethereum.org/EIPS/eip-1155#metadata[defined in the EIP]. Clients calling this function must replace the `\\{id\\}` substring with the actual token type ID."
      }
    },
    "version": 1
  },
  "userdoc": {
    "kind": "user",
    "methods": {},
    "version": 1
  },
  "storageLayout": {
    "storage": [
      {
        "astId": 25,
        "contract": "contracts/Unname.sol:Unname",
        "label": "_balances",
        "offset": 0,
        "slot": "0",
        "type": "t_mapping(t_uint256,t_mapping(t_address,t_uint256))"
      },
      {
        "astId": 31,
        "contract": "contracts/Unname.sol:Unname",
        "label": "_operatorApprovals",
        "offset": 0,
        "slot": "1",
        "type": "t_mapping(t_address,t_mapping(t_address,t_bool))"
      },
      {
        "astId": 33,
        "contract": "contracts/Unname.sol:Unname",
        "label": "_uri",
        "offset": 0,
        "slot": "2",
        "type": "t_string_storage"
      },
      {
        "astId": 2653,
        "contract": "contracts/Unname.sol:Unname",
        "label": "_name",
        "offset": 0,
        "slot": "3",
        "type": "t_string_storage"
      },
      {
        "astId": 2656,
        "contract": "contracts/Unname.sol:Unname",
        "label": "_symbol",
        "offset": 0,
        "slot": "4",
        "type": "t_string_storage"
      },
      {
        "astId": 2659,
        "contract": "contracts/Unname.sol:Unname",
        "label": "MAX_NORMAL_TOKEN",
        "offset": 0,
        "slot": "5",
        "type": "t_uint256"
      },
      {
        "astId": 2662,
        "contract": "contracts/Unname.sol:Unname",
        "label": "MAX_SPECIAL_TOKEN",
        "offset": 0,
        "slot": "6",
        "type": "t_uint256"
      },
      {
        "astId": 2665,
        "contract": "contracts/Unname.sol:Unname",
        "label": "SPECIAL_CARD_CONDITION",
        "offset": 0,
        "slot": "7",
        "type": "t_uint256"
      },
      {
        "astId": 2668,
        "contract": "contracts/Unname.sol:Unname",
        "label": "MAX_ADDRESS_TOKEN",
        "offset": 0,
        "slot": "8",
        "type": "t_uint256"
      },
      {
        "astId": 2671,
        "contract": "contracts/Unname.sol:Unname",
        "label": "PRICE",
        "offset": 0,
        "slot": "9",
        "type": "t_uint256"
      },
      {
        "astId": 2674,
        "contract": "contracts/Unname.sol:Unname",
        "label": "saleTimestamp",
        "offset": 0,
        "slot": "10",
        "type": "t_uint256"
      },
      {
        "astId": 2677,
        "contract": "contracts/Unname.sol:Unname",
        "label": "normalSupply",
        "offset": 0,
        "slot": "11",
        "type": "t_uint256"
      },
      {
        "astId": 2680,
        "contract": "contracts/Unname.sol:Unname",
        "label": "specialSupply",
        "offset": 0,
        "slot": "12",
        "type": "t_uint256"
      },
      {
        "astId": 2683,
        "contract": "contracts/Unname.sol:Unname",
        "label": "claimStageLimit",
        "offset": 0,
        "slot": "13",
        "type": "t_uint256"
      },
      {
        "astId": 2686,
        "contract": "contracts/Unname.sol:Unname",
        "label": "auctionStageLimit",
        "offset": 0,
        "slot": "14",
        "type": "t_uint256"
      },
      {
        "astId": 2689,
        "contract": "contracts/Unname.sol:Unname",
        "label": "specialCardId",
        "offset": 0,
        "slot": "15",
        "type": "t_uint256"
      },
      {
        "astId": 2692,
        "contract": "contracts/Unname.sol:Unname",
        "label": "hasSaleStarted",
        "offset": 0,
        "slot": "16",
        "type": "t_bool"
      },
      {
        "astId": 2695,
        "contract": "contracts/Unname.sol:Unname",
        "label": "hasClaimStarted",
        "offset": 1,
        "slot": "16",
        "type": "t_bool"
      },
      {
        "astId": 2698,
        "contract": "contracts/Unname.sol:Unname",
        "label": "hasAuctionStarted",
        "offset": 2,
        "slot": "16",
        "type": "t_bool"
      },
      {
        "astId": 2701,
        "contract": "contracts/Unname.sol:Unname",
        "label": "whitelistSwitch",
        "offset": 3,
        "slot": "16",
        "type": "t_bool"
      },
      {
        "astId": 2704,
        "contract": "contracts/Unname.sol:Unname",
        "label": "burnStarted",
        "offset": 4,
        "slot": "16",
        "type": "t_bool"
      },
      {
        "astId": 2707,
        "contract": "contracts/Unname.sol:Unname",
        "label": "owner",
        "offset": 5,
        "slot": "16",
        "type": "t_address"
      },
      {
        "astId": 2710,
        "contract": "contracts/Unname.sol:Unname",
        "label": "treasury",
        "offset": 0,
        "slot": "17",
        "type": "t_address"
      },
      {
        "astId": 2713,
        "contract": "contracts/Unname.sol:Unname",
        "label": "signer",
        "offset": 0,
        "slot": "18",
        "type": "t_address"
      },
      {
        "astId": 2715,
        "contract": "contracts/Unname.sol:Unname",
        "label": "auctionStartTimestamp",
        "offset": 0,
        "slot": "19",
        "type": "t_uint256"
      },
      {
        "astId": 2717,
        "contract": "contracts/Unname.sol:Unname",
        "label": "auctionTimeStep",
        "offset": 0,
        "slot": "20",
        "type": "t_uint256"
      },
      {
        "astId": 2719,
        "contract": "contracts/Unname.sol:Unname",
        "label": "auctionStartPrice",
        "offset": 0,
        "slot": "21",
        "type": "t_uint256"
      },
      {
        "astId": 2721,
        "contract": "contracts/Unname.sol:Unname",
        "label": "auctionEndPrice",
        "offset": 0,
        "slot": "22",
        "type": "t_uint256"
      },
      {
        "astId": 2723,
        "contract": "contracts/Unname.sol:Unname",
        "label": "auctionPriceStep",
        "offset": 0,
        "slot": "23",
        "type": "t_uint256"
      },
      {
        "astId": 2725,
        "contract": "contracts/Unname.sol:Unname",
        "label": "auctionStepNumber",
        "offset": 0,
        "slot": "24",
        "type": "t_uint256"
      },
      {
        "astId": 2729,
        "contract": "contracts/Unname.sol:Unname",
        "label": "quantityLimit",
        "offset": 0,
        "slot": "25",
        "type": "t_mapping(t_uint256,t_uint256)"
      },
      {
        "astId": 2733,
        "contract": "contracts/Unname.sol:Unname",
        "label": "idHasMinted",
        "offset": 0,
        "slot": "26",
        "type": "t_mapping(t_uint256,t_uint256)"
      },
      {
        "astId": 2737,
        "contract": "contracts/Unname.sol:Unname",
        "label": "addressHasMinted",
        "offset": 0,
        "slot": "27",
        "type": "t_mapping(t_address,t_uint256)"
      },
      {
        "astId": 2741,
        "contract": "contracts/Unname.sol:Unname",
        "label": "addressHasClaimed",
        "offset": 0,
        "slot": "28",
        "type": "t_mapping(t_address,t_uint256)"
      }
    ],
    "types": {
      "t_address": {
        "encoding": "inplace",
        "label": "address",
        "numberOfBytes": "20"
      },
      "t_bool": {
        "encoding": "inplace",
        "label": "bool",
        "numberOfBytes": "1"
      },
      "t_mapping(t_address,t_bool)": {
        "encoding": "mapping",
        "key": "t_address",
        "label": "mapping(address => bool)",
        "numberOfBytes": "32",
        "value": "t_bool"
      },
      "t_mapping(t_address,t_mapping(t_address,t_bool))": {
        "encoding": "mapping",
        "key": "t_address",
        "label": "mapping(address => mapping(address => bool))",
        "numberOfBytes": "32",
        "value": "t_mapping(t_address,t_bool)"
      },
      "t_mapping(t_address,t_uint256)": {
        "encoding": "mapping",
        "key": "t_address",
        "label": "mapping(address => uint256)",
        "numberOfBytes": "32",
        "value": "t_uint256"
      },
      "t_mapping(t_uint256,t_mapping(t_address,t_uint256))": {
        "encoding": "mapping",
        "key": "t_uint256",
        "label": "mapping(uint256 => mapping(address => uint256))",
        "numberOfBytes": "32",
        "value": "t_mapping(t_address,t_uint256)"
      },
      "t_mapping(t_uint256,t_uint256)": {
        "encoding": "mapping",
        "key": "t_uint256",
        "label": "mapping(uint256 => uint256)",
        "numberOfBytes": "32",
        "value": "t_uint256"
      },
      "t_string_storage": {
        "encoding": "bytes",
        "label": "string",
        "numberOfBytes": "32"
      },
      "t_uint256": {
        "encoding": "inplace",
        "label": "uint256",
        "numberOfBytes": "32"
      }
    }
  }
}