{
  "address": "0x94F8d44764d9b80D9c9cB21AE88e610068A5cc98",
  "abi": [
    {
      "inputs": [],
      "stateMutability": "nonpayable",
      "type": "constructor"
    },
    {
      "anonymous": false,
      "inputs": [
        {
          "indexed": true,
          "internalType": "address",
          "name": "account",
          "type": "address"
        },
        {
          "indexed": true,
          "internalType": "address",
          "name": "operator",
          "type": "address"
        },
        {
          "indexed": false,
          "internalType": "bool",
          "name": "approved",
          "type": "bool"
        }
      ],
      "name": "ApprovalForAll",
      "type": "event"
    },
    {
      "anonymous": false,
      "inputs": [
        {
          "indexed": true,
          "internalType": "address",
          "name": "operator",
          "type": "address"
        },
        {
          "indexed": true,
          "internalType": "address",
          "name": "from",
          "type": "address"
        },
        {
          "indexed": true,
          "internalType": "address",
          "name": "to",
          "type": "address"
        },
        {
          "indexed": false,
          "internalType": "uint256[]",
          "name": "ids",
          "type": "uint256[]"
        },
        {
          "indexed": false,
          "internalType": "uint256[]",
          "name": "values",
          "type": "uint256[]"
        }
      ],
      "name": "TransferBatch",
      "type": "event"
    },
    {
      "anonymous": false,
      "inputs": [
        {
          "indexed": true,
          "internalType": "address",
          "name": "operator",
          "type": "address"
        },
        {
          "indexed": true,
          "internalType": "address",
          "name": "from",
          "type": "address"
        },
        {
          "indexed": true,
          "internalType": "address",
          "name": "to",
          "type": "address"
        },
        {
          "indexed": false,
          "internalType": "uint256",
          "name": "id",
          "type": "uint256"
        },
        {
          "indexed": false,
          "internalType": "uint256",
          "name": "value",
          "type": "uint256"
        }
      ],
      "name": "TransferSingle",
      "type": "event"
    },
    {
      "anonymous": false,
      "inputs": [
        {
          "indexed": false,
          "internalType": "string",
          "name": "value",
          "type": "string"
        },
        {
          "indexed": true,
          "internalType": "uint256",
          "name": "id",
          "type": "uint256"
        }
      ],
      "name": "URI",
      "type": "event"
    },
    {
      "anonymous": false,
      "inputs": [
        {
          "indexed": false,
          "internalType": "address",
          "name": "owner",
          "type": "address"
        },
        {
          "indexed": false,
          "internalType": "uint256",
          "name": "id",
          "type": "uint256"
        },
        {
          "indexed": false,
          "internalType": "uint256",
          "name": "quantity",
          "type": "uint256"
        },
        {
          "indexed": false,
          "internalType": "uint256",
          "name": "totalSupply",
          "type": "uint256"
        }
      ],
      "name": "mintEvent",
      "type": "event"
    },
    {
      "inputs": [],
      "name": "MAX_ADDRESS_TOKEN",
      "outputs": [
        {
          "internalType": "uint256",
          "name": "",
          "type": "uint256"
        }
      ],
      "stateMutability": "view",
      "type": "function"
    },
    {
      "inputs": [],
      "name": "MAX_NORMAL_TOKEN",
      "outputs": [
        {
          "internalType": "uint256",
          "name": "",
          "type": "uint256"
        }
      ],
      "stateMutability": "view",
      "type": "function"
    },
    {
      "inputs": [],
      "name": "MAX_SPECIAL_TOKEN",
      "outputs": [
        {
          "internalType": "uint256",
          "name": "",
          "type": "uint256"
        }
      ],
      "stateMutability": "view",
      "type": "function"
    },
    {
      "inputs": [],
      "name": "PRICE",
      "outputs": [
        {
          "internalType": "uint256",
          "name": "",
          "type": "uint256"
        }
      ],
      "stateMutability": "view",
      "type": "function"
    },
    {
      "inputs": [],
      "name": "SPECIAL_CARD_CONDITION",
      "outputs": [
        {
          "internalType": "uint256",
          "name": "",
          "type": "uint256"
        }
      ],
      "stateMutability": "view",
      "type": "function"
    },
    {
      "inputs": [
        {
          "internalType": "address",
          "name": "",
          "type": "address"
        }
      ],
      "name": "addressHasClaimed",
      "outputs": [
        {
          "internalType": "uint256",
          "name": "",
          "type": "uint256"
        }
      ],
      "stateMutability": "view",
      "type": "function"
    },
    {
      "inputs": [
        {
          "internalType": "address",
          "name": "",
          "type": "address"
        }
      ],
      "name": "addressHasMinted",
      "outputs": [
        {
          "internalType": "uint256",
          "name": "",
          "type": "uint256"
        }
      ],
      "stateMutability": "view",
      "type": "function"
    },
    {
      "inputs": [],
      "name": "auctionEndPrice",
      "outputs": [
        {
          "internalType": "uint256",
          "name": "",
          "type": "uint256"
        }
      ],
      "stateMutability": "view",
      "type": "function"
    },
    {
      "inputs": [],
      "name": "auctionPriceStep",
      "outputs": [
        {
          "internalType": "uint256",
          "name": "",
          "type": "uint256"
        }
      ],
      "stateMutability": "view",
      "type": "function"
    },
    {
      "inputs": [],
      "name": "auctionStageLimit",
      "outputs": [
        {
          "internalType": "uint256",
          "name": "",
          "type": "uint256"
        }
      ],
      "stateMutability": "view",
      "type": "function"
    },
    {
      "inputs": [],
      "name": "auctionStartPrice",
      "outputs": [
        {
          "internalType": "uint256",
          "name": "",
          "type": "uint256"
        }
      ],
      "stateMutability": "view",
      "type": "function"
    },
    {
      "inputs": [],
      "name": "auctionStartTimestamp",
      "outputs": [
        {
          "internalType": "uint256",
          "name": "",
          "type": "uint256"
        }
      ],
      "stateMutability": "view",
      "type": "function"
    },
    {
      "inputs": [],
      "name": "auctionStepNumber",
      "outputs": [
        {
          "internalType": "uint256",
          "name": "",
          "type": "uint256"
        }
      ],
      "stateMutability": "view",
      "type": "function"
    },
    {
      "inputs": [],
      "name": "auctionTimeStep",
      "outputs": [
        {
          "internalType": "uint256",
          "name": "",
          "type": "uint256"
        }
      ],
      "stateMutability": "view",
      "type": "function"
    },
    {
      "inputs": [
        {
          "internalType": "address",
          "name": "account",
          "type": "address"
        },
        {
          "internalType": "uint256",
          "name": "id",
          "type": "uint256"
        }
      ],
      "name": "balanceOf",
      "outputs": [
        {
          "internalType": "uint256",
          "name": "",
          "type": "uint256"
        }
      ],
      "stateMutability": "view",
      "type": "function"
    },
    {
      "inputs": [
        {
          "internalType": "address[]",
          "name": "accounts",
          "type": "address[]"
        },
        {
          "internalType": "uint256[]",
          "name": "ids",
          "type": "uint256[]"
        }
      ],
      "name": "balanceOfBatch",
      "outputs": [
        {
          "internalType": "uint256[]",
          "name": "",
          "type": "uint256[]"
        }
      ],
      "stateMutability": "view",
      "type": "function"
    },
    {
      "inputs": [
        {
          "internalType": "address",
          "name": "account",
          "type": "address"
        },
        {
          "internalType": "uint256",
          "name": "id",
          "type": "uint256"
        },
        {
          "internalType": "uint256",
          "name": "quantity",
          "type": "uint256"
        }
      ],
      "name": "burn",
      "outputs": [],
      "stateMutability": "nonpayable",
      "type": "function"
    },
    {
      "inputs": [],
      "name": "burnStarted",
      "outputs": [
        {
          "internalType": "bool",
          "name": "",
          "type": "bool"
        }
      ],
      "stateMutability": "view",
      "type": "function"
    },
    {
      "inputs": [
        {
          "internalType": "uint256",
          "name": "maxQuantity",
          "type": "uint256"
        },
        {
          "internalType": "bytes",
          "name": "SIGNATURE",
          "type": "bytes"
        }
      ],
      "name": "claimSpecial",
      "outputs": [],
      "stateMutability": "payable",
      "type": "function"
    },
    {
      "inputs": [],
      "name": "claimStageLimit",
      "outputs": [
        {
          "internalType": "uint256",
          "name": "",
          "type": "uint256"
        }
      ],
      "stateMutability": "view",
      "type": "function"
    },
    {
      "inputs": [],
      "name": "getDutchAuctionPrice",
      "outputs": [
        {
          "internalType": "uint256",
          "name": "",
          "type": "uint256"
        }
      ],
      "stateMutability": "view",
      "type": "function"
    },
    {
      "inputs": [
        {
          "internalType": "address",
          "name": "to",
          "type": "address"
        },
        {
          "internalType": "uint256",
          "name": "id",
          "type": "uint256"
        },
        {
          "internalType": "uint256",
          "name": "quantity",
          "type": "uint256"
        }
      ],
      "name": "giveawayNFT",
      "outputs": [],
      "stateMutability": "nonpayable",
      "type": "function"
    },
    {
      "inputs": [],
      "name": "hasAuctionStarted",
      "outputs": [
        {
          "internalType": "bool",
          "name": "",
          "type": "bool"
        }
      ],
      "stateMutability": "view",
      "type": "function"
    },
    {
      "inputs": [],
      "name": "hasClaimStarted",
      "outputs": [
        {
          "internalType": "bool",
          "name": "",
          "type": "bool"
        }
      ],
      "stateMutability": "view",
      "type": "function"
    },
    {
      "inputs": [],
      "name": "hasSaleStarted",
      "outputs": [
        {
          "internalType": "bool",
          "name": "",
          "type": "bool"
        }
      ],
      "stateMutability": "view",
      "type": "function"
    },
    {
      "inputs": [
        {
          "internalType": "uint256",
          "name": "",
          "type": "uint256"
        }
      ],
      "name": "idHasMinted",
      "outputs": [
        {
          "internalType": "uint256",
          "name": "",
          "type": "uint256"
        }
      ],
      "stateMutability": "view",
      "type": "function"
    },
    {
      "inputs": [
        {
          "internalType": "address",
          "name": "account",
          "type": "address"
        },
        {
          "internalType": "address",
          "name": "operator",
          "type": "address"
        }
      ],
      "name": "isApprovedForAll",
      "outputs": [
        {
          "internalType": "bool",
          "name": "",
          "type": "bool"
        }
      ],
      "stateMutability": "view",
      "type": "function"
    },
    {
      "inputs": [
        {
          "internalType": "uint256",
          "name": "quantity",
          "type": "uint256"
        },
        {
          "internalType": "uint256",
          "name": "maxQuantity",
          "type": "uint256"
        },
        {
          "internalType": "bytes",
          "name": "SIGNATURE",
          "type": "bytes"
        }
      ],
      "name": "mintNormal",
      "outputs": [],
      "stateMutability": "payable",
      "type": "function"
    },
    {
      "inputs": [],
      "name": "name",
      "outputs": [
        {
          "internalType": "string",
          "name": "",
          "type": "string"
        }
      ],
      "stateMutability": "view",
      "type": "function"
    },
    {
      "inputs": [],
      "name": "normalSupply",
      "outputs": [
        {
          "internalType": "uint256",
          "name": "",
          "type": "uint256"
        }
      ],
      "stateMutability": "view",
      "type": "function"
    },
    {
      "inputs": [],
      "name": "owner",
      "outputs": [
        {
          "internalType": "address",
          "name": "",
          "type": "address"
        }
      ],
      "stateMutability": "view",
      "type": "function"
    },
    {
      "inputs": [
        {
          "internalType": "uint256",
          "name": "",
          "type": "uint256"
        }
      ],
      "name": "quantityLimit",
      "outputs": [
        {
          "internalType": "uint256",
          "name": "",
          "type": "uint256"
        }
      ],
      "stateMutability": "view",
      "type": "function"
    },
    {
      "inputs": [
        {
          "internalType": "address",
          "name": "from",
          "type": "address"
        },
        {
          "internalType": "address",
          "name": "to",
          "type": "address"
        },
        {
          "internalType": "uint256[]",
          "name": "ids",
          "type": "uint256[]"
        },
        {
          "internalType": "uint256[]",
          "name": "amounts",
          "type": "uint256[]"
        },
        {
          "internalType": "bytes",
          "name": "data",
          "type": "bytes"
        }
      ],
      "name": "safeBatchTransferFrom",
      "outputs": [],
      "stateMutability": "nonpayable",
      "type": "function"
    },
    {
      "inputs": [
        {
          "internalType": "address",
          "name": "from",
          "type": "address"
        },
        {
          "internalType": "address",
          "name": "to",
          "type": "address"
        },
        {
          "internalType": "uint256",
          "name": "id",
          "type": "uint256"
        },
        {
          "internalType": "uint256",
          "name": "amount",
          "type": "uint256"
        },
        {
          "internalType": "bytes",
          "name": "data",
          "type": "bytes"
        }
      ],
      "name": "safeTransferFrom",
      "outputs": [],
      "stateMutability": "nonpayable",
      "type": "function"
    },
    {
      "inputs": [],
      "name": "saleTimestamp",
      "outputs": [
        {
          "internalType": "uint256",
          "name": "",
          "type": "uint256"
        }
      ],
      "stateMutability": "view",
      "type": "function"
    },
    {
      "inputs": [
        {
          "internalType": "address",
          "name": "operator",
          "type": "address"
        },
        {
          "internalType": "bool",
          "name": "approved",
          "type": "bool"
        }
      ],
      "name": "setApprovalForAll",
      "outputs": [],
      "stateMutability": "nonpayable",
      "type": "function"
    },
    {
      "inputs": [
        {
          "internalType": "string",
          "name": "baseURI",
          "type": "string"
        }
      ],
      "name": "setBaseURI",
      "outputs": [],
      "stateMutability": "nonpayable",
      "type": "function"
    },
    {
      "inputs": [
        {
          "internalType": "bool",
          "name": "_burnStarted",
          "type": "bool"
        }
      ],
      "name": "setBurn",
      "outputs": [],
      "stateMutability": "nonpayable",
      "type": "function"
    },
    {
      "inputs": [
        {
          "internalType": "uint256",
          "name": "_auctionStartTimestamp",
          "type": "uint256"
        },
        {
          "internalType": "uint256",
          "name": "_auctionTimeStep",
          "type": "uint256"
        },
        {
          "internalType": "uint256",
          "name": "_auctionStartPrice",
          "type": "uint256"
        },
        {
          "internalType": "uint256",
          "name": "_auctionEndPrice",
          "type": "uint256"
        },
        {
          "internalType": "uint256",
          "name": "_auctionPriceStep",
          "type": "uint256"
        },
        {
          "internalType": "uint256",
          "name": "_auctionStepNumber",
          "type": "uint256"
        }
      ],
      "name": "setDutchAuction",
      "outputs": [],
      "stateMutability": "nonpayable",
      "type": "function"
    },
    {
      "inputs": [
        {
          "internalType": "uint256",
          "name": "_id",
          "type": "uint256"
        },
        {
          "internalType": "uint256",
          "name": "_MAX",
          "type": "uint256"
        }
      ],
      "name": "setIdLimit",
      "outputs": [],
      "stateMutability": "nonpayable",
      "type": "function"
    },
    {
      "inputs": [
        {
          "internalType": "address",
          "name": "_owner",
          "type": "address"
        }
      ],
      "name": "setOwner",
      "outputs": [],
      "stateMutability": "nonpayable",
      "type": "function"
    },
    {
      "inputs": [
        {
          "internalType": "uint256",
          "name": "_price",
          "type": "uint256"
        }
      ],
      "name": "setPRICE",
      "outputs": [],
      "stateMutability": "nonpayable",
      "type": "function"
    },
    {
      "inputs": [
        {
          "internalType": "bool",
          "name": "_hasSaleStarted",
          "type": "bool"
        },
        {
          "internalType": "bool",
          "name": "_hasClaimStarted",
          "type": "bool"
        },
        {
          "internalType": "bool",
          "name": "_hasAuctionStarted",
          "type": "bool"
        },
        {
          "internalType": "bool",
          "name": "_whitelistSwitch",
          "type": "bool"
        },
        {
          "internalType": "uint256",
          "name": "_saleTimestamp",
          "type": "uint256"
        }
      ],
      "name": "setSaleSwitch",
      "outputs": [],
      "stateMutability": "nonpayable",
      "type": "function"
    },
    {
      "inputs": [
        {
          "internalType": "uint256",
          "name": "_claimStageLimit",
          "type": "uint256"
        },
        {
          "internalType": "uint256",
          "name": "_auctionStageLimit",
          "type": "uint256"
        }
      ],
      "name": "setStageLimit",
      "outputs": [],
      "stateMutability": "nonpayable",
      "type": "function"
    },
    {
      "inputs": [
        {
          "internalType": "uint256",
          "name": "_MAX_NORMAL_TOKEN",
          "type": "uint256"
        },
        {
          "internalType": "uint256",
          "name": "_MAX_SPECIAL_TOKEN",
          "type": "uint256"
        },
        {
          "internalType": "uint256",
          "name": "_SPECIAL_CARD_CONDITION",
          "type": "uint256"
        },
        {
          "internalType": "uint256",
          "name": "_MAX_ADDRESS_TOKEN",
          "type": "uint256"
        },
        {
          "internalType": "uint256",
          "name": "_specialCardId",
          "type": "uint256"
        }
      ],
      "name": "setTokenLimit",
      "outputs": [],
      "stateMutability": "nonpayable",
      "type": "function"
    },
    {
      "inputs": [
        {
          "internalType": "address",
          "name": "_treasury",
          "type": "address"
        }
      ],
      "name": "setTreasury",
      "outputs": [],
      "stateMutability": "nonpayable",
      "type": "function"
    },
    {
      "inputs": [],
      "name": "specialCardId",
      "outputs": [
        {
          "internalType": "uint256",
          "name": "",
          "type": "uint256"
        }
      ],
      "stateMutability": "view",
      "type": "function"
    },
    {
      "inputs": [],
      "name": "specialSupply",
      "outputs": [
        {
          "internalType": "uint256",
          "name": "",
          "type": "uint256"
        }
      ],
      "stateMutability": "view",
      "type": "function"
    },
    {
      "inputs": [
        {
          "internalType": "bytes4",
          "name": "interfaceId",
          "type": "bytes4"
        }
      ],
      "name": "supportsInterface",
      "outputs": [
        {
          "internalType": "bool",
          "name": "",
          "type": "bool"
        }
      ],
      "stateMutability": "view",
      "type": "function"
    },
    {
      "inputs": [],
      "name": "symbol",
      "outputs": [
        {
          "internalType": "string",
          "name": "",
          "type": "string"
        }
      ],
      "stateMutability": "view",
      "type": "function"
    },
    {
      "inputs": [],
      "name": "totalSupply",
      "outputs": [
        {
          "internalType": "uint256",
          "name": "",
          "type": "uint256"
        }
      ],
      "stateMutability": "view",
      "type": "function"
    },
    {
      "inputs": [],
      "name": "treasury",
      "outputs": [
        {
          "internalType": "address",
          "name": "",
          "type": "address"
        }
      ],
      "stateMutability": "view",
      "type": "function"
    },
    {
      "inputs": [
        {
          "internalType": "uint256",
          "name": "",
          "type": "uint256"
        }
      ],
      "name": "uri",
      "outputs": [
        {
          "internalType": "string",
          "name": "",
          "type": "string"
        }
      ],
      "stateMutability": "view",
      "type": "function"
    },
    {
      "inputs": [
        {
          "internalType": "uint256",
          "name": "maxQuantity",
          "type": "uint256"
        },
        {
          "internalType": "bytes",
          "name": "SIGNATURE",
          "type": "bytes"
        }
      ],
      "name": "verify",
      "outputs": [
        {
          "internalType": "bool",
          "name": "",
          "type": "bool"
        }
      ],
      "stateMutability": "view",
      "type": "function"
    },
    {
      "inputs": [],
      "name": "whitelistSwitch",
      "outputs": [
        {
          "internalType": "bool",
          "name": "",
          "type": "bool"
        }
      ],
      "stateMutability": "view",
      "type": "function"
    },
    {
      "inputs": [],
      "name": "withdrawAll",
      "outputs": [],
      "stateMutability": "payable",
      "type": "function"
    }
  ],
  "transactionHash": "0x43796d2244498c9c3cf5ac49b2f4c0977b6860cb4e7dac39d075264ff6ec8c24",
  "args": [],
  "numDeployments": 5,
  "solcInputHash": "cc3e3b1be0b2fc1ebfb5f2022e79ddaf",
  "bytecode": "0x6101606040526001610120819052605560f81b6101409081526200002791600391906200027a565b50604080518082019091526004808252631411955560e21b60209092019182526200005391816200027a565b50610898600581905560166006556003600755600a60088190556702c68af0bb1400006009556361e5301090556000600b819055600c55601e600d55600e556015600f5560108054785279246e3626cebe71a4c181382a50a71d2a415600000000006001600160c81b0319909116179055601180546001600160a01b031916735279246e3626cebe71a4c181382a50a71d2a4156179055348015620000f757600080fd5b5060405180606001604052806028815260200162003afa602891396040805180820182526006815265556e6e616d6560d01b60208083019182528351808501855260058152640312e302e360dc1b908201529151902060c08181527f06c015bd22b4c69690933c1058878ebdfef31f9aaae40bbe86d8a09fe1b2972c60e08190524660a081815286517f8b73c3c69bb8fe3d512ecc4cf759cc79239f7b179b0ffacaa9a75d522b39400f8188018190528189019690965260608101939093526080808401929092523083820152865180840390910181529190920190945283519390920192909220905261010052620001f08162000261565b5060015b601581101562000225576000818152601860205260409020606e9055806200021c816200035d565b915050620001f4565b5060155b602b8110156200025a576000818152601860205260409020600190558062000251816200035d565b91505062000229565b5062000385565b8051620002769060029060208401906200027a565b5050565b828054620002889062000320565b90600052602060002090601f016020900481019282620002ac5760008555620002f7565b82601f10620002c757805160ff1916838001178555620002f7565b82800160010185558215620002f7579182015b82811115620002f7578251825591602001919060010190620002da565b506200030592915062000309565b5090565b5b808211156200030557600081556001016200030a565b600181811c908216806200033557607f821691505b602082108114156200035757634e487b7160e01b600052602260045260246000fd5b50919050565b60006000198214156200037e57634e487b7160e01b81526011600452602481fd5b5060010190565b60805160a05160c05160e05161010051613730620003ca600039600061276c015260006127bb015260006127960152600061271a0152600061274301526137306000f3fe60806040526004361061036a5760003560e01c80638d859f3e116101c6578063c7822598116100f7578063e985e9c511610095578063f242432a1161006f578063f242432a146109a6578063f5298aca146109c6578063f5bb134e146109e6578063fbf76eb2146109fc57600080fd5b8063e985e9c51461091d578063eea52d3814610966578063f0f442601461098657600080fd5b8063d7eef865116100d1578063d7eef865146108a4578063dcb8101f146108ba578063e2e771a4146108e7578063e7e43465146108fd57600080fd5b8063c782259814610862578063cca8a0d814610878578063d756985b1461088e57600080fd5b8063a5b5665c11610164578063bd55cf0d1161013e578063bd55cf0d14610803578063c44f81e214610823578063c4f9ff1014610839578063c6a96c8f1461084c57600080fd5b8063a5b5665c1461079f578063b2a098d9146107b5578063bcd25ee5146107e257600080fd5b806395d89b41116101a057806395d89b411461073e578063964dd24014610753578063a04a6ac814610769578063a22cb4651461077f57600080fd5b80638d859f3e146106eb5780638da5cb5b146107015780639196eba51461072857600080fd5b80632eb2c2d6116102a05780634e1273f41161023e578063717bf33611610218578063717bf3361461068e578063853828b6146106ad57806385852ce4146106b5578063862a2b45146106d557600080fd5b80634e1273f41461060957806355f804b31461063657806361d027b31461065657600080fd5b80634698a3d81161027a5780634698a3d81461059b57806348b5f2bc146105b15780634b30a910146105c75780634ca4fb34146105dc57600080fd5b80632eb2c2d61461052e5780634017b12f1461054e57806344944f311461056e57600080fd5b806318160ddd1161030d57806326df66ce116102e757806326df66ce146104bb578063271cb22f146104db5780632db218b6146104fb5780632e1de27f1461051b57600080fd5b806318160ddd1461046c57806319cb4a1c146104815780631c8b232d146104a157600080fd5b80630af012dd116103495780630af012dd146103f45780630b07e4d1146104165780630e89341c1461042c57806313af40351461044c57600080fd5b8062fdd58e1461036f57806301ffc9a7146103a257806306fdde03146103d2575b600080fd5b34801561037b57600080fd5b5061038f61038a366004612ec1565b610a1e565b6040519081526020015b60405180910390f35b3480156103ae57600080fd5b506103c26103bd36600461305c565b610ab5565b6040519015158152602001610399565b3480156103de57600080fd5b506103e7610b07565b60405161039991906133af565b34801561040057600080fd5b5061041461040f366004613135565b610b99565b005b34801561042257600080fd5b5061038f60055481565b34801561043857600080fd5b506103e76104473660046130e2565b610bac565b34801561045857600080fd5b50610414610467366004612d43565b610c40565b34801561047857600080fd5b5061038f610c76565b34801561048d57600080fd5b5061041461049c3660046131a4565b610c8d565b3480156104ad57600080fd5b506010546103c29060ff1681565b3480156104c757600080fd5b506010546103c29062010000900460ff1681565b3480156104e757600080fd5b506104146104f6366004613135565b610cac565b34801561050757600080fd5b50610414610516366004613001565b610cc6565b6104146105293660046130fa565b610d22565b34801561053a57600080fd5b50610414610549366004612d8f565b611159565b34801561055a57600080fd5b50610414610569366004612eea565b6111f0565b34801561057a57600080fd5b5061038f610589366004612d43565b601b6020526000908152604090205481565b3480156105a757600080fd5b5061038f60165481565b3480156105bd57600080fd5b5061038f600b5481565b3480156105d357600080fd5b5061038f611332565b3480156105e857600080fd5b5061038f6105f73660046130e2565b60196020526000908152604090205481565b34801561061557600080fd5b50610629610624366004612f1c565b611409565b604051610399919061336e565b34801561064257600080fd5b50610414610651366004613094565b61156b565b34801561066257600080fd5b50601154610676906001600160a01b031681565b6040516001600160a01b039091168152602001610399565b34801561069a57600080fd5b506010546103c290610100900460ff1681565b61041461157f565b3480156106c157600080fd5b506103c26106d03660046130fa565b6115ba565b3480156106e157600080fd5b5061038f60085481565b3480156106f757600080fd5b5061038f60095481565b34801561070d57600080fd5b5060105461067690600160281b90046001600160a01b031681565b34801561073457600080fd5b5061038f60135481565b34801561074a57600080fd5b506103e761164c565b34801561075f57600080fd5b5061038f60175481565b34801561077557600080fd5b5061038f60155481565b34801561078b57600080fd5b5061041461079a366004612e98565b61165b565b3480156107ab57600080fd5b5061038f600c5481565b3480156107c157600080fd5b5061038f6107d0366004612d43565b601a6020526000908152604090205481565b3480156107ee57600080fd5b506010546103c2906301000000900460ff1681565b34801561080f57600080fd5b5061041461081e366004612fe7565b611732565b34801561082f57600080fd5b5061038f600d5481565b610414610847366004613156565b61175a565b34801561085857600080fd5b5061038f60125481565b34801561086e57600080fd5b5061038f600a5481565b34801561088457600080fd5b5061038f60075481565b34801561089a57600080fd5b5061038f60145481565b3480156108b057600080fd5b5061038f600e5481565b3480156108c657600080fd5b5061038f6108d53660046130e2565b60186020526000908152604090205481565b3480156108f357600080fd5b5061038f600f5481565b34801561090957600080fd5b506104146109183660046131de565b611c04565b34801561092957600080fd5b506103c2610938366004612d5d565b6001600160a01b03918216600090815260016020908152604080832093909416825291909152205460ff1690565b34801561097257600080fd5b506104146109813660046130e2565b611c29565b34801561099257600080fd5b506104146109a1366004612d43565b611c36565b3480156109b257600080fd5b506104146109c1366004612e35565b611c60565b3480156109d257600080fd5b506104146109e1366004612eea565b611ce7565b3480156109f257600080fd5b5061038f60065481565b348015610a0857600080fd5b506010546103c290640100000000900460ff1681565b60006001600160a01b038316610a8f5760405162461bcd60e51b815260206004820152602b60248201527f455243313135353a2062616c616e636520717565727920666f7220746865207a60448201526a65726f206164647265737360a81b60648201526084015b60405180910390fd5b506000908152602081815260408083206001600160a01b03949094168352929052205490565b60006001600160e01b03198216636cdb3d1360e11b1480610ae657506001600160e01b031982166303a24d0760e21b145b80610b0157506301ffc9a760e01b6001600160e01b03198316145b92915050565b606060038054610b169061356a565b80601f0160208091040260200160405190810160405280929190818152602001828054610b429061356a565b8015610b8f5780601f10610b6457610100808354040283529160200191610b8f565b820191906000526020600020905b815481529060010190602001808311610b7257829003601f168201915b5050505050905090565b610ba1611dbf565b600d91909155600e55565b606060028054610bbb9061356a565b80601f0160208091040260200160405190810160405280929190818152602001828054610be79061356a565b8015610c345780601f10610c0957610100808354040283529160200191610c34565b820191906000526020600020905b815481529060010190602001808311610c1757829003601f168201915b50505050509050919050565b610c48611dbf565b601080546001600160a01b03909216600160281b0265010000000000600160c81b0319909216919091179055565b6000600c54600b54610c889190613508565b905090565b610c95611dbf565b600594909455600692909255600755600855600f55565b610cb4611dbf565b60009182526018602052604090912055565b610cce611dbf565b6010805492151563010000000263ff0000001994151562010000029490941663ffff0000199515156101000261ff00199715159790971661ffff199094169390931795909517939093161717909155600a55565b60105460ff610100909104161515600114610d785760405162461bcd60e51b815260206004820152601660248201527521b630b4b6903430b9903737ba1039ba30b93a32b21760511b6044820152606401610a86565b600a54421015610dbe5760405162461bcd60e51b81526020600482015260116024820152704e4f545f494e5f434c41494d5f54494d4560781b6044820152606401610a86565b600d54600f541115610e285760405162461bcd60e51b815260206004820152602d60248201527f45786365656420746865207370656369616c206964206f6620636c61696d206160448201526c3a103a3434b99039ba30b3b29760991b6064820152608401610a86565b610e3282826115ba565b610e7e5760405162461bcd60e51b815260206004820152601760248201527f4e6f7420656c696769626c6520666f7220636c61696d2e0000000000000000006044820152606401610a86565b600060015b6015811015610ebb57610e963382610a1e565b15610ea957610ea6826001613508565b91505b80610eb3816135d2565b915050610e83565b50600754811015610f0e5760405162461bcd60e51b815260206004820152601760248201527f4e6f7420656e6f756768206e6f726d616c20636172642e0000000000000000006044820152606401610a86565b600954341015610f305760405162461bcd60e51b8152600401610a869061340a565b600654600c54610f41906001611e15565b1115610f8f5760405162461bcd60e51b815260206004820152601a60248201527f45786365656473204d41585f5350454349414c5f544f4b454e2e0000000000006044820152606401610a86565b600f54600090815260186020908152604080832054601990925290912054610fb8906001611e15565b11156110065760405162461bcd60e51b815260206004820152601a60248201527f45786365656473206964207175616e74697479206c696d69742e0000000000006044820152606401610a86565b336000908152601b60205260409020548390611023906001611e15565b11156110715760405162461bcd60e51b815260206004820152601760248201527f4578636565647320636c61696d207175616e746974792e0000000000000000006044820152606401610a86565b61108f33600f54600160405180602001604052806000815250611e28565b600f546000908152601960205260409020546110ac906001611e15565b600f54600090815260196020526040902055600c546110cc906001611e15565b600c55600f547fb32c32014221c522f5b713daa9a1df4bd21450f8b5c763ba3ca01f088f95c8649033906001611100610c76565b6040516111109493929190613348565b60405180910390a1600f54611126906001613508565b600f55336000908152601b6020526040902054611144906001611e15565b336000908152601b6020526040902055505050565b6001600160a01b03851633148061117557506111758533610938565b6111dc5760405162461bcd60e51b815260206004820152603260248201527f455243313135353a207472616e736665722063616c6c6572206973206e6f74206044820152711bdddb995c881b9bdc88185c1c1c9bdd995960721b6064820152608401610a86565b6111e98585858585611f32565b5050505050565b6111f8611dbf565b60008111801561122b57506000828152601860209081526040808320546019909252909120546112289083611e15565b11155b6112775760405162461bcd60e51b815260206004820152601a60248201527f45786365656473206964207175616e74697479206c696d69742e0000000000006044820152606401610a86565b61129283838360405180602001604052806000815250611e28565b60148211156112b057600c546112a89082611e15565b600c556112c1565b600b546112bd9082611e15565b600b555b6000828152601960205260409020546112da9082611e15565b6000838152601960205260409020557fb32c32014221c522f5b713daa9a1df4bd21450f8b5c763ba3ca01f088f95c864838383611315610c76565b6040516113259493929190613348565b60405180910390a1505050565b60105460009062010000900460ff1615156001146113875760405162461bcd60e51b815260206004820152601260248201527141554354494f4e5f4e4f545f41435449564560701b6044820152606401610a86565b601254421015611398575060145490565b6000601354601254426113ab9190613553565b6113b59190613520565b90506017548111156113c657506017545b6016546113d39082613534565b60145411156113fc576016546113e99082613534565b6014546113f69190613553565b91505090565b505060155490565b505b90565b6060815183511461146e5760405162461bcd60e51b815260206004820152602960248201527f455243313135353a206163636f756e747320616e6420696473206c656e677468604482015268040dad2e6dac2e8c6d60bb1b6064820152608401610a86565b6000835167ffffffffffffffff81111561149857634e487b7160e01b600052604160045260246000fd5b6040519080825280602002602001820160405280156114c1578160200160208202803683370190505b50905060005b8451811015611563576115288582815181106114f357634e487b7160e01b600052603260045260246000fd5b602002602001015185838151811061151b57634e487b7160e01b600052603260045260246000fd5b6020026020010151610a1e565b82828151811061154857634e487b7160e01b600052603260045260246000fd5b602090810291909101015261155c816135d2565b90506114c7565b509392505050565b611573611dbf565b61157c8161212b565b50565b611587611dbf565b6011546040516001600160a01b03909116904780156108fc02916000818181858888f193505050506115b857600080fd5b565b60008061162b6116257f182854de6a51f3818344a7eb784b9d55c1e6d2d20c9f9aea309f5daaaaddfec1336040805160208101939093526001600160a01b03909116908201526060810187905260800160405160208183030381529060405280519060200120612142565b84612190565b601054600160281b90046001600160a01b0390811691161491505092915050565b606060048054610b169061356a565b336001600160a01b03831614156116c65760405162461bcd60e51b815260206004820152602960248201527f455243313135353a2073657474696e6720617070726f76616c20737461747573604482015268103337b91039b2b63360b91b6064820152608401610a86565b3360008181526001602090815260408083206001600160a01b03871680855290835292819020805460ff191686151590811790915590519081529192917f17307eab39ab6107e8899845ad3d59bd9653f200f220920489ca2b5937696c31910160405180910390a35050565b61173a611dbf565b601080549115156401000000000264ff0000000019909216919091179055565b60105460ff1615156001146117a35760405162461bcd60e51b815260206004820152600f60248201526e53414c455f4e4f545f41435449564560881b6044820152606401610a86565b600a544210156117e85760405162461bcd60e51b815260206004820152601060248201526f4e4f545f494e5f53414c455f54494d4560801b6044820152606401610a86565b32331461182c5760405162461bcd60e51b815260206004820152601260248201527110d05313115497d254d7d0d3d395149050d560721b6044820152606401610a86565b6010546301000000900460ff1615156001141561189f5761184d82826115ba565b6118995760405162461bcd60e51b815260206004820152601b60248201527f4e6f7420656c696769626c6520666f722077686974656c6973742e00000000006044820152606401610a86565b60088290555b60105462010000900460ff16151560011415611981576118c7836118c1611332565b906121ac565b3410156119165760405162461bcd60e51b815260206004820152601f60248201527f45746865722076616c75652073656e74206973206e6f7420656e6f7567682e006044820152606401610a86565b6000831180156119345750600e54600b546119319085611e15565b11155b61197c5760405162461bcd60e51b815260206004820152601960248201527822bc31b2b2b2399026a0ac2fa727a926a0a62faa27a5a2a71760391b6044820152606401610a86565b6119ad565b60095461198e90846121ac565b3410156119ad5760405162461bcd60e51b8152600401610a869061340a565b6000831180156119cb5750600554600b546119c89085611e15565b11155b611a135760405162461bcd60e51b815260206004820152601960248201527822bc31b2b2b2399026a0ac2fa727a926a0a62faa27a5a2a71760391b6044820152606401610a86565b600854336000908152601a6020526040902054611a309085611e15565b1115611a725760405162461bcd60e51b815260206004820152601160248201527022bc31b2b2b2399038bab0b73a34ba3c9760791b6044820152606401610a86565b60008060005b85811015611bd2576040516bffffffffffffffffffffffff193360601b166020820152603481018290524260548201526000906074016040516020818303038152906040529050611ac8816121b8565b9350611ad5846001613508565b92505b600083815260186020908152604080832054601990925290912054611afe906001611e15565b1115611b2457611b0f836001613508565b92506014831115611b1f57600192505b611ad8565b611b403384600160405180602001604052806000815250611e28565b600083815260196020526040902054611b5a906001611e15565b600084815260196020526040902055600b54611b77906001611e15565b600b557fb32c32014221c522f5b713daa9a1df4bd21450f8b5c763ba3ca01f088f95c86433846001611ba7610c76565b604051611bb79493929190613348565b60405180910390a15080611bca816135d2565b915050611a78565b50336000908152601a6020526040902054611bed9086611e15565b336000908152601a60205260409020555050505050565b611c0c611dbf565b601295909555601393909355601491909155601555601655601755565b611c31611dbf565b600955565b611c3e611dbf565b601180546001600160a01b0319166001600160a01b0392909216919091179055565b6001600160a01b038516331480611c7c5750611c7c8533610938565b611cda5760405162461bcd60e51b815260206004820152602960248201527f455243313135353a2063616c6c6572206973206e6f74206f776e6572206e6f7260448201526808185c1c1c9bdd995960ba1b6064820152608401610a86565b6111e985858585856121f1565b601054640100000000900460ff161515600114611d3d5760405162461bcd60e51b8152602060048201526014602482015273213ab937103430b9b713ba1039ba30b93a32b21760611b6044820152606401610a86565b6001600160a01b038316321480611d595750611d598333610938565b611daf5760405162461bcd60e51b815260206004820152602160248201527f43616c6c6572206973206e6f74206f776e6572206e6f7220617070726f7665646044820152601760f91b6064820152608401610a86565b611dba83838361230e565b505050565b601054600160281b90046001600160a01b031633146115b85760405162461bcd60e51b81526020600482015260126024820152712cb7ba9030b932903737ba1037bbb732b91760711b6044820152606401610a86565b6000611e218284613508565b9392505050565b6001600160a01b038416611e885760405162461bcd60e51b815260206004820152602160248201527f455243313135353a206d696e7420746f20746865207a65726f206164647265736044820152607360f81b6064820152608401610a86565b33611ea281600087611e9988612488565b6111e988612488565b6000848152602081815260408083206001600160a01b038916845290915281208054859290611ed2908490613508565b909155505060408051858152602081018590526001600160a01b0380881692600092918516917fc3d58168c5ae7397731d063d5bbf3d657854427343f4c083240f7aacaa2d0f62910160405180910390a46111e9816000878787876124e1565b8151835114611f945760405162461bcd60e51b815260206004820152602860248201527f455243313135353a2069647320616e6420616d6f756e7473206c656e677468206044820152670dad2e6dac2e8c6d60c31b6064820152608401610a86565b6001600160a01b038416611fba5760405162461bcd60e51b8152600401610a8690613455565b3360005b84518110156120bd576000858281518110611fe957634e487b7160e01b600052603260045260246000fd5b60200260200101519050600085838151811061201557634e487b7160e01b600052603260045260246000fd5b602090810291909101810151600084815280835260408082206001600160a01b038e1683529093529190912054909150818110156120655760405162461bcd60e51b8152600401610a869061349a565b6000838152602081815260408083206001600160a01b038e8116855292528083208585039055908b168252812080548492906120a2908490613508565b92505081905550505050806120b6906135d2565b9050611fbe565b50846001600160a01b0316866001600160a01b0316826001600160a01b03167f4a39dc06d4c0dbc64b70af90fd698a233a518aa5d07e595d983b8c0526c8f7fb878760405161210d929190613381565b60405180910390a461212381878787878761264c565b505050505050565b805161213e906002906020840190612b96565b5050565b6000610b0161214f612716565b8360405161190160f01b6020820152602281018390526042810182905260009060620160405160208183030381529060405280519060200120905092915050565b600080600061219f8585612809565b9150915061156381612879565b6000611e218284613534565b600080826040516020016121cc91906133af565b60408051601f1981840301815291905280516020909101209050611e216014826135ed565b6001600160a01b0384166122175760405162461bcd60e51b8152600401610a8690613455565b33612227818787611e9988612488565b6000848152602081815260408083206001600160a01b038a168452909152902054838110156122685760405162461bcd60e51b8152600401610a869061349a565b6000858152602081815260408083206001600160a01b038b81168552925280832087850390559088168252812080548692906122a5908490613508565b909155505060408051868152602081018690526001600160a01b03808916928a821692918616917fc3d58168c5ae7397731d063d5bbf3d657854427343f4c083240f7aacaa2d0f62910160405180910390a46123058288888888886124e1565b50505050505050565b6001600160a01b0383166123705760405162461bcd60e51b815260206004820152602360248201527f455243313135353a206275726e2066726f6d20746865207a65726f206164647260448201526265737360e81b6064820152608401610a86565b336123a08185600061238187612488565b61238a87612488565b5050604080516020810190915260009052505050565b6000838152602081815260408083206001600160a01b03881684529091529020548281101561241d5760405162461bcd60e51b8152602060048201526024808201527f455243313135353a206275726e20616d6f756e7420657863656564732062616c604482015263616e636560e01b6064820152608401610a86565b6000848152602081815260408083206001600160a01b03898116808652918452828520888703905582518981529384018890529092908616917fc3d58168c5ae7397731d063d5bbf3d657854427343f4c083240f7aacaa2d0f62910160405180910390a45050505050565b604080516001808252818301909252606091600091906020808301908036833701905050905082816000815181106124d057634e487b7160e01b600052603260045260246000fd5b602090810291909101015292915050565b6001600160a01b0384163b156121235760405163f23a6e6160e01b81526001600160a01b0385169063f23a6e61906125259089908990889088908890600401613303565b602060405180830381600087803b15801561253f57600080fd5b505af192505050801561256f575060408051601f3d908101601f1916820190925261256c91810190613078565b60015b61261c5761257b613643565b806308c379a014156125b5575061259061365a565b8061259b57506125b7565b8060405162461bcd60e51b8152600401610a8691906133af565b505b60405162461bcd60e51b815260206004820152603460248201527f455243313135353a207472616e7366657220746f206e6f6e20455243313135356044820152732932b1b2b4bb32b91034b6b83632b6b2b73a32b960611b6064820152608401610a86565b6001600160e01b0319811663f23a6e6160e01b146123055760405162461bcd60e51b8152600401610a86906133c2565b6001600160a01b0384163b156121235760405163bc197c8160e01b81526001600160a01b0385169063bc197c819061269090899089908890889088906004016132a5565b602060405180830381600087803b1580156126aa57600080fd5b505af19250505080156126da575060408051601f3d908101601f191682019092526126d791810190613078565b60015b6126e65761257b613643565b6001600160e01b0319811663bc197c8160e01b146123055760405162461bcd60e51b8152600401610a86906133c2565b60007f000000000000000000000000000000000000000000000000000000000000000046141561276557507f000000000000000000000000000000000000000000000000000000000000000090565b50604080517f00000000000000000000000000000000000000000000000000000000000000006020808301919091527f0000000000000000000000000000000000000000000000000000000000000000828401527f000000000000000000000000000000000000000000000000000000000000000060608301524660808301523060a0808401919091528351808403909101815260c0909201909252805191012090565b6000808251604114156128405760208301516040840151606085015160001a61283487828585612a7a565b94509450505050612872565b82516040141561286a576020830151604084015161285f868383612b67565b935093505050612872565b506000905060025b9250929050565b600081600481111561289b57634e487b7160e01b600052602160045260246000fd5b14156128a45750565b60018160048111156128c657634e487b7160e01b600052602160045260246000fd5b14156129145760405162461bcd60e51b815260206004820152601860248201527f45434453413a20696e76616c6964207369676e617475726500000000000000006044820152606401610a86565b600281600481111561293657634e487b7160e01b600052602160045260246000fd5b14156129845760405162461bcd60e51b815260206004820152601f60248201527f45434453413a20696e76616c6964207369676e6174757265206c656e677468006044820152606401610a86565b60038160048111156129a657634e487b7160e01b600052602160045260246000fd5b14156129ff5760405162461bcd60e51b815260206004820152602260248201527f45434453413a20696e76616c6964207369676e6174757265202773272076616c604482015261756560f01b6064820152608401610a86565b6004816004811115612a2157634e487b7160e01b600052602160045260246000fd5b141561157c5760405162461bcd60e51b815260206004820152602260248201527f45434453413a20696e76616c6964207369676e6174757265202776272076616c604482015261756560f01b6064820152608401610a86565b6000807f7fffffffffffffffffffffffffffffff5d576e7357a4501ddfe92f46681b20a0831115612ab15750600090506003612b5e565b8460ff16601b14158015612ac957508460ff16601c14155b15612ada5750600090506004612b5e565b6040805160008082526020820180845289905260ff881692820192909252606081018690526080810185905260019060a0016020604051602081039080840390855afa158015612b2e573d6000803e3d6000fd5b5050604051601f1901519150506001600160a01b038116612b5757600060019250925050612b5e565b9150600090505b94509492505050565b6000806001600160ff1b03831660ff84901c601b01612b8887828885612a7a565b935093505050935093915050565b828054612ba29061356a565b90600052602060002090601f016020900481019282612bc45760008555612c0a565b82601f10612bdd57805160ff1916838001178555612c0a565b82800160010185558215612c0a579182015b82811115612c0a578251825591602001919060010190612bef565b506114049291505b808211156114045760008155600101612c12565b600067ffffffffffffffff831115612c4057612c4061362d565b604051612c57601f8501601f1916602001826135a5565b809150838152848484011115612c6c57600080fd5b83836020830137600060208583010152509392505050565b80356001600160a01b0381168114612c9b57600080fd5b919050565b600082601f830112612cb0578081fd5b81356020612cbd826134e4565b604051612cca82826135a5565b8381528281019150858301600585901b87018401881015612ce9578586fd5b855b85811015612d0757813584529284019290840190600101612ceb565b5090979650505050505050565b80358015158114612c9b57600080fd5b600082601f830112612d34578081fd5b611e2183833560208501612c26565b600060208284031215612d54578081fd5b611e2182612c84565b60008060408385031215612d6f578081fd5b612d7883612c84565b9150612d8660208401612c84565b90509250929050565b600080600080600060a08688031215612da6578081fd5b612daf86612c84565b9450612dbd60208701612c84565b9350604086013567ffffffffffffffff80821115612dd9578283fd5b612de589838a01612ca0565b94506060880135915080821115612dfa578283fd5b612e0689838a01612ca0565b93506080880135915080821115612e1b578283fd5b50612e2888828901612d24565b9150509295509295909350565b600080600080600060a08688031215612e4c578081fd5b612e5586612c84565b9450612e6360208701612c84565b93506040860135925060608601359150608086013567ffffffffffffffff811115612e8c578182fd5b612e2888828901612d24565b60008060408385031215612eaa578182fd5b612eb383612c84565b9150612d8660208401612d14565b60008060408385031215612ed3578182fd5b612edc83612c84565b946020939093013593505050565b600080600060608486031215612efe578283fd5b612f0784612c84565b95602085013595506040909401359392505050565b60008060408385031215612f2e578182fd5b823567ffffffffffffffff80821115612f45578384fd5b818501915085601f830112612f58578384fd5b81356020612f65826134e4565b604051612f7282826135a5565b8381528281019150858301600585901b870184018b1015612f91578889fd5b8896505b84871015612fba57612fa681612c84565b835260019690960195918301918301612f95565b5096505086013592505080821115612fd0578283fd5b50612fdd85828601612ca0565b9150509250929050565b600060208284031215612ff8578081fd5b611e2182612d14565b600080600080600060a08688031215613018578283fd5b61302186612d14565b945061302f60208701612d14565b935061303d60408701612d14565b925061304b60608701612d14565b949793965091946080013592915050565b60006020828403121561306d578081fd5b8135611e21816136e4565b600060208284031215613089578081fd5b8151611e21816136e4565b6000602082840312156130a5578081fd5b813567ffffffffffffffff8111156130bb578182fd5b8201601f810184136130cb578182fd5b6130da84823560208401612c26565b949350505050565b6000602082840312156130f3578081fd5b5035919050565b6000806040838503121561310c578182fd5b82359150602083013567ffffffffffffffff811115613129578182fd5b612fdd85828601612d24565b60008060408385031215613147578182fd5b50508035926020909101359150565b60008060006060848603121561316a578081fd5b8335925060208401359150604084013567ffffffffffffffff81111561318e578182fd5b61319a86828701612d24565b9150509250925092565b600080600080600060a086880312156131bb578283fd5b505083359560208501359550604085013594606081013594506080013592509050565b60008060008060008060c087890312156131f6578384fd5b505084359660208601359650604086013595606081013595506080810135945060a0013592509050565b6000815180845260208085019450808401835b8381101561324f57815187529582019590820190600101613233565b509495945050505050565b60008151808452815b8181101561327f57602081850181015186830182015201613263565b818111156132905782602083870101525b50601f01601f19169290920160200192915050565b6001600160a01b0386811682528516602082015260a0604082018190526000906132d190830186613220565b82810360608401526132e38186613220565b905082810360808401526132f7818561325a565b98975050505050505050565b6001600160a01b03868116825285166020820152604081018490526060810183905260a06080820181905260009061333d9083018461325a565b979650505050505050565b6001600160a01b0394909416845260208401929092526040830152606082015260800190565b602081526000611e216020830184613220565b6040815260006133946040830185613220565b82810360208401526133a68185613220565b95945050505050565b602081526000611e21602083018461325a565b60208082526028908201527f455243313135353a204552433131353552656365697665722072656a656374656040820152676420746f6b656e7360c01b606082015260800190565b6020808252602b908201527f45746865722076616c75652073656e74206973206e6f7420657175616c20746f60408201526a103a343290383934b1b29760a91b606082015260800190565b60208082526025908201527f455243313135353a207472616e7366657220746f20746865207a65726f206164604082015264647265737360d81b606082015260800190565b6020808252602a908201527f455243313135353a20696e73756666696369656e742062616c616e636520666f60408201526939103a3930b739b332b960b11b606082015260800190565b600067ffffffffffffffff8211156134fe576134fe61362d565b5060051b60200190565b6000821982111561351b5761351b613601565b500190565b60008261352f5761352f613617565b500490565b600081600019048311821515161561354e5761354e613601565b500290565b60008282101561356557613565613601565b500390565b600181811c9082168061357e57607f821691505b6020821081141561359f57634e487b7160e01b600052602260045260246000fd5b50919050565b601f8201601f1916810167ffffffffffffffff811182821017156135cb576135cb61362d565b6040525050565b60006000198214156135e6576135e6613601565b5060010190565b6000826135fc576135fc613617565b500690565b634e487b7160e01b600052601160045260246000fd5b634e487b7160e01b600052601260045260246000fd5b634e487b7160e01b600052604160045260246000fd5b600060033d111561140657600481823e5160e01c90565b600060443d10156136685790565b6040516003193d81016004833e81513d67ffffffffffffffff816024840111818411171561369857505050505090565b82850191508151818111156136b05750505050505090565b843d87010160208285010111156136ca5750505050505090565b6136d9602082860101876135a5565b509095945050505050565b6001600160e01b03198116811461157c57600080fdfea2646970667358221220cc2fa0da1f34bb5acb5bf38e746da48a7578608fde510b8d3df55cf4ff65fac664736f6c63430008040033687474703a2f2f6170692e756e6e616d65746f6b656e2e636f6d2f4d657461646174612f7b69647d",
  "devdoc": {
    "kind": "dev",
    "methods": {
      "balanceOf(address,uint256)": {
        "details": "See {IERC1155-balanceOf}. Requirements: - `account` cannot be the zero address."
      },
      "balanceOfBatch(address[],uint256[])": {
        "details": "See {IERC1155-balanceOfBatch}. Requirements: - `accounts` and `ids` must have the same length."
      },
      "isApprovedForAll(address,address)": {
        "details": "See {IERC1155-isApprovedForAll}."
      },
      "safeBatchTransferFrom(address,address,uint256[],uint256[],bytes)": {
        "details": "See {IERC1155-safeBatchTransferFrom}."
      },
      "safeTransferFrom(address,address,uint256,uint256,bytes)": {
        "details": "See {IERC1155-safeTransferFrom}."
      },
      "setApprovalForAll(address,bool)": {
        "details": "See {IERC1155-setApprovalForAll}."
      },
      "supportsInterface(bytes4)": {
        "details": "See {IERC165-supportsInterface}."
      },
      "uri(uint256)": {
        "details": "See {IERC1155MetadataURI-uri}. This implementation returns the same URI for *all* token types. It relies on the token type ID substitution mechanism https://eips.ethereum.org/EIPS/eip-1155#metadata[defined in the EIP]. Clients calling this function must replace the `\\{id\\}` substring with the actual token type ID."
      }
    },
    "version": 1
  },
  "userdoc": {
    "kind": "user",
    "methods": {},
    "version": 1
  },
  "storageLayout": {
    "storage": [
      {
        "astId": 25,
        "contract": "contracts/Unname.sol:Unname",
        "label": "_balances",
        "offset": 0,
        "slot": "0",
        "type": "t_mapping(t_uint256,t_mapping(t_address,t_uint256))"
      },
      {
        "astId": 31,
        "contract": "contracts/Unname.sol:Unname",
        "label": "_operatorApprovals",
        "offset": 0,
        "slot": "1",
        "type": "t_mapping(t_address,t_mapping(t_address,t_bool))"
      },
      {
        "astId": 33,
        "contract": "contracts/Unname.sol:Unname",
        "label": "_uri",
        "offset": 0,
        "slot": "2",
        "type": "t_string_storage"
      },
      {
        "astId": 2654,
        "contract": "contracts/Unname.sol:Unname",
        "label": "_name",
        "offset": 0,
        "slot": "3",
        "type": "t_string_storage"
      },
      {
        "astId": 2657,
        "contract": "contracts/Unname.sol:Unname",
        "label": "_symbol",
        "offset": 0,
        "slot": "4",
        "type": "t_string_storage"
      },
      {
        "astId": 2660,
        "contract": "contracts/Unname.sol:Unname",
        "label": "MAX_NORMAL_TOKEN",
        "offset": 0,
        "slot": "5",
        "type": "t_uint256"
      },
      {
        "astId": 2663,
        "contract": "contracts/Unname.sol:Unname",
        "label": "MAX_SPECIAL_TOKEN",
        "offset": 0,
        "slot": "6",
        "type": "t_uint256"
      },
      {
        "astId": 2666,
        "contract": "contracts/Unname.sol:Unname",
        "label": "SPECIAL_CARD_CONDITION",
        "offset": 0,
        "slot": "7",
        "type": "t_uint256"
      },
      {
        "astId": 2669,
        "contract": "contracts/Unname.sol:Unname",
        "label": "MAX_ADDRESS_TOKEN",
        "offset": 0,
        "slot": "8",
        "type": "t_uint256"
      },
      {
        "astId": 2672,
        "contract": "contracts/Unname.sol:Unname",
        "label": "PRICE",
        "offset": 0,
        "slot": "9",
        "type": "t_uint256"
      },
      {
        "astId": 2675,
        "contract": "contracts/Unname.sol:Unname",
        "label": "saleTimestamp",
        "offset": 0,
        "slot": "10",
        "type": "t_uint256"
      },
      {
        "astId": 2678,
        "contract": "contracts/Unname.sol:Unname",
        "label": "normalSupply",
        "offset": 0,
        "slot": "11",
        "type": "t_uint256"
      },
      {
        "astId": 2681,
        "contract": "contracts/Unname.sol:Unname",
        "label": "specialSupply",
        "offset": 0,
        "slot": "12",
        "type": "t_uint256"
      },
      {
        "astId": 2684,
        "contract": "contracts/Unname.sol:Unname",
        "label": "claimStageLimit",
        "offset": 0,
        "slot": "13",
        "type": "t_uint256"
      },
      {
        "astId": 2687,
        "contract": "contracts/Unname.sol:Unname",
        "label": "auctionStageLimit",
        "offset": 0,
        "slot": "14",
        "type": "t_uint256"
      },
      {
        "astId": 2690,
        "contract": "contracts/Unname.sol:Unname",
        "label": "specialCardId",
        "offset": 0,
        "slot": "15",
        "type": "t_uint256"
      },
      {
        "astId": 2693,
        "contract": "contracts/Unname.sol:Unname",
        "label": "hasSaleStarted",
        "offset": 0,
        "slot": "16",
        "type": "t_bool"
      },
      {
        "astId": 2696,
        "contract": "contracts/Unname.sol:Unname",
        "label": "hasClaimStarted",
        "offset": 1,
        "slot": "16",
        "type": "t_bool"
      },
      {
        "astId": 2699,
        "contract": "contracts/Unname.sol:Unname",
        "label": "hasAuctionStarted",
        "offset": 2,
        "slot": "16",
        "type": "t_bool"
      },
      {
        "astId": 2702,
        "contract": "contracts/Unname.sol:Unname",
        "label": "whitelistSwitch",
        "offset": 3,
        "slot": "16",
        "type": "t_bool"
      },
      {
        "astId": 2705,
        "contract": "contracts/Unname.sol:Unname",
        "label": "burnStarted",
        "offset": 4,
        "slot": "16",
        "type": "t_bool"
      },
      {
        "astId": 2708,
        "contract": "contracts/Unname.sol:Unname",
        "label": "owner",
        "offset": 5,
        "slot": "16",
        "type": "t_address"
      },
      {
        "astId": 2711,
        "contract": "contracts/Unname.sol:Unname",
        "label": "treasury",
        "offset": 0,
        "slot": "17",
        "type": "t_address"
      },
      {
        "astId": 2713,
        "contract": "contracts/Unname.sol:Unname",
        "label": "auctionStartTimestamp",
        "offset": 0,
        "slot": "18",
        "type": "t_uint256"
      },
      {
        "astId": 2715,
        "contract": "contracts/Unname.sol:Unname",
        "label": "auctionTimeStep",
        "offset": 0,
        "slot": "19",
        "type": "t_uint256"
      },
      {
        "astId": 2717,
        "contract": "contracts/Unname.sol:Unname",
        "label": "auctionStartPrice",
        "offset": 0,
        "slot": "20",
        "type": "t_uint256"
      },
      {
        "astId": 2719,
        "contract": "contracts/Unname.sol:Unname",
        "label": "auctionEndPrice",
        "offset": 0,
        "slot": "21",
        "type": "t_uint256"
      },
      {
        "astId": 2721,
        "contract": "contracts/Unname.sol:Unname",
        "label": "auctionPriceStep",
        "offset": 0,
        "slot": "22",
        "type": "t_uint256"
      },
      {
        "astId": 2723,
        "contract": "contracts/Unname.sol:Unname",
        "label": "auctionStepNumber",
        "offset": 0,
        "slot": "23",
        "type": "t_uint256"
      },
      {
        "astId": 2727,
        "contract": "contracts/Unname.sol:Unname",
        "label": "quantityLimit",
        "offset": 0,
        "slot": "24",
        "type": "t_mapping(t_uint256,t_uint256)"
      },
      {
        "astId": 2731,
        "contract": "contracts/Unname.sol:Unname",
        "label": "idHasMinted",
        "offset": 0,
        "slot": "25",
        "type": "t_mapping(t_uint256,t_uint256)"
      },
      {
        "astId": 2735,
        "contract": "contracts/Unname.sol:Unname",
        "label": "addressHasMinted",
        "offset": 0,
        "slot": "26",
        "type": "t_mapping(t_address,t_uint256)"
      },
      {
        "astId": 2739,
        "contract": "contracts/Unname.sol:Unname",
        "label": "addressHasClaimed",
        "offset": 0,
        "slot": "27",
        "type": "t_mapping(t_address,t_uint256)"
      }
    ],
    "types": {
      "t_address": {
        "encoding": "inplace",
        "label": "address",
        "numberOfBytes": "20"
      },
      "t_bool": {
        "encoding": "inplace",
        "label": "bool",
        "numberOfBytes": "1"
      },
      "t_mapping(t_address,t_bool)": {
        "encoding": "mapping",
        "key": "t_address",
        "label": "mapping(address => bool)",
        "numberOfBytes": "32",
        "value": "t_bool"
      },
      "t_mapping(t_address,t_mapping(t_address,t_bool))": {
        "encoding": "mapping",
        "key": "t_address",
        "label": "mapping(address => mapping(address => bool))",
        "numberOfBytes": "32",
        "value": "t_mapping(t_address,t_bool)"
      },
      "t_mapping(t_address,t_uint256)": {
        "encoding": "mapping",
        "key": "t_address",
        "label": "mapping(address => uint256)",
        "numberOfBytes": "32",
        "value": "t_uint256"
      },
      "t_mapping(t_uint256,t_mapping(t_address,t_uint256))": {
        "encoding": "mapping",
        "key": "t_uint256",
        "label": "mapping(uint256 => mapping(address => uint256))",
        "numberOfBytes": "32",
        "value": "t_mapping(t_address,t_uint256)"
      },
      "t_mapping(t_uint256,t_uint256)": {
        "encoding": "mapping",
        "key": "t_uint256",
        "label": "mapping(uint256 => uint256)",
        "numberOfBytes": "32",
        "value": "t_uint256"
      },
      "t_string_storage": {
        "encoding": "bytes",
        "label": "string",
        "numberOfBytes": "32"
      },
      "t_uint256": {
        "encoding": "inplace",
        "label": "uint256",
        "numberOfBytes": "32"
      }
    }
  }
}