{
  "address": "0x9871ADDae3D656a11754d9AfebDDcb8CBeF41586",
  "abi": [
    {
      "inputs": [],
      "stateMutability": "nonpayable",
      "type": "constructor"
    },
    {
      "anonymous": false,
      "inputs": [
        {
          "indexed": true,
          "internalType": "address",
          "name": "account",
          "type": "address"
        },
        {
          "indexed": true,
          "internalType": "address",
          "name": "operator",
          "type": "address"
        },
        {
          "indexed": false,
          "internalType": "bool",
          "name": "approved",
          "type": "bool"
        }
      ],
      "name": "ApprovalForAll",
      "type": "event"
    },
    {
      "anonymous": false,
      "inputs": [
        {
          "indexed": true,
          "internalType": "address",
          "name": "operator",
          "type": "address"
        },
        {
          "indexed": true,
          "internalType": "address",
          "name": "from",
          "type": "address"
        },
        {
          "indexed": true,
          "internalType": "address",
          "name": "to",
          "type": "address"
        },
        {
          "indexed": false,
          "internalType": "uint256[]",
          "name": "ids",
          "type": "uint256[]"
        },
        {
          "indexed": false,
          "internalType": "uint256[]",
          "name": "values",
          "type": "uint256[]"
        }
      ],
      "name": "TransferBatch",
      "type": "event"
    },
    {
      "anonymous": false,
      "inputs": [
        {
          "indexed": true,
          "internalType": "address",
          "name": "operator",
          "type": "address"
        },
        {
          "indexed": true,
          "internalType": "address",
          "name": "from",
          "type": "address"
        },
        {
          "indexed": true,
          "internalType": "address",
          "name": "to",
          "type": "address"
        },
        {
          "indexed": false,
          "internalType": "uint256",
          "name": "id",
          "type": "uint256"
        },
        {
          "indexed": false,
          "internalType": "uint256",
          "name": "value",
          "type": "uint256"
        }
      ],
      "name": "TransferSingle",
      "type": "event"
    },
    {
      "anonymous": false,
      "inputs": [
        {
          "indexed": false,
          "internalType": "string",
          "name": "value",
          "type": "string"
        },
        {
          "indexed": true,
          "internalType": "uint256",
          "name": "id",
          "type": "uint256"
        }
      ],
      "name": "URI",
      "type": "event"
    },
    {
      "anonymous": false,
      "inputs": [
        {
          "indexed": false,
          "internalType": "address",
          "name": "owner",
          "type": "address"
        },
        {
          "indexed": false,
          "internalType": "uint256",
          "name": "id",
          "type": "uint256"
        },
        {
          "indexed": false,
          "internalType": "uint256",
          "name": "quantity",
          "type": "uint256"
        },
        {
          "indexed": false,
          "internalType": "uint256",
          "name": "totalSupply",
          "type": "uint256"
        }
      ],
      "name": "mintEvent",
      "type": "event"
    },
    {
      "inputs": [],
      "name": "MAX_ADDRESS_TOKEN",
      "outputs": [
        {
          "internalType": "uint256",
          "name": "",
          "type": "uint256"
        }
      ],
      "stateMutability": "view",
      "type": "function"
    },
    {
      "inputs": [],
      "name": "MAX_NORMAL_TOKEN",
      "outputs": [
        {
          "internalType": "uint256",
          "name": "",
          "type": "uint256"
        }
      ],
      "stateMutability": "view",
      "type": "function"
    },
    {
      "inputs": [],
      "name": "MAX_SPECIAL_TOKEN",
      "outputs": [
        {
          "internalType": "uint256",
          "name": "",
          "type": "uint256"
        }
      ],
      "stateMutability": "view",
      "type": "function"
    },
    {
      "inputs": [],
      "name": "PRICE",
      "outputs": [
        {
          "internalType": "uint256",
          "name": "",
          "type": "uint256"
        }
      ],
      "stateMutability": "view",
      "type": "function"
    },
    {
      "inputs": [],
      "name": "SPECIAL_CARD_CONDICTION",
      "outputs": [
        {
          "internalType": "uint256",
          "name": "",
          "type": "uint256"
        }
      ],
      "stateMutability": "view",
      "type": "function"
    },
    {
      "inputs": [
        {
          "internalType": "address",
          "name": "",
          "type": "address"
        }
      ],
      "name": "addressHasMinted",
      "outputs": [
        {
          "internalType": "uint256",
          "name": "",
          "type": "uint256"
        }
      ],
      "stateMutability": "view",
      "type": "function"
    },
    {
      "inputs": [],
      "name": "auctionEndPrice",
      "outputs": [
        {
          "internalType": "uint256",
          "name": "",
          "type": "uint256"
        }
      ],
      "stateMutability": "view",
      "type": "function"
    },
    {
      "inputs": [],
      "name": "auctionPriceStep",
      "outputs": [
        {
          "internalType": "uint256",
          "name": "",
          "type": "uint256"
        }
      ],
      "stateMutability": "view",
      "type": "function"
    },
    {
      "inputs": [],
      "name": "auctionStageLimit",
      "outputs": [
        {
          "internalType": "uint256",
          "name": "",
          "type": "uint256"
        }
      ],
      "stateMutability": "view",
      "type": "function"
    },
    {
      "inputs": [],
      "name": "auctionStartPrice",
      "outputs": [
        {
          "internalType": "uint256",
          "name": "",
          "type": "uint256"
        }
      ],
      "stateMutability": "view",
      "type": "function"
    },
    {
      "inputs": [],
      "name": "auctionStartTimestamp",
      "outputs": [
        {
          "internalType": "uint256",
          "name": "",
          "type": "uint256"
        }
      ],
      "stateMutability": "view",
      "type": "function"
    },
    {
      "inputs": [],
      "name": "auctionStepNumber",
      "outputs": [
        {
          "internalType": "uint256",
          "name": "",
          "type": "uint256"
        }
      ],
      "stateMutability": "view",
      "type": "function"
    },
    {
      "inputs": [],
      "name": "auctionTimeStep",
      "outputs": [
        {
          "internalType": "uint256",
          "name": "",
          "type": "uint256"
        }
      ],
      "stateMutability": "view",
      "type": "function"
    },
    {
      "inputs": [
        {
          "internalType": "address",
          "name": "account",
          "type": "address"
        },
        {
          "internalType": "uint256",
          "name": "id",
          "type": "uint256"
        }
      ],
      "name": "balanceOf",
      "outputs": [
        {
          "internalType": "uint256",
          "name": "",
          "type": "uint256"
        }
      ],
      "stateMutability": "view",
      "type": "function"
    },
    {
      "inputs": [
        {
          "internalType": "address[]",
          "name": "accounts",
          "type": "address[]"
        },
        {
          "internalType": "uint256[]",
          "name": "ids",
          "type": "uint256[]"
        }
      ],
      "name": "balanceOfBatch",
      "outputs": [
        {
          "internalType": "uint256[]",
          "name": "",
          "type": "uint256[]"
        }
      ],
      "stateMutability": "view",
      "type": "function"
    },
    {
      "inputs": [
        {
          "internalType": "address",
          "name": "account",
          "type": "address"
        },
        {
          "internalType": "uint256",
          "name": "id",
          "type": "uint256"
        },
        {
          "internalType": "uint256",
          "name": "quantity",
          "type": "uint256"
        }
      ],
      "name": "burn",
      "outputs": [],
      "stateMutability": "nonpayable",
      "type": "function"
    },
    {
      "inputs": [],
      "name": "burnStarted",
      "outputs": [
        {
          "internalType": "bool",
          "name": "",
          "type": "bool"
        }
      ],
      "stateMutability": "view",
      "type": "function"
    },
    {
      "inputs": [
        {
          "internalType": "uint256",
          "name": "maxQuantity",
          "type": "uint256"
        },
        {
          "internalType": "bytes",
          "name": "SIGNATURE",
          "type": "bytes"
        }
      ],
      "name": "claimSpecial",
      "outputs": [],
      "stateMutability": "payable",
      "type": "function"
    },
    {
      "inputs": [],
      "name": "claimStageLimit",
      "outputs": [
        {
          "internalType": "uint256",
          "name": "",
          "type": "uint256"
        }
      ],
      "stateMutability": "view",
      "type": "function"
    },
    {
      "inputs": [],
      "name": "getDutchAuctionPrice",
      "outputs": [
        {
          "internalType": "uint256",
          "name": "",
          "type": "uint256"
        }
      ],
      "stateMutability": "view",
      "type": "function"
    },
    {
      "inputs": [
        {
          "internalType": "address",
          "name": "to",
          "type": "address"
        },
        {
          "internalType": "uint256",
          "name": "id",
          "type": "uint256"
        },
        {
          "internalType": "uint256",
          "name": "quantity",
          "type": "uint256"
        }
      ],
      "name": "giveawayNFT",
      "outputs": [],
      "stateMutability": "nonpayable",
      "type": "function"
    },
    {
      "inputs": [],
      "name": "hasAuctionStarted",
      "outputs": [
        {
          "internalType": "bool",
          "name": "",
          "type": "bool"
        }
      ],
      "stateMutability": "view",
      "type": "function"
    },
    {
      "inputs": [],
      "name": "hasClaimStarted",
      "outputs": [
        {
          "internalType": "bool",
          "name": "",
          "type": "bool"
        }
      ],
      "stateMutability": "view",
      "type": "function"
    },
    {
      "inputs": [],
      "name": "hasSaleStarted",
      "outputs": [
        {
          "internalType": "bool",
          "name": "",
          "type": "bool"
        }
      ],
      "stateMutability": "view",
      "type": "function"
    },
    {
      "inputs": [
        {
          "internalType": "uint256",
          "name": "",
          "type": "uint256"
        }
      ],
      "name": "idHasMinted",
      "outputs": [
        {
          "internalType": "uint256",
          "name": "",
          "type": "uint256"
        }
      ],
      "stateMutability": "view",
      "type": "function"
    },
    {
      "inputs": [
        {
          "internalType": "address",
          "name": "account",
          "type": "address"
        },
        {
          "internalType": "address",
          "name": "operator",
          "type": "address"
        }
      ],
      "name": "isApprovedForAll",
      "outputs": [
        {
          "internalType": "bool",
          "name": "",
          "type": "bool"
        }
      ],
      "stateMutability": "view",
      "type": "function"
    },
    {
      "inputs": [
        {
          "internalType": "uint256",
          "name": "quantity",
          "type": "uint256"
        },
        {
          "internalType": "uint256",
          "name": "maxQuantity",
          "type": "uint256"
        },
        {
          "internalType": "bytes",
          "name": "SIGNATURE",
          "type": "bytes"
        }
      ],
      "name": "mintNormal",
      "outputs": [],
      "stateMutability": "payable",
      "type": "function"
    },
    {
      "inputs": [],
      "name": "name",
      "outputs": [
        {
          "internalType": "string",
          "name": "",
          "type": "string"
        }
      ],
      "stateMutability": "view",
      "type": "function"
    },
    {
      "inputs": [],
      "name": "normalSupply",
      "outputs": [
        {
          "internalType": "uint256",
          "name": "",
          "type": "uint256"
        }
      ],
      "stateMutability": "view",
      "type": "function"
    },
    {
      "inputs": [],
      "name": "owner",
      "outputs": [
        {
          "internalType": "address",
          "name": "",
          "type": "address"
        }
      ],
      "stateMutability": "view",
      "type": "function"
    },
    {
      "inputs": [
        {
          "internalType": "uint256",
          "name": "",
          "type": "uint256"
        }
      ],
      "name": "quantityLimit",
      "outputs": [
        {
          "internalType": "uint256",
          "name": "",
          "type": "uint256"
        }
      ],
      "stateMutability": "view",
      "type": "function"
    },
    {
      "inputs": [
        {
          "internalType": "address",
          "name": "from",
          "type": "address"
        },
        {
          "internalType": "address",
          "name": "to",
          "type": "address"
        },
        {
          "internalType": "uint256[]",
          "name": "ids",
          "type": "uint256[]"
        },
        {
          "internalType": "uint256[]",
          "name": "amounts",
          "type": "uint256[]"
        },
        {
          "internalType": "bytes",
          "name": "data",
          "type": "bytes"
        }
      ],
      "name": "safeBatchTransferFrom",
      "outputs": [],
      "stateMutability": "nonpayable",
      "type": "function"
    },
    {
      "inputs": [
        {
          "internalType": "address",
          "name": "from",
          "type": "address"
        },
        {
          "internalType": "address",
          "name": "to",
          "type": "address"
        },
        {
          "internalType": "uint256",
          "name": "id",
          "type": "uint256"
        },
        {
          "internalType": "uint256",
          "name": "amount",
          "type": "uint256"
        },
        {
          "internalType": "bytes",
          "name": "data",
          "type": "bytes"
        }
      ],
      "name": "safeTransferFrom",
      "outputs": [],
      "stateMutability": "nonpayable",
      "type": "function"
    },
    {
      "inputs": [],
      "name": "saleTimestamp",
      "outputs": [
        {
          "internalType": "uint256",
          "name": "",
          "type": "uint256"
        }
      ],
      "stateMutability": "view",
      "type": "function"
    },
    {
      "inputs": [
        {
          "internalType": "address",
          "name": "operator",
          "type": "address"
        },
        {
          "internalType": "bool",
          "name": "approved",
          "type": "bool"
        }
      ],
      "name": "setApprovalForAll",
      "outputs": [],
      "stateMutability": "nonpayable",
      "type": "function"
    },
    {
      "inputs": [
        {
          "internalType": "string",
          "name": "baseURI",
          "type": "string"
        }
      ],
      "name": "setBaseURI",
      "outputs": [],
      "stateMutability": "nonpayable",
      "type": "function"
    },
    {
      "inputs": [
        {
          "internalType": "bool",
          "name": "_burnStarted",
          "type": "bool"
        }
      ],
      "name": "setBurn",
      "outputs": [],
      "stateMutability": "nonpayable",
      "type": "function"
    },
    {
      "inputs": [
        {
          "internalType": "uint256",
          "name": "_auctionStartTimestamp",
          "type": "uint256"
        },
        {
          "internalType": "uint256",
          "name": "_auctionTimeStep",
          "type": "uint256"
        },
        {
          "internalType": "uint256",
          "name": "_auctionStartPrice",
          "type": "uint256"
        },
        {
          "internalType": "uint256",
          "name": "_auctionEndPrice",
          "type": "uint256"
        },
        {
          "internalType": "uint256",
          "name": "_auctionPriceStep",
          "type": "uint256"
        },
        {
          "internalType": "uint256",
          "name": "_auctionStepNumber",
          "type": "uint256"
        }
      ],
      "name": "setDutchAuction",
      "outputs": [],
      "stateMutability": "nonpayable",
      "type": "function"
    },
    {
      "inputs": [
        {
          "internalType": "uint256",
          "name": "_id",
          "type": "uint256"
        },
        {
          "internalType": "uint256",
          "name": "_MAX",
          "type": "uint256"
        }
      ],
      "name": "setIdLimit",
      "outputs": [],
      "stateMutability": "nonpayable",
      "type": "function"
    },
    {
      "inputs": [
        {
          "internalType": "address",
          "name": "_owner",
          "type": "address"
        }
      ],
      "name": "setOwner",
      "outputs": [],
      "stateMutability": "nonpayable",
      "type": "function"
    },
    {
      "inputs": [
        {
          "internalType": "bool",
          "name": "_hasSaleStarted",
          "type": "bool"
        },
        {
          "internalType": "bool",
          "name": "_hasClaimStarted",
          "type": "bool"
        },
        {
          "internalType": "bool",
          "name": "_hasAuctionStarted",
          "type": "bool"
        },
        {
          "internalType": "bool",
          "name": "_whitelistSwitch",
          "type": "bool"
        },
        {
          "internalType": "uint256",
          "name": "_saleTimestamp",
          "type": "uint256"
        }
      ],
      "name": "setSaleSwitch",
      "outputs": [],
      "stateMutability": "nonpayable",
      "type": "function"
    },
    {
      "inputs": [
        {
          "internalType": "uint256",
          "name": "_claimStageLimit",
          "type": "uint256"
        },
        {
          "internalType": "uint256",
          "name": "_auctionStageLimit",
          "type": "uint256"
        }
      ],
      "name": "setStageLimit",
      "outputs": [],
      "stateMutability": "nonpayable",
      "type": "function"
    },
    {
      "inputs": [
        {
          "internalType": "uint256",
          "name": "_MAX_NORMAL_TOKEN",
          "type": "uint256"
        },
        {
          "internalType": "uint256",
          "name": "_MAX_SPECIAL_TOKEN",
          "type": "uint256"
        },
        {
          "internalType": "uint256",
          "name": "_SPECIAL_CARD_CONDICTION",
          "type": "uint256"
        },
        {
          "internalType": "uint256",
          "name": "_MAX_ADDRESS_TOKEN",
          "type": "uint256"
        },
        {
          "internalType": "uint256",
          "name": "_specialCardId",
          "type": "uint256"
        }
      ],
      "name": "setTokenLimit",
      "outputs": [],
      "stateMutability": "nonpayable",
      "type": "function"
    },
    {
      "inputs": [
        {
          "internalType": "address",
          "name": "_treasury",
          "type": "address"
        }
      ],
      "name": "setTreasury",
      "outputs": [],
      "stateMutability": "nonpayable",
      "type": "function"
    },
    {
      "inputs": [
        {
          "internalType": "uint256",
          "name": "_price",
          "type": "uint256"
        }
      ],
      "name": "set_PRICE",
      "outputs": [],
      "stateMutability": "nonpayable",
      "type": "function"
    },
    {
      "inputs": [],
      "name": "specialCardId",
      "outputs": [
        {
          "internalType": "uint256",
          "name": "",
          "type": "uint256"
        }
      ],
      "stateMutability": "view",
      "type": "function"
    },
    {
      "inputs": [],
      "name": "specialSupply",
      "outputs": [
        {
          "internalType": "uint256",
          "name": "",
          "type": "uint256"
        }
      ],
      "stateMutability": "view",
      "type": "function"
    },
    {
      "inputs": [
        {
          "internalType": "bytes4",
          "name": "interfaceId",
          "type": "bytes4"
        }
      ],
      "name": "supportsInterface",
      "outputs": [
        {
          "internalType": "bool",
          "name": "",
          "type": "bool"
        }
      ],
      "stateMutability": "view",
      "type": "function"
    },
    {
      "inputs": [],
      "name": "symbol",
      "outputs": [
        {
          "internalType": "string",
          "name": "",
          "type": "string"
        }
      ],
      "stateMutability": "view",
      "type": "function"
    },
    {
      "inputs": [],
      "name": "totalSupply",
      "outputs": [
        {
          "internalType": "uint256",
          "name": "",
          "type": "uint256"
        }
      ],
      "stateMutability": "view",
      "type": "function"
    },
    {
      "inputs": [],
      "name": "treasury",
      "outputs": [
        {
          "internalType": "address",
          "name": "",
          "type": "address"
        }
      ],
      "stateMutability": "view",
      "type": "function"
    },
    {
      "inputs": [
        {
          "internalType": "uint256",
          "name": "",
          "type": "uint256"
        }
      ],
      "name": "uri",
      "outputs": [
        {
          "internalType": "string",
          "name": "",
          "type": "string"
        }
      ],
      "stateMutability": "view",
      "type": "function"
    },
    {
      "inputs": [
        {
          "internalType": "uint256",
          "name": "maxQuantity",
          "type": "uint256"
        },
        {
          "internalType": "bytes",
          "name": "SIGNATURE",
          "type": "bytes"
        }
      ],
      "name": "verify",
      "outputs": [
        {
          "internalType": "bool",
          "name": "",
          "type": "bool"
        }
      ],
      "stateMutability": "view",
      "type": "function"
    },
    {
      "inputs": [],
      "name": "whitelistSwitch",
      "outputs": [
        {
          "internalType": "bool",
          "name": "",
          "type": "bool"
        }
      ],
      "stateMutability": "view",
      "type": "function"
    },
    {
      "inputs": [],
      "name": "withdrawAll",
      "outputs": [],
      "stateMutability": "payable",
      "type": "function"
    }
  ],
  "transactionHash": "0x89f4000b6e980e853a0cebadc4f241ae9dc0f7983f0cb4bd7c4c944f034cf512",
  "args": [],
  "numDeployments": 2,
  "solcInputHash": "893a85c9dabbe512bd56540532039ebb",
  "bytecode": "0x6101606040526001610120819052605560f81b6101409081526200002791600391906200027b565b50604080518082019091526004808252631411955560e21b60209092019182526200005391816200027b565b5061089860058181556016600655600360075560085566071afd498d00006009556361e53010600a556000600b819055600c819055600d55601e600e55600f55601560105560118054785279246e3626cebe71a4c181382a50a71d2a415600000001016001600160c81b0319909116179055601280546001600160a01b031916735279246e3626cebe71a4c181382a50a71d2a4156179055348015620000f857600080fd5b5060405180606001604052806029815260200162003a69602991396040805180820182526006815265556e6e616d6560d01b60208083019182528351808501855260058152640312e302e360dc1b908201529151902060c08181527f06c015bd22b4c69690933c1058878ebdfef31f9aaae40bbe86d8a09fe1b2972c60e08190524660a081815286517f8b73c3c69bb8fe3d512ecc4cf759cc79239f7b179b0ffacaa9a75d522b39400f8188018190528189019690965260608101939093526080808401929092523083820152865180840390910181529190920190945283519390920192909220905261010052620001f18162000262565b5060015b601581101562000226576000818152601960205260409020606e9055806200021d816200035e565b915050620001f5565b5060155b602b8110156200025b576000818152601960205260409020600190558062000252816200035e565b9150506200022a565b5062000386565b8051620002779060029060208401906200027b565b5050565b828054620002899062000321565b90600052602060002090601f016020900481019282620002ad5760008555620002f8565b82601f10620002c857805160ff1916838001178555620002f8565b82800160010185558215620002f8579182015b82811115620002f8578251825591602001919060010190620002db565b50620003069291506200030a565b5090565b5b808211156200030657600081556001016200030b565b600181811c908216806200033657607f821691505b602082108114156200035857634e487b7160e01b600052602260045260246000fd5b50919050565b60006000198214156200037f57634e487b7160e01b81526011600452602481fd5b5060010190565b60805160a05160c05160e0516101005161369e620003cb60003960006126dd0152600061272c015260006127070152600061268b015260006126b4015261369e6000f3fe60806040526004361061034f5760003560e01c806385852ce4116101c6578063c4f9ff10116100f7578063e7e4346511610095578063f242432a1161006f578063f242432a1461095f578063f5298aca1461097f578063f5bb134e1461099f578063fbf76eb2146109b557600080fd5b8063e7e43465146108d6578063e985e9c5146108f6578063f0f442601461093f57600080fd5b8063d756985b116100d1578063d756985b14610867578063d7eef8651461087d578063dcb8101f14610893578063e2e771a4146108c057600080fd5b8063c4f9ff1014610828578063c6a96c8f1461083b578063c78225981461085157600080fd5b8063a04a6ac811610164578063b2a098d91161013e578063b2a098d9146107a4578063bcd25ee5146107d1578063bd55cf0d146107f2578063c44f81e21461081257600080fd5b8063a04a6ac814610758578063a22cb4651461076e578063a5b5665c1461078e57600080fd5b80638da5cb5b116101a05780638da5cb5b146106f05780639196eba51461071757806395d89b411461072d578063964dd2401461074257600080fd5b806385852ce4146106a4578063862a2b45146106c45780638d859f3e146106da57600080fd5b80632e1de27f116102a05780634ca4fb341161023e57806361d027b31161021857806361d027b3146106255780636456c2051461065d578063717bf3361461067d578063853828b61461069c57600080fd5b80634ca4fb34146105ab5780634e1273f4146105d857806355f804b31461060557600080fd5b80634698a3d81161027a5780634698a3d81461055457806348b5f2bc1461056a57806349b88e76146105805780634b30a9101461059657600080fd5b80632e1de27f146105015780632eb2c2d6146105145780634017b12f1461053457600080fd5b806313af40351161030d5780631c8b232d116102e75780631c8b232d1461048757806326df66ce146104a1578063271cb22f146104c15780632db218b6146104e157600080fd5b806313af40351461043157806318160ddd1461045157806319cb4a1c1461046757600080fd5b8062fdd58e1461035457806301ffc9a71461038757806306fdde03146103b75780630af012dd146103d95780630b07e4d1146103fb5780630e89341c14610411575b600080fd5b34801561036057600080fd5b5061037461036f366004612e32565b6109d7565b6040519081526020015b60405180910390f35b34801561039357600080fd5b506103a76103a2366004612fcd565b610a6e565b604051901515815260200161037e565b3480156103c357600080fd5b506103cc610ac0565b60405161037e9190613320565b3480156103e557600080fd5b506103f96103f43660046130a6565b610b52565b005b34801561040757600080fd5b5061037460055481565b34801561041d57600080fd5b506103cc61042c366004613053565b610b65565b34801561043d57600080fd5b506103f961044c366004612cb4565b610bf9565b34801561045d57600080fd5b50610374600b5481565b34801561047357600080fd5b506103f9610482366004613115565b610c2f565b34801561049357600080fd5b506011546103a79060ff1681565b3480156104ad57600080fd5b506011546103a79062010000900460ff1681565b3480156104cd57600080fd5b506103f96104dc3660046130a6565b610c4e565b3480156104ed57600080fd5b506103f96104fc366004612f72565b610c68565b6103f961050f36600461306b565b610cc4565b34801561052057600080fd5b506103f961052f366004612d00565b6110b2565b34801561054057600080fd5b506103f961054f366004612e5b565b611149565b34801561056057600080fd5b5061037460175481565b34801561057657600080fd5b50610374600c5481565b34801561058c57600080fd5b5061037460075481565b3480156105a257600080fd5b5061037461129e565b3480156105b757600080fd5b506103746105c6366004613053565b601a6020526000908152604090205481565b3480156105e457600080fd5b506105f86105f3366004612e8d565b611375565b60405161037e91906132df565b34801561061157600080fd5b506103f9610620366004613005565b6114d7565b34801561063157600080fd5b50601254610645906001600160a01b031681565b6040516001600160a01b03909116815260200161037e565b34801561066957600080fd5b506103f9610678366004613053565b6114eb565b34801561068957600080fd5b506011546103a790610100900460ff1681565b6103f96114f8565b3480156106b057600080fd5b506103a76106bf36600461306b565b611533565b3480156106d057600080fd5b5061037460085481565b3480156106e657600080fd5b5061037460095481565b3480156106fc57600080fd5b5060115461064590600160281b90046001600160a01b031681565b34801561072357600080fd5b5061037460145481565b34801561073957600080fd5b506103cc6115c5565b34801561074e57600080fd5b5061037460185481565b34801561076457600080fd5b5061037460165481565b34801561077a57600080fd5b506103f9610789366004612e09565b6115d4565b34801561079a57600080fd5b50610374600d5481565b3480156107b057600080fd5b506103746107bf366004612cb4565b601b6020526000908152604090205481565b3480156107dd57600080fd5b506011546103a7906301000000900460ff1681565b3480156107fe57600080fd5b506103f961080d366004612f58565b6116ab565b34801561081e57600080fd5b50610374600e5481565b6103f96108363660046130c7565b6116d3565b34801561084757600080fd5b5061037460135481565b34801561085d57600080fd5b50610374600a5481565b34801561087357600080fd5b5061037460155481565b34801561088957600080fd5b50610374600f5481565b34801561089f57600080fd5b506103746108ae366004613053565b60196020526000908152604090205481565b3480156108cc57600080fd5b5061037460105481565b3480156108e257600080fd5b506103f96108f136600461314f565b611b8a565b34801561090257600080fd5b506103a7610911366004612cce565b6001600160a01b03918216600090815260016020908152604080832093909416825291909152205460ff1690565b34801561094b57600080fd5b506103f961095a366004612cb4565b611baf565b34801561096b57600080fd5b506103f961097a366004612da6565b611bd9565b34801561098b57600080fd5b506103f961099a366004612e5b565b611c60565b3480156109ab57600080fd5b5061037460065481565b3480156109c157600080fd5b506011546103a790640100000000900460ff1681565b60006001600160a01b038316610a485760405162461bcd60e51b815260206004820152602b60248201527f455243313135353a2062616c616e636520717565727920666f7220746865207a60448201526a65726f206164647265737360a81b60648201526084015b60405180910390fd5b506000908152602081815260408083206001600160a01b03949094168352929052205490565b60006001600160e01b03198216636cdb3d1360e11b1480610a9f57506001600160e01b031982166303a24d0760e21b145b80610aba57506301ffc9a760e01b6001600160e01b03198316145b92915050565b606060038054610acf906134d8565b80601f0160208091040260200160405190810160405280929190818152602001828054610afb906134d8565b8015610b485780601f10610b1d57610100808354040283529160200191610b48565b820191906000526020600020905b815481529060010190602001808311610b2b57829003601f168201915b5050505050905090565b610b5a611d38565b600e91909155600f55565b606060028054610b74906134d8565b80601f0160208091040260200160405190810160405280929190818152602001828054610ba0906134d8565b8015610bed5780601f10610bc257610100808354040283529160200191610bed565b820191906000526020600020905b815481529060010190602001808311610bd057829003601f168201915b50505050509050919050565b610c01611d38565b601180546001600160a01b03909216600160281b0265010000000000600160c81b0319909216919091179055565b610c37611d38565b600594909455600692909255600755600855601055565b610c56611d38565b60009182526019602052604090912055565b610c70611d38565b6011805492151563010000000263ff0000001994151562010000029490941663ffff0000199515156101000261ff00199715159790971661ffff199094169390931795909517939093161717909155600a55565b323314610d085760405162461bcd60e51b815260206004820152601260248201527110d05313115497d254d7d0d3d395149050d560721b6044820152606401610a3f565b60115460ff610100909104161515600114610d5e5760405162461bcd60e51b815260206004820152601660248201527521b630b4b6903430b9903737ba1039ba30b93a32b21760511b6044820152606401610a3f565b600a54421015610da45760405162461bcd60e51b81526020600482015260116024820152704e4f545f494e5f434c41494d5f54494d4560781b6044820152606401610a3f565b600e546010541115610e0e5760405162461bcd60e51b815260206004820152602d60248201527f45786365656420746865207370656369616c206964206f6620636c61696d206160448201526c3a103a3434b99039ba30b3b29760991b6064820152608401610a3f565b610e188282611533565b610e645760405162461bcd60e51b815260206004820152601760248201527f4e6f7420656c696769626c6520666f7220636c61696d2e0000000000000000006044820152606401610a3f565b600060015b6015811015610ea157610e7c33826109d7565b15610e8f57610e8c826001613476565b91505b80610e9981613540565b915050610e69565b50600754811015610ef45760405162461bcd60e51b815260206004820152601760248201527f4e6f7420656e6f756768206e6f726d616c20636172642e0000000000000000006044820152606401610a3f565b6009543414610f155760405162461bcd60e51b8152600401610a3f9061337b565b600654600d54610f26906001611d8e565b1115610f745760405162461bcd60e51b815260206004820152601a60248201527f45786365656473204d41585f5350454349414c5f544f4b454e2e0000000000006044820152606401610a3f565b601054600090815260196020908152604080832054601a90925290912054610f9d906001611d8e565b1115610feb5760405162461bcd60e51b815260206004820152601a60248201527f45786365656473206964207175616e74697479206c696d69742e0000000000006044820152606401610a3f565b61100933601054600160405180602001604052806000815250611da1565b6010546000908152601a6020526040902054611026906001611d8e565b6010546000908152601a6020526040902055600d54611046906001611d8e565b600d55600b54611057906001611d8e565b600b8190556010546040517fb32c32014221c522f5b713daa9a1df4bd21450f8b5c763ba3ca01f088f95c8649261109492339290916001916132b9565b60405180910390a16010546110aa906001613476565b601055505050565b6001600160a01b0385163314806110ce57506110ce8533610911565b6111355760405162461bcd60e51b815260206004820152603260248201527f455243313135353a207472616e736665722063616c6c6572206973206e6f74206044820152711bdddb995c881b9bdc88185c1c1c9bdd995960721b6064820152608401610a3f565b6111428585858585611eab565b5050505050565b611151611d38565b6000811180156111845750600082815260196020908152604080832054601a909252909120546111819083611d8e565b11155b6111d05760405162461bcd60e51b815260206004820152601a60248201527f45786365656473206964207175616e74697479206c696d69742e0000000000006044820152606401610a3f565b6111eb83838360405180602001604052806000815250611da1565b601482111561120957600d546112019082611d8e565b600d5561121a565b600c546112169082611d8e565b600c555b600d54600c5461122a9190613476565b600b556000828152601a60205260409020546112469082611d8e565b6000838152601a60205260409081902091909155600b5490517fb32c32014221c522f5b713daa9a1df4bd21450f8b5c763ba3ca01f088f95c8649161129191869186918691906132b9565b60405180910390a1505050565b60115460009062010000900460ff1615156001146112f35760405162461bcd60e51b815260206004820152601260248201527141554354494f4e5f4e4f545f41435449564560701b6044820152606401610a3f565b601354421015611304575060155490565b60006014546013544261131791906134c1565b611321919061348e565b905060185481111561133257506018545b60175461133f90826134a2565b60155411156113685760175461135590826134a2565b60155461136291906134c1565b91505090565b505060165490565b505b90565b606081518351146113da5760405162461bcd60e51b815260206004820152602960248201527f455243313135353a206163636f756e747320616e6420696473206c656e677468604482015268040dad2e6dac2e8c6d60bb1b6064820152608401610a3f565b6000835167ffffffffffffffff81111561140457634e487b7160e01b600052604160045260246000fd5b60405190808252806020026020018201604052801561142d578160200160208202803683370190505b50905060005b84518110156114cf5761149485828151811061145f57634e487b7160e01b600052603260045260246000fd5b602002602001015185838151811061148757634e487b7160e01b600052603260045260246000fd5b60200260200101516109d7565b8282815181106114b457634e487b7160e01b600052603260045260246000fd5b60209081029190910101526114c881613540565b9050611433565b509392505050565b6114df611d38565b6114e88161209c565b50565b6114f3611d38565b600955565b611500611d38565b6012546040516001600160a01b03909116904780156108fc02916000818181858888f1935050505061153157600080fd5b565b6000806115a461159e7f182854de6a51f3818344a7eb784b9d55c1e6d2d20c9f9aea309f5daaaaddfec1336040805160208101939093526001600160a01b039091169082015260608101879052608001604051602081830303815290604052805190602001206120b3565b84612101565b601154600160281b90046001600160a01b0390811691161491505092915050565b606060048054610acf906134d8565b336001600160a01b038316141561163f5760405162461bcd60e51b815260206004820152602960248201527f455243313135353a2073657474696e6720617070726f76616c20737461747573604482015268103337b91039b2b63360b91b6064820152608401610a3f565b3360008181526001602090815260408083206001600160a01b03871680855290835292819020805460ff191686151590811790915590519081529192917f17307eab39ab6107e8899845ad3d59bd9653f200f220920489ca2b5937696c31910160405180910390a35050565b6116b3611d38565b601180549115156401000000000264ff0000000019909216919091179055565b60115460ff16151560011461171c5760405162461bcd60e51b815260206004820152600f60248201526e53414c455f4e4f545f41435449564560881b6044820152606401610a3f565b600a544210156117615760405162461bcd60e51b815260206004820152601060248201526f4e4f545f494e5f53414c455f54494d4560801b6044820152606401610a3f565b3233146117a55760405162461bcd60e51b815260206004820152601260248201527110d05313115497d254d7d0d3d395149050d560721b6044820152606401610a3f565b6011546301000000900460ff16151560011415611818576117c68282611533565b6118125760405162461bcd60e51b815260206004820152601b60248201527f4e6f7420656c696769626c6520666f722077686974656c6973742e00000000006044820152606401610a3f565b60088290555b60115462010000900460ff161515600114156118fa576118408361183a61129e565b9061211d565b34101561188f5760405162461bcd60e51b815260206004820152601f60248201527f45746865722076616c75652073656e74206973206e6f7420656e6f7567682e006044820152606401610a3f565b6000831180156118ad5750600f54600c546118aa9085611d8e565b11155b6118f55760405162461bcd60e51b815260206004820152601960248201527822bc31b2b2b2399026a0ac2fa727a926a0a62faa27a5a2a71760391b6044820152606401610a3f565b611925565b600954611907908461211d565b34146119255760405162461bcd60e51b8152600401610a3f9061337b565b6000831180156119435750600554600c546119409085611d8e565b11155b61198b5760405162461bcd60e51b815260206004820152601960248201527822bc31b2b2b2399026a0ac2fa727a926a0a62faa27a5a2a71760391b6044820152606401610a3f565b600854336000908152601b60205260409020546119a89085611d8e565b11156119e95760405162461bcd60e51b815260206004820152601060248201526f22bc32b2b2399038bab0b73a34ba3c9760811b6044820152606401610a3f565b60008060005b85811015611b82576040516bffffffffffffffffffffffff193360601b166020820152603481018290524260548201526000906074016040516020818303038152906040529050611a3f81612129565b9350611a4c846001613476565b92505b600083815260196020908152604080832054601a90925290912054611a75906001611d8e565b1115611a9b57611a86836001613476565b92506014831115611a9657600192505b611a4f565b611ab73384600160405180602001604052806000815250611da1565b6000838152601a6020526040902054611ad1906001611d8e565b6000848152601a6020526040902055600c54611aee906001611d8e565b600c55600b54611aff906001611d8e565b600b55336000908152601b6020526040902054611b1c9088611d8e565b336000818152601b60205260409081902092909255600b5491517fb32c32014221c522f5b713daa9a1df4bd21450f8b5c763ba3ca01f088f95c86492611b67929187916001916132b9565b60405180910390a15080611b7a81613540565b9150506119ef565b505050505050565b611b92611d38565b601395909555601493909355601591909155601655601755601855565b611bb7611d38565b601280546001600160a01b0319166001600160a01b0392909216919091179055565b6001600160a01b038516331480611bf55750611bf58533610911565b611c535760405162461bcd60e51b815260206004820152602960248201527f455243313135353a2063616c6c6572206973206e6f74206f776e6572206e6f7260448201526808185c1c1c9bdd995960ba1b6064820152608401610a3f565b6111428585858585612162565b601154640100000000900460ff161515600114611cb65760405162461bcd60e51b8152602060048201526014602482015273213ab937103430b9b713ba1039ba30b93a32b21760611b6044820152606401610a3f565b6001600160a01b038316321480611cd25750611cd28333610911565b611d285760405162461bcd60e51b815260206004820152602160248201527f43616c6c6572206973206e6f74206f776e6572206e6f7220617070726f7665646044820152601760f91b6064820152608401610a3f565b611d3383838361227f565b505050565b601154600160281b90046001600160a01b031633146115315760405162461bcd60e51b81526020600482015260126024820152712cb7ba9030b932903737ba1037bbb732b91760711b6044820152606401610a3f565b6000611d9a8284613476565b9392505050565b6001600160a01b038416611e015760405162461bcd60e51b815260206004820152602160248201527f455243313135353a206d696e7420746f20746865207a65726f206164647265736044820152607360f81b6064820152608401610a3f565b33611e1b81600087611e12886123f9565b611142886123f9565b6000848152602081815260408083206001600160a01b038916845290915281208054859290611e4b908490613476565b909155505060408051858152602081018590526001600160a01b0380881692600092918516917fc3d58168c5ae7397731d063d5bbf3d657854427343f4c083240f7aacaa2d0f62910160405180910390a461114281600087878787612452565b8151835114611f0d5760405162461bcd60e51b815260206004820152602860248201527f455243313135353a2069647320616e6420616d6f756e7473206c656e677468206044820152670dad2e6dac2e8c6d60c31b6064820152608401610a3f565b6001600160a01b038416611f335760405162461bcd60e51b8152600401610a3f906133c3565b3360005b8451811015612036576000858281518110611f6257634e487b7160e01b600052603260045260246000fd5b602002602001015190506000858381518110611f8e57634e487b7160e01b600052603260045260246000fd5b602090810291909101810151600084815280835260408082206001600160a01b038e168352909352919091205490915081811015611fde5760405162461bcd60e51b8152600401610a3f90613408565b6000838152602081815260408083206001600160a01b038e8116855292528083208585039055908b1682528120805484929061201b908490613476565b925050819055505050508061202f90613540565b9050611f37565b50846001600160a01b0316866001600160a01b0316826001600160a01b03167f4a39dc06d4c0dbc64b70af90fd698a233a518aa5d07e595d983b8c0526c8f7fb87876040516120869291906132f2565b60405180910390a4611b828187878787876125bd565b80516120af906002906020840190612b07565b5050565b6000610aba6120c0612687565b8360405161190160f01b6020820152602281018390526042810182905260009060620160405160208183030381529060405280519060200120905092915050565b6000806000612110858561277a565b915091506114cf816127ea565b6000611d9a82846134a2565b6000808260405160200161213d9190613320565b60408051601f1981840301815291905280516020909101209050611d9a60148261355b565b6001600160a01b0384166121885760405162461bcd60e51b8152600401610a3f906133c3565b33612198818787611e12886123f9565b6000848152602081815260408083206001600160a01b038a168452909152902054838110156121d95760405162461bcd60e51b8152600401610a3f90613408565b6000858152602081815260408083206001600160a01b038b8116855292528083208785039055908816825281208054869290612216908490613476565b909155505060408051868152602081018690526001600160a01b03808916928a821692918616917fc3d58168c5ae7397731d063d5bbf3d657854427343f4c083240f7aacaa2d0f62910160405180910390a4612276828888888888612452565b50505050505050565b6001600160a01b0383166122e15760405162461bcd60e51b815260206004820152602360248201527f455243313135353a206275726e2066726f6d20746865207a65726f206164647260448201526265737360e81b6064820152608401610a3f565b33612311818560006122f2876123f9565b6122fb876123f9565b5050604080516020810190915260009052505050565b6000838152602081815260408083206001600160a01b03881684529091529020548281101561238e5760405162461bcd60e51b8152602060048201526024808201527f455243313135353a206275726e20616d6f756e7420657863656564732062616c604482015263616e636560e01b6064820152608401610a3f565b6000848152602081815260408083206001600160a01b03898116808652918452828520888703905582518981529384018890529092908616917fc3d58168c5ae7397731d063d5bbf3d657854427343f4c083240f7aacaa2d0f62910160405180910390a45050505050565b6040805160018082528183019092526060916000919060208083019080368337019050509050828160008151811061244157634e487b7160e01b600052603260045260246000fd5b602090810291909101015292915050565b6001600160a01b0384163b15611b825760405163f23a6e6160e01b81526001600160a01b0385169063f23a6e61906124969089908990889088908890600401613274565b602060405180830381600087803b1580156124b057600080fd5b505af19250505080156124e0575060408051601f3d908101601f191682019092526124dd91810190612fe9565b60015b61258d576124ec6135b1565b806308c379a0141561252657506125016135c8565b8061250c5750612528565b8060405162461bcd60e51b8152600401610a3f9190613320565b505b60405162461bcd60e51b815260206004820152603460248201527f455243313135353a207472616e7366657220746f206e6f6e20455243313135356044820152732932b1b2b4bb32b91034b6b83632b6b2b73a32b960611b6064820152608401610a3f565b6001600160e01b0319811663f23a6e6160e01b146122765760405162461bcd60e51b8152600401610a3f90613333565b6001600160a01b0384163b15611b825760405163bc197c8160e01b81526001600160a01b0385169063bc197c81906126019089908990889088908890600401613216565b602060405180830381600087803b15801561261b57600080fd5b505af192505050801561264b575060408051601f3d908101601f1916820190925261264891810190612fe9565b60015b612657576124ec6135b1565b6001600160e01b0319811663bc197c8160e01b146122765760405162461bcd60e51b8152600401610a3f90613333565b60007f00000000000000000000000000000000000000000000000000000000000000004614156126d657507f000000000000000000000000000000000000000000000000000000000000000090565b50604080517f00000000000000000000000000000000000000000000000000000000000000006020808301919091527f0000000000000000000000000000000000000000000000000000000000000000828401527f000000000000000000000000000000000000000000000000000000000000000060608301524660808301523060a0808401919091528351808403909101815260c0909201909252805191012090565b6000808251604114156127b15760208301516040840151606085015160001a6127a5878285856129eb565b945094505050506127e3565b8251604014156127db57602083015160408401516127d0868383612ad8565b9350935050506127e3565b506000905060025b9250929050565b600081600481111561280c57634e487b7160e01b600052602160045260246000fd5b14156128155750565b600181600481111561283757634e487b7160e01b600052602160045260246000fd5b14156128855760405162461bcd60e51b815260206004820152601860248201527f45434453413a20696e76616c6964207369676e617475726500000000000000006044820152606401610a3f565b60028160048111156128a757634e487b7160e01b600052602160045260246000fd5b14156128f55760405162461bcd60e51b815260206004820152601f60248201527f45434453413a20696e76616c6964207369676e6174757265206c656e677468006044820152606401610a3f565b600381600481111561291757634e487b7160e01b600052602160045260246000fd5b14156129705760405162461bcd60e51b815260206004820152602260248201527f45434453413a20696e76616c6964207369676e6174757265202773272076616c604482015261756560f01b6064820152608401610a3f565b600481600481111561299257634e487b7160e01b600052602160045260246000fd5b14156114e85760405162461bcd60e51b815260206004820152602260248201527f45434453413a20696e76616c6964207369676e6174757265202776272076616c604482015261756560f01b6064820152608401610a3f565b6000807f7fffffffffffffffffffffffffffffff5d576e7357a4501ddfe92f46681b20a0831115612a225750600090506003612acf565b8460ff16601b14158015612a3a57508460ff16601c14155b15612a4b5750600090506004612acf565b6040805160008082526020820180845289905260ff881692820192909252606081018690526080810185905260019060a0016020604051602081039080840390855afa158015612a9f573d6000803e3d6000fd5b5050604051601f1901519150506001600160a01b038116612ac857600060019250925050612acf565b9150600090505b94509492505050565b6000806001600160ff1b03831660ff84901c601b01612af9878288856129eb565b935093505050935093915050565b828054612b13906134d8565b90600052602060002090601f016020900481019282612b355760008555612b7b565b82601f10612b4e57805160ff1916838001178555612b7b565b82800160010185558215612b7b579182015b82811115612b7b578251825591602001919060010190612b60565b506113709291505b808211156113705760008155600101612b83565b600067ffffffffffffffff831115612bb157612bb161359b565b604051612bc8601f8501601f191660200182613513565b809150838152848484011115612bdd57600080fd5b83836020830137600060208583010152509392505050565b80356001600160a01b0381168114612c0c57600080fd5b919050565b600082601f830112612c21578081fd5b81356020612c2e82613452565b604051612c3b8282613513565b8381528281019150858301600585901b87018401881015612c5a578586fd5b855b85811015612c7857813584529284019290840190600101612c5c565b5090979650505050505050565b80358015158114612c0c57600080fd5b600082601f830112612ca5578081fd5b611d9a83833560208501612b97565b600060208284031215612cc5578081fd5b611d9a82612bf5565b60008060408385031215612ce0578081fd5b612ce983612bf5565b9150612cf760208401612bf5565b90509250929050565b600080600080600060a08688031215612d17578081fd5b612d2086612bf5565b9450612d2e60208701612bf5565b9350604086013567ffffffffffffffff80821115612d4a578283fd5b612d5689838a01612c11565b94506060880135915080821115612d6b578283fd5b612d7789838a01612c11565b93506080880135915080821115612d8c578283fd5b50612d9988828901612c95565b9150509295509295909350565b600080600080600060a08688031215612dbd578081fd5b612dc686612bf5565b9450612dd460208701612bf5565b93506040860135925060608601359150608086013567ffffffffffffffff811115612dfd578182fd5b612d9988828901612c95565b60008060408385031215612e1b578182fd5b612e2483612bf5565b9150612cf760208401612c85565b60008060408385031215612e44578182fd5b612e4d83612bf5565b946020939093013593505050565b600080600060608486031215612e6f578283fd5b612e7884612bf5565b95602085013595506040909401359392505050565b60008060408385031215612e9f578182fd5b823567ffffffffffffffff80821115612eb6578384fd5b818501915085601f830112612ec9578384fd5b81356020612ed682613452565b604051612ee38282613513565b8381528281019150858301600585901b870184018b1015612f02578889fd5b8896505b84871015612f2b57612f1781612bf5565b835260019690960195918301918301612f06565b5096505086013592505080821115612f41578283fd5b50612f4e85828601612c11565b9150509250929050565b600060208284031215612f69578081fd5b611d9a82612c85565b600080600080600060a08688031215612f89578283fd5b612f9286612c85565b9450612fa060208701612c85565b9350612fae60408701612c85565b9250612fbc60608701612c85565b949793965091946080013592915050565b600060208284031215612fde578081fd5b8135611d9a81613652565b600060208284031215612ffa578081fd5b8151611d9a81613652565b600060208284031215613016578081fd5b813567ffffffffffffffff81111561302c578182fd5b8201601f8101841361303c578182fd5b61304b84823560208401612b97565b949350505050565b600060208284031215613064578081fd5b5035919050565b6000806040838503121561307d578182fd5b82359150602083013567ffffffffffffffff81111561309a578182fd5b612f4e85828601612c95565b600080604083850312156130b8578182fd5b50508035926020909101359150565b6000806000606084860312156130db578081fd5b8335925060208401359150604084013567ffffffffffffffff8111156130ff578182fd5b61310b86828701612c95565b9150509250925092565b600080600080600060a0868803121561312c578283fd5b505083359560208501359550604085013594606081013594506080013592509050565b60008060008060008060c08789031215613167578384fd5b505084359660208601359650604086013595606081013595506080810135945060a0013592509050565b6000815180845260208085019450808401835b838110156131c0578151875295820195908201906001016131a4565b509495945050505050565b60008151808452815b818110156131f0576020818501810151868301820152016131d4565b818111156132015782602083870101525b50601f01601f19169290920160200192915050565b6001600160a01b0386811682528516602082015260a06040820181905260009061324290830186613191565b82810360608401526132548186613191565b9050828103608084015261326881856131cb565b98975050505050505050565b6001600160a01b03868116825285166020820152604081018490526060810183905260a0608082018190526000906132ae908301846131cb565b979650505050505050565b6001600160a01b0394909416845260208401929092526040830152606082015260800190565b602081526000611d9a6020830184613191565b6040815260006133056040830185613191565b82810360208401526133178185613191565b95945050505050565b602081526000611d9a60208301846131cb565b60208082526028908201527f455243313135353a204552433131353552656365697665722072656a656374656040820152676420746f6b656e7360c01b606082015260800190565b60208082526028908201527f45746865722076616c75652073656e74206973206e6f7420657175616c2074686040820152673290383934b1b29760c11b606082015260800190565b60208082526025908201527f455243313135353a207472616e7366657220746f20746865207a65726f206164604082015264647265737360d81b606082015260800190565b6020808252602a908201527f455243313135353a20696e73756666696369656e742062616c616e636520666f60408201526939103a3930b739b332b960b11b606082015260800190565b600067ffffffffffffffff82111561346c5761346c61359b565b5060051b60200190565b600082198211156134895761348961356f565b500190565b60008261349d5761349d613585565b500490565b60008160001904831182151516156134bc576134bc61356f565b500290565b6000828210156134d3576134d361356f565b500390565b600181811c908216806134ec57607f821691505b6020821081141561350d57634e487b7160e01b600052602260045260246000fd5b50919050565b601f8201601f1916810167ffffffffffffffff811182821017156135395761353961359b565b6040525050565b60006000198214156135545761355461356f565b5060010190565b60008261356a5761356a613585565b500690565b634e487b7160e01b600052601160045260246000fd5b634e487b7160e01b600052601260045260246000fd5b634e487b7160e01b600052604160045260246000fd5b600060033d111561137257600481823e5160e01c90565b600060443d10156135d65790565b6040516003193d81016004833e81513d67ffffffffffffffff816024840111818411171561360657505050505090565b828501915081518181111561361e5750505050505090565b843d87010160208285010111156136385750505050505090565b61364760208286010187613513565b509095945050505050565b6001600160e01b0319811681146114e857600080fdfea2646970667358221220a53610c9e1a0925deef594d409ffd8d7407194bd4ba62c1d3395587f1f1cd86064736f6c6343000804003368747470733a2f2f6170692e756e6e616d65746f6b656e2e636f6d2f4d657461646174612f7b69647d",
  "devdoc": {
    "kind": "dev",
    "methods": {
      "balanceOf(address,uint256)": {
        "details": "See {IERC1155-balanceOf}. Requirements: - `account` cannot be the zero address."
      },
      "balanceOfBatch(address[],uint256[])": {
        "details": "See {IERC1155-balanceOfBatch}. Requirements: - `accounts` and `ids` must have the same length."
      },
      "isApprovedForAll(address,address)": {
        "details": "See {IERC1155-isApprovedForAll}."
      },
      "safeBatchTransferFrom(address,address,uint256[],uint256[],bytes)": {
        "details": "See {IERC1155-safeBatchTransferFrom}."
      },
      "safeTransferFrom(address,address,uint256,uint256,bytes)": {
        "details": "See {IERC1155-safeTransferFrom}."
      },
      "setApprovalForAll(address,bool)": {
        "details": "See {IERC1155-setApprovalForAll}."
      },
      "supportsInterface(bytes4)": {
        "details": "See {IERC165-supportsInterface}."
      },
      "uri(uint256)": {
        "details": "See {IERC1155MetadataURI-uri}. This implementation returns the same URI for *all* token types. It relies on the token type ID substitution mechanism https://eips.ethereum.org/EIPS/eip-1155#metadata[defined in the EIP]. Clients calling this function must replace the `\\{id\\}` substring with the actual token type ID."
      }
    },
    "version": 1
  },
  "userdoc": {
    "kind": "user",
    "methods": {},
    "version": 1
  },
  "storageLayout": {
    "storage": [
      {
        "astId": 25,
        "contract": "contracts/Unname.sol:Unname",
        "label": "_balances",
        "offset": 0,
        "slot": "0",
        "type": "t_mapping(t_uint256,t_mapping(t_address,t_uint256))"
      },
      {
        "astId": 31,
        "contract": "contracts/Unname.sol:Unname",
        "label": "_operatorApprovals",
        "offset": 0,
        "slot": "1",
        "type": "t_mapping(t_address,t_mapping(t_address,t_bool))"
      },
      {
        "astId": 33,
        "contract": "contracts/Unname.sol:Unname",
        "label": "_uri",
        "offset": 0,
        "slot": "2",
        "type": "t_string_storage"
      },
      {
        "astId": 2654,
        "contract": "contracts/Unname.sol:Unname",
        "label": "_name",
        "offset": 0,
        "slot": "3",
        "type": "t_string_storage"
      },
      {
        "astId": 2657,
        "contract": "contracts/Unname.sol:Unname",
        "label": "_symbol",
        "offset": 0,
        "slot": "4",
        "type": "t_string_storage"
      },
      {
        "astId": 2660,
        "contract": "contracts/Unname.sol:Unname",
        "label": "MAX_NORMAL_TOKEN",
        "offset": 0,
        "slot": "5",
        "type": "t_uint256"
      },
      {
        "astId": 2663,
        "contract": "contracts/Unname.sol:Unname",
        "label": "MAX_SPECIAL_TOKEN",
        "offset": 0,
        "slot": "6",
        "type": "t_uint256"
      },
      {
        "astId": 2666,
        "contract": "contracts/Unname.sol:Unname",
        "label": "SPECIAL_CARD_CONDICTION",
        "offset": 0,
        "slot": "7",
        "type": "t_uint256"
      },
      {
        "astId": 2669,
        "contract": "contracts/Unname.sol:Unname",
        "label": "MAX_ADDRESS_TOKEN",
        "offset": 0,
        "slot": "8",
        "type": "t_uint256"
      },
      {
        "astId": 2672,
        "contract": "contracts/Unname.sol:Unname",
        "label": "PRICE",
        "offset": 0,
        "slot": "9",
        "type": "t_uint256"
      },
      {
        "astId": 2675,
        "contract": "contracts/Unname.sol:Unname",
        "label": "saleTimestamp",
        "offset": 0,
        "slot": "10",
        "type": "t_uint256"
      },
      {
        "astId": 2678,
        "contract": "contracts/Unname.sol:Unname",
        "label": "totalSupply",
        "offset": 0,
        "slot": "11",
        "type": "t_uint256"
      },
      {
        "astId": 2681,
        "contract": "contracts/Unname.sol:Unname",
        "label": "normalSupply",
        "offset": 0,
        "slot": "12",
        "type": "t_uint256"
      },
      {
        "astId": 2684,
        "contract": "contracts/Unname.sol:Unname",
        "label": "specialSupply",
        "offset": 0,
        "slot": "13",
        "type": "t_uint256"
      },
      {
        "astId": 2687,
        "contract": "contracts/Unname.sol:Unname",
        "label": "claimStageLimit",
        "offset": 0,
        "slot": "14",
        "type": "t_uint256"
      },
      {
        "astId": 2690,
        "contract": "contracts/Unname.sol:Unname",
        "label": "auctionStageLimit",
        "offset": 0,
        "slot": "15",
        "type": "t_uint256"
      },
      {
        "astId": 2693,
        "contract": "contracts/Unname.sol:Unname",
        "label": "specialCardId",
        "offset": 0,
        "slot": "16",
        "type": "t_uint256"
      },
      {
        "astId": 2696,
        "contract": "contracts/Unname.sol:Unname",
        "label": "hasSaleStarted",
        "offset": 0,
        "slot": "17",
        "type": "t_bool"
      },
      {
        "astId": 2699,
        "contract": "contracts/Unname.sol:Unname",
        "label": "hasClaimStarted",
        "offset": 1,
        "slot": "17",
        "type": "t_bool"
      },
      {
        "astId": 2702,
        "contract": "contracts/Unname.sol:Unname",
        "label": "hasAuctionStarted",
        "offset": 2,
        "slot": "17",
        "type": "t_bool"
      },
      {
        "astId": 2705,
        "contract": "contracts/Unname.sol:Unname",
        "label": "whitelistSwitch",
        "offset": 3,
        "slot": "17",
        "type": "t_bool"
      },
      {
        "astId": 2708,
        "contract": "contracts/Unname.sol:Unname",
        "label": "burnStarted",
        "offset": 4,
        "slot": "17",
        "type": "t_bool"
      },
      {
        "astId": 2711,
        "contract": "contracts/Unname.sol:Unname",
        "label": "owner",
        "offset": 5,
        "slot": "17",
        "type": "t_address"
      },
      {
        "astId": 2714,
        "contract": "contracts/Unname.sol:Unname",
        "label": "treasury",
        "offset": 0,
        "slot": "18",
        "type": "t_address"
      },
      {
        "astId": 2716,
        "contract": "contracts/Unname.sol:Unname",
        "label": "auctionStartTimestamp",
        "offset": 0,
        "slot": "19",
        "type": "t_uint256"
      },
      {
        "astId": 2718,
        "contract": "contracts/Unname.sol:Unname",
        "label": "auctionTimeStep",
        "offset": 0,
        "slot": "20",
        "type": "t_uint256"
      },
      {
        "astId": 2720,
        "contract": "contracts/Unname.sol:Unname",
        "label": "auctionStartPrice",
        "offset": 0,
        "slot": "21",
        "type": "t_uint256"
      },
      {
        "astId": 2722,
        "contract": "contracts/Unname.sol:Unname",
        "label": "auctionEndPrice",
        "offset": 0,
        "slot": "22",
        "type": "t_uint256"
      },
      {
        "astId": 2724,
        "contract": "contracts/Unname.sol:Unname",
        "label": "auctionPriceStep",
        "offset": 0,
        "slot": "23",
        "type": "t_uint256"
      },
      {
        "astId": 2726,
        "contract": "contracts/Unname.sol:Unname",
        "label": "auctionStepNumber",
        "offset": 0,
        "slot": "24",
        "type": "t_uint256"
      },
      {
        "astId": 2730,
        "contract": "contracts/Unname.sol:Unname",
        "label": "quantityLimit",
        "offset": 0,
        "slot": "25",
        "type": "t_mapping(t_uint256,t_uint256)"
      },
      {
        "astId": 2734,
        "contract": "contracts/Unname.sol:Unname",
        "label": "idHasMinted",
        "offset": 0,
        "slot": "26",
        "type": "t_mapping(t_uint256,t_uint256)"
      },
      {
        "astId": 2738,
        "contract": "contracts/Unname.sol:Unname",
        "label": "addressHasMinted",
        "offset": 0,
        "slot": "27",
        "type": "t_mapping(t_address,t_uint256)"
      }
    ],
    "types": {
      "t_address": {
        "encoding": "inplace",
        "label": "address",
        "numberOfBytes": "20"
      },
      "t_bool": {
        "encoding": "inplace",
        "label": "bool",
        "numberOfBytes": "1"
      },
      "t_mapping(t_address,t_bool)": {
        "encoding": "mapping",
        "key": "t_address",
        "label": "mapping(address => bool)",
        "numberOfBytes": "32",
        "value": "t_bool"
      },
      "t_mapping(t_address,t_mapping(t_address,t_bool))": {
        "encoding": "mapping",
        "key": "t_address",
        "label": "mapping(address => mapping(address => bool))",
        "numberOfBytes": "32",
        "value": "t_mapping(t_address,t_bool)"
      },
      "t_mapping(t_address,t_uint256)": {
        "encoding": "mapping",
        "key": "t_address",
        "label": "mapping(address => uint256)",
        "numberOfBytes": "32",
        "value": "t_uint256"
      },
      "t_mapping(t_uint256,t_mapping(t_address,t_uint256))": {
        "encoding": "mapping",
        "key": "t_uint256",
        "label": "mapping(uint256 => mapping(address => uint256))",
        "numberOfBytes": "32",
        "value": "t_mapping(t_address,t_uint256)"
      },
      "t_mapping(t_uint256,t_uint256)": {
        "encoding": "mapping",
        "key": "t_uint256",
        "label": "mapping(uint256 => uint256)",
        "numberOfBytes": "32",
        "value": "t_uint256"
      },
      "t_string_storage": {
        "encoding": "bytes",
        "label": "string",
        "numberOfBytes": "32"
      },
      "t_uint256": {
        "encoding": "inplace",
        "label": "uint256",
        "numberOfBytes": "32"
      }
    }
  }
}