{
  "address": "0x96332840c5Aa2F2F52C5ad60EeAaa9f72D795a0a",
  "abi": [
    {
      "inputs": [],
      "stateMutability": "nonpayable",
      "type": "constructor"
    },
    {
      "anonymous": false,
      "inputs": [
        {
          "indexed": true,
          "internalType": "address",
          "name": "account",
          "type": "address"
        },
        {
          "indexed": true,
          "internalType": "address",
          "name": "operator",
          "type": "address"
        },
        {
          "indexed": false,
          "internalType": "bool",
          "name": "approved",
          "type": "bool"
        }
      ],
      "name": "ApprovalForAll",
      "type": "event"
    },
    {
      "anonymous": false,
      "inputs": [
        {
          "indexed": true,
          "internalType": "address",
          "name": "operator",
          "type": "address"
        },
        {
          "indexed": true,
          "internalType": "address",
          "name": "from",
          "type": "address"
        },
        {
          "indexed": true,
          "internalType": "address",
          "name": "to",
          "type": "address"
        },
        {
          "indexed": false,
          "internalType": "uint256[]",
          "name": "ids",
          "type": "uint256[]"
        },
        {
          "indexed": false,
          "internalType": "uint256[]",
          "name": "values",
          "type": "uint256[]"
        }
      ],
      "name": "TransferBatch",
      "type": "event"
    },
    {
      "anonymous": false,
      "inputs": [
        {
          "indexed": true,
          "internalType": "address",
          "name": "operator",
          "type": "address"
        },
        {
          "indexed": true,
          "internalType": "address",
          "name": "from",
          "type": "address"
        },
        {
          "indexed": true,
          "internalType": "address",
          "name": "to",
          "type": "address"
        },
        {
          "indexed": false,
          "internalType": "uint256",
          "name": "id",
          "type": "uint256"
        },
        {
          "indexed": false,
          "internalType": "uint256",
          "name": "value",
          "type": "uint256"
        }
      ],
      "name": "TransferSingle",
      "type": "event"
    },
    {
      "anonymous": false,
      "inputs": [
        {
          "indexed": false,
          "internalType": "string",
          "name": "value",
          "type": "string"
        },
        {
          "indexed": true,
          "internalType": "uint256",
          "name": "id",
          "type": "uint256"
        }
      ],
      "name": "URI",
      "type": "event"
    },
    {
      "anonymous": false,
      "inputs": [
        {
          "indexed": false,
          "internalType": "address",
          "name": "owner",
          "type": "address"
        },
        {
          "indexed": false,
          "internalType": "uint256",
          "name": "id",
          "type": "uint256"
        },
        {
          "indexed": false,
          "internalType": "uint256",
          "name": "quantity",
          "type": "uint256"
        },
        {
          "indexed": false,
          "internalType": "uint256",
          "name": "totalSupply",
          "type": "uint256"
        }
      ],
      "name": "mintEvent",
      "type": "event"
    },
    {
      "inputs": [],
      "name": "MAX_ADDRESS_TOKEN",
      "outputs": [
        {
          "internalType": "uint256",
          "name": "",
          "type": "uint256"
        }
      ],
      "stateMutability": "view",
      "type": "function"
    },
    {
      "inputs": [],
      "name": "MAX_NORMAL_TOKEN",
      "outputs": [
        {
          "internalType": "uint256",
          "name": "",
          "type": "uint256"
        }
      ],
      "stateMutability": "view",
      "type": "function"
    },
    {
      "inputs": [],
      "name": "MAX_SPECIAL_TOKEN",
      "outputs": [
        {
          "internalType": "uint256",
          "name": "",
          "type": "uint256"
        }
      ],
      "stateMutability": "view",
      "type": "function"
    },
    {
      "inputs": [],
      "name": "PRICE",
      "outputs": [
        {
          "internalType": "uint256",
          "name": "",
          "type": "uint256"
        }
      ],
      "stateMutability": "view",
      "type": "function"
    },
    {
      "inputs": [],
      "name": "SPECIAL_CARD_CONDITION",
      "outputs": [
        {
          "internalType": "uint256",
          "name": "",
          "type": "uint256"
        }
      ],
      "stateMutability": "view",
      "type": "function"
    },
    {
      "inputs": [
        {
          "internalType": "address",
          "name": "",
          "type": "address"
        }
      ],
      "name": "addressHasClaimed",
      "outputs": [
        {
          "internalType": "uint256",
          "name": "",
          "type": "uint256"
        }
      ],
      "stateMutability": "view",
      "type": "function"
    },
    {
      "inputs": [
        {
          "internalType": "address",
          "name": "",
          "type": "address"
        }
      ],
      "name": "addressHasMinted",
      "outputs": [
        {
          "internalType": "uint256",
          "name": "",
          "type": "uint256"
        }
      ],
      "stateMutability": "view",
      "type": "function"
    },
    {
      "inputs": [],
      "name": "auctionEndPrice",
      "outputs": [
        {
          "internalType": "uint256",
          "name": "",
          "type": "uint256"
        }
      ],
      "stateMutability": "view",
      "type": "function"
    },
    {
      "inputs": [],
      "name": "auctionPriceStep",
      "outputs": [
        {
          "internalType": "uint256",
          "name": "",
          "type": "uint256"
        }
      ],
      "stateMutability": "view",
      "type": "function"
    },
    {
      "inputs": [],
      "name": "auctionStageLimit",
      "outputs": [
        {
          "internalType": "uint256",
          "name": "",
          "type": "uint256"
        }
      ],
      "stateMutability": "view",
      "type": "function"
    },
    {
      "inputs": [],
      "name": "auctionStartPrice",
      "outputs": [
        {
          "internalType": "uint256",
          "name": "",
          "type": "uint256"
        }
      ],
      "stateMutability": "view",
      "type": "function"
    },
    {
      "inputs": [],
      "name": "auctionStartTimestamp",
      "outputs": [
        {
          "internalType": "uint256",
          "name": "",
          "type": "uint256"
        }
      ],
      "stateMutability": "view",
      "type": "function"
    },
    {
      "inputs": [],
      "name": "auctionStepNumber",
      "outputs": [
        {
          "internalType": "uint256",
          "name": "",
          "type": "uint256"
        }
      ],
      "stateMutability": "view",
      "type": "function"
    },
    {
      "inputs": [],
      "name": "auctionTimeStep",
      "outputs": [
        {
          "internalType": "uint256",
          "name": "",
          "type": "uint256"
        }
      ],
      "stateMutability": "view",
      "type": "function"
    },
    {
      "inputs": [
        {
          "internalType": "address",
          "name": "account",
          "type": "address"
        },
        {
          "internalType": "uint256",
          "name": "id",
          "type": "uint256"
        }
      ],
      "name": "balanceOf",
      "outputs": [
        {
          "internalType": "uint256",
          "name": "",
          "type": "uint256"
        }
      ],
      "stateMutability": "view",
      "type": "function"
    },
    {
      "inputs": [
        {
          "internalType": "address[]",
          "name": "accounts",
          "type": "address[]"
        },
        {
          "internalType": "uint256[]",
          "name": "ids",
          "type": "uint256[]"
        }
      ],
      "name": "balanceOfBatch",
      "outputs": [
        {
          "internalType": "uint256[]",
          "name": "",
          "type": "uint256[]"
        }
      ],
      "stateMutability": "view",
      "type": "function"
    },
    {
      "inputs": [
        {
          "internalType": "address",
          "name": "account",
          "type": "address"
        },
        {
          "internalType": "uint256",
          "name": "id",
          "type": "uint256"
        },
        {
          "internalType": "uint256",
          "name": "quantity",
          "type": "uint256"
        }
      ],
      "name": "burn",
      "outputs": [],
      "stateMutability": "nonpayable",
      "type": "function"
    },
    {
      "inputs": [],
      "name": "burnStarted",
      "outputs": [
        {
          "internalType": "bool",
          "name": "",
          "type": "bool"
        }
      ],
      "stateMutability": "view",
      "type": "function"
    },
    {
      "inputs": [
        {
          "internalType": "uint256",
          "name": "maxQuantity",
          "type": "uint256"
        },
        {
          "internalType": "bytes",
          "name": "SIGNATURE",
          "type": "bytes"
        }
      ],
      "name": "claimSpecial",
      "outputs": [],
      "stateMutability": "payable",
      "type": "function"
    },
    {
      "inputs": [],
      "name": "claimStageLimit",
      "outputs": [
        {
          "internalType": "uint256",
          "name": "",
          "type": "uint256"
        }
      ],
      "stateMutability": "view",
      "type": "function"
    },
    {
      "inputs": [],
      "name": "getDutchAuctionPrice",
      "outputs": [
        {
          "internalType": "uint256",
          "name": "",
          "type": "uint256"
        }
      ],
      "stateMutability": "view",
      "type": "function"
    },
    {
      "inputs": [
        {
          "internalType": "address",
          "name": "to",
          "type": "address"
        },
        {
          "internalType": "uint256",
          "name": "id",
          "type": "uint256"
        },
        {
          "internalType": "uint256",
          "name": "quantity",
          "type": "uint256"
        }
      ],
      "name": "giveawayNFT",
      "outputs": [],
      "stateMutability": "nonpayable",
      "type": "function"
    },
    {
      "inputs": [],
      "name": "hasAuctionStarted",
      "outputs": [
        {
          "internalType": "bool",
          "name": "",
          "type": "bool"
        }
      ],
      "stateMutability": "view",
      "type": "function"
    },
    {
      "inputs": [],
      "name": "hasClaimStarted",
      "outputs": [
        {
          "internalType": "bool",
          "name": "",
          "type": "bool"
        }
      ],
      "stateMutability": "view",
      "type": "function"
    },
    {
      "inputs": [],
      "name": "hasSaleStarted",
      "outputs": [
        {
          "internalType": "bool",
          "name": "",
          "type": "bool"
        }
      ],
      "stateMutability": "view",
      "type": "function"
    },
    {
      "inputs": [
        {
          "internalType": "uint256",
          "name": "",
          "type": "uint256"
        }
      ],
      "name": "idHasMinted",
      "outputs": [
        {
          "internalType": "uint256",
          "name": "",
          "type": "uint256"
        }
      ],
      "stateMutability": "view",
      "type": "function"
    },
    {
      "inputs": [
        {
          "internalType": "address",
          "name": "account",
          "type": "address"
        },
        {
          "internalType": "address",
          "name": "operator",
          "type": "address"
        }
      ],
      "name": "isApprovedForAll",
      "outputs": [
        {
          "internalType": "bool",
          "name": "",
          "type": "bool"
        }
      ],
      "stateMutability": "view",
      "type": "function"
    },
    {
      "inputs": [
        {
          "internalType": "uint256",
          "name": "quantity",
          "type": "uint256"
        },
        {
          "internalType": "uint256",
          "name": "maxQuantity",
          "type": "uint256"
        },
        {
          "internalType": "bytes",
          "name": "SIGNATURE",
          "type": "bytes"
        }
      ],
      "name": "mintNormal",
      "outputs": [],
      "stateMutability": "payable",
      "type": "function"
    },
    {
      "inputs": [],
      "name": "name",
      "outputs": [
        {
          "internalType": "string",
          "name": "",
          "type": "string"
        }
      ],
      "stateMutability": "view",
      "type": "function"
    },
    {
      "inputs": [],
      "name": "normalSupply",
      "outputs": [
        {
          "internalType": "uint256",
          "name": "",
          "type": "uint256"
        }
      ],
      "stateMutability": "view",
      "type": "function"
    },
    {
      "inputs": [],
      "name": "owner",
      "outputs": [
        {
          "internalType": "address",
          "name": "",
          "type": "address"
        }
      ],
      "stateMutability": "view",
      "type": "function"
    },
    {
      "inputs": [
        {
          "internalType": "uint256",
          "name": "",
          "type": "uint256"
        }
      ],
      "name": "quantityLimit",
      "outputs": [
        {
          "internalType": "uint256",
          "name": "",
          "type": "uint256"
        }
      ],
      "stateMutability": "view",
      "type": "function"
    },
    {
      "inputs": [
        {
          "internalType": "address",
          "name": "from",
          "type": "address"
        },
        {
          "internalType": "address",
          "name": "to",
          "type": "address"
        },
        {
          "internalType": "uint256[]",
          "name": "ids",
          "type": "uint256[]"
        },
        {
          "internalType": "uint256[]",
          "name": "amounts",
          "type": "uint256[]"
        },
        {
          "internalType": "bytes",
          "name": "data",
          "type": "bytes"
        }
      ],
      "name": "safeBatchTransferFrom",
      "outputs": [],
      "stateMutability": "nonpayable",
      "type": "function"
    },
    {
      "inputs": [
        {
          "internalType": "address",
          "name": "from",
          "type": "address"
        },
        {
          "internalType": "address",
          "name": "to",
          "type": "address"
        },
        {
          "internalType": "uint256",
          "name": "id",
          "type": "uint256"
        },
        {
          "internalType": "uint256",
          "name": "amount",
          "type": "uint256"
        },
        {
          "internalType": "bytes",
          "name": "data",
          "type": "bytes"
        }
      ],
      "name": "safeTransferFrom",
      "outputs": [],
      "stateMutability": "nonpayable",
      "type": "function"
    },
    {
      "inputs": [],
      "name": "saleTimestamp",
      "outputs": [
        {
          "internalType": "uint256",
          "name": "",
          "type": "uint256"
        }
      ],
      "stateMutability": "view",
      "type": "function"
    },
    {
      "inputs": [
        {
          "internalType": "address",
          "name": "operator",
          "type": "address"
        },
        {
          "internalType": "bool",
          "name": "approved",
          "type": "bool"
        }
      ],
      "name": "setApprovalForAll",
      "outputs": [],
      "stateMutability": "nonpayable",
      "type": "function"
    },
    {
      "inputs": [
        {
          "internalType": "string",
          "name": "baseURI",
          "type": "string"
        }
      ],
      "name": "setBaseURI",
      "outputs": [],
      "stateMutability": "nonpayable",
      "type": "function"
    },
    {
      "inputs": [
        {
          "internalType": "bool",
          "name": "_burnStarted",
          "type": "bool"
        }
      ],
      "name": "setBurn",
      "outputs": [],
      "stateMutability": "nonpayable",
      "type": "function"
    },
    {
      "inputs": [
        {
          "internalType": "uint256",
          "name": "_auctionStartTimestamp",
          "type": "uint256"
        },
        {
          "internalType": "uint256",
          "name": "_auctionTimeStep",
          "type": "uint256"
        },
        {
          "internalType": "uint256",
          "name": "_auctionStartPrice",
          "type": "uint256"
        },
        {
          "internalType": "uint256",
          "name": "_auctionEndPrice",
          "type": "uint256"
        },
        {
          "internalType": "uint256",
          "name": "_auctionPriceStep",
          "type": "uint256"
        },
        {
          "internalType": "uint256",
          "name": "_auctionStepNumber",
          "type": "uint256"
        }
      ],
      "name": "setDutchAuction",
      "outputs": [],
      "stateMutability": "nonpayable",
      "type": "function"
    },
    {
      "inputs": [
        {
          "internalType": "uint256",
          "name": "_id",
          "type": "uint256"
        },
        {
          "internalType": "uint256",
          "name": "_MAX",
          "type": "uint256"
        }
      ],
      "name": "setIdLimit",
      "outputs": [],
      "stateMutability": "nonpayable",
      "type": "function"
    },
    {
      "inputs": [
        {
          "internalType": "address",
          "name": "_owner",
          "type": "address"
        }
      ],
      "name": "setOwner",
      "outputs": [],
      "stateMutability": "nonpayable",
      "type": "function"
    },
    {
      "inputs": [
        {
          "internalType": "uint256",
          "name": "_price",
          "type": "uint256"
        }
      ],
      "name": "setPRICE",
      "outputs": [],
      "stateMutability": "nonpayable",
      "type": "function"
    },
    {
      "inputs": [
        {
          "internalType": "bool",
          "name": "_hasSaleStarted",
          "type": "bool"
        },
        {
          "internalType": "bool",
          "name": "_hasClaimStarted",
          "type": "bool"
        },
        {
          "internalType": "bool",
          "name": "_hasAuctionStarted",
          "type": "bool"
        },
        {
          "internalType": "bool",
          "name": "_whitelistSwitch",
          "type": "bool"
        },
        {
          "internalType": "uint256",
          "name": "_saleTimestamp",
          "type": "uint256"
        }
      ],
      "name": "setSaleSwitch",
      "outputs": [],
      "stateMutability": "nonpayable",
      "type": "function"
    },
    {
      "inputs": [
        {
          "internalType": "address",
          "name": "_signer",
          "type": "address"
        }
      ],
      "name": "setSigner",
      "outputs": [],
      "stateMutability": "nonpayable",
      "type": "function"
    },
    {
      "inputs": [
        {
          "internalType": "uint256",
          "name": "_claimStageLimit",
          "type": "uint256"
        },
        {
          "internalType": "uint256",
          "name": "_auctionStageLimit",
          "type": "uint256"
        }
      ],
      "name": "setStageLimit",
      "outputs": [],
      "stateMutability": "nonpayable",
      "type": "function"
    },
    {
      "inputs": [
        {
          "internalType": "uint256",
          "name": "_MAX_NORMAL_TOKEN",
          "type": "uint256"
        },
        {
          "internalType": "uint256",
          "name": "_MAX_SPECIAL_TOKEN",
          "type": "uint256"
        },
        {
          "internalType": "uint256",
          "name": "_SPECIAL_CARD_CONDITION",
          "type": "uint256"
        },
        {
          "internalType": "uint256",
          "name": "_MAX_ADDRESS_TOKEN",
          "type": "uint256"
        },
        {
          "internalType": "uint256",
          "name": "_specialCardId",
          "type": "uint256"
        }
      ],
      "name": "setTokenLimit",
      "outputs": [],
      "stateMutability": "nonpayable",
      "type": "function"
    },
    {
      "inputs": [
        {
          "internalType": "address",
          "name": "_treasury",
          "type": "address"
        }
      ],
      "name": "setTreasury",
      "outputs": [],
      "stateMutability": "nonpayable",
      "type": "function"
    },
    {
      "inputs": [],
      "name": "signer",
      "outputs": [
        {
          "internalType": "address",
          "name": "",
          "type": "address"
        }
      ],
      "stateMutability": "view",
      "type": "function"
    },
    {
      "inputs": [],
      "name": "specialCardId",
      "outputs": [
        {
          "internalType": "uint256",
          "name": "",
          "type": "uint256"
        }
      ],
      "stateMutability": "view",
      "type": "function"
    },
    {
      "inputs": [],
      "name": "specialSupply",
      "outputs": [
        {
          "internalType": "uint256",
          "name": "",
          "type": "uint256"
        }
      ],
      "stateMutability": "view",
      "type": "function"
    },
    {
      "inputs": [
        {
          "internalType": "bytes4",
          "name": "interfaceId",
          "type": "bytes4"
        }
      ],
      "name": "supportsInterface",
      "outputs": [
        {
          "internalType": "bool",
          "name": "",
          "type": "bool"
        }
      ],
      "stateMutability": "view",
      "type": "function"
    },
    {
      "inputs": [],
      "name": "symbol",
      "outputs": [
        {
          "internalType": "string",
          "name": "",
          "type": "string"
        }
      ],
      "stateMutability": "view",
      "type": "function"
    },
    {
      "inputs": [],
      "name": "totalSupply",
      "outputs": [
        {
          "internalType": "uint256",
          "name": "",
          "type": "uint256"
        }
      ],
      "stateMutability": "view",
      "type": "function"
    },
    {
      "inputs": [],
      "name": "treasury",
      "outputs": [
        {
          "internalType": "address",
          "name": "",
          "type": "address"
        }
      ],
      "stateMutability": "view",
      "type": "function"
    },
    {
      "inputs": [
        {
          "internalType": "uint256",
          "name": "",
          "type": "uint256"
        }
      ],
      "name": "uri",
      "outputs": [
        {
          "internalType": "string",
          "name": "",
          "type": "string"
        }
      ],
      "stateMutability": "view",
      "type": "function"
    },
    {
      "inputs": [
        {
          "internalType": "uint256",
          "name": "maxQuantity",
          "type": "uint256"
        },
        {
          "internalType": "bytes",
          "name": "SIGNATURE",
          "type": "bytes"
        }
      ],
      "name": "verify",
      "outputs": [
        {
          "internalType": "bool",
          "name": "",
          "type": "bool"
        }
      ],
      "stateMutability": "view",
      "type": "function"
    },
    {
      "inputs": [],
      "name": "whitelistSwitch",
      "outputs": [
        {
          "internalType": "bool",
          "name": "",
          "type": "bool"
        }
      ],
      "stateMutability": "view",
      "type": "function"
    },
    {
      "inputs": [],
      "name": "withdrawAll",
      "outputs": [],
      "stateMutability": "payable",
      "type": "function"
    }
  ],
  "transactionHash": "0xeb8a7eab6cd6685580e39605c66d4b546ce32c981f91e33f260c39a8bc1a666d",
  "args": [],
  "numDeployments": 3,
  "solcInputHash": "c22a27e5bd31462350824c15d63c0987",
  "bytecode": "0x6101806040526001610140819052600560fc1b610160908152620000279160039190620002a6565b50604080518082019091526004808252631411955560e21b6020909201918252620000539181620002a6565b50610898600581905560166006556003600755600a60088190556702c68af0bb1400006009556361e5301090556000600b819055600c55601e600d55600e556015600f55601080546001600160c81b03191678cf3ed5eb7850c885abd6f0170c1fa66ef7c758ff00000000001790556011805473cf3ed5eb7850c885abd6f0170c1fa66ef7c758ff6001600160a01b031991821681179092556012805490911690911790553480156200010557600080fd5b5060405180606001604052806028815260200162003aa9602891396040805180820182526006815265556e6e616d6560d01b6020808301918252835180850190945260058452640312e302e360dc1b908401528151902060e08190527f06c015bd22b4c69690933c1058878ebdfef31f9aaae40bbe86d8a09fe1b2972c6101008190524660a0529192917f8b73c3c69bb8fe3d512ecc4cf759cc79239f7b179b0ffacaa9a75d522b39400f620002008184846040805160208101859052908101839052606081018290524660808201523060a082015260009060c0016040516020818303038152906040528051906020012090509392505050565b6080523060c05261012052506200021c9250839150506200028d565b5060015b601581101562000251576000818152601960205260409020606e90558062000248816200034c565b91505062000220565b5060155b602b8110156200028657600081815260196020526040902060019055806200027d816200034c565b91505062000255565b50620003b0565b8051620002a2906002906020840190620002a6565b5050565b828054620002b49062000374565b90600052602060002090601f016020900481019282620002d8576000855562000323565b82601f10620002f357805160ff191683800117855562000323565b8280016001018555821562000323579182015b828111156200032357825182559160200191906001019062000306565b506200033192915062000335565b5090565b5b8082111562000331576000815560010162000336565b6000600182016200036d57634e487b7160e01b600052601160045260246000fd5b5060010190565b600181811c908216806200038957607f821691505b602082108103620003aa57634e487b7160e01b600052602260045260246000fd5b50919050565b60805160a05160c05160e05161010051610120516136a9620004006000396000612789015260006127d8015260006127b30152600061270c015260006127360152600061276001526136a96000f3fe6080604052600436106103805760003560e01c8063862a2b45116101d1578063c6a96c8f11610102578063e7e43465116100a0578063f242432a1161006f578063f242432a146109fe578063f5298aca14610a1e578063f5bb134e14610a3e578063fbf76eb214610a5457600080fd5b8063e7e4346514610955578063e985e9c514610975578063eea52d38146109be578063f0f44260146109de57600080fd5b8063d756985b116100dc578063d756985b146108e6578063d7eef865146108fc578063dcb8101f14610912578063e2e771a41461093f57600080fd5b8063c6a96c8f146108a4578063c7822598146108ba578063cca8a0d8146108d057600080fd5b8063a22cb4651161016f578063bcd25ee511610149578063bcd25ee51461083a578063bd55cf0d1461085b578063c44f81e21461087b578063c4f9ff101461089157600080fd5b8063a22cb465146107d7578063a5b5665c146107f7578063b2a098d91461080d57600080fd5b80639196eba5116101ab5780639196eba51461078057806395d89b4114610796578063964dd240146107ab578063a04a6ac8146107c157600080fd5b8063862a2b451461072b5780638d859f3e146107415780638da5cb5b1461075757600080fd5b80632e1de27f116102b65780634ca4fb34116102545780636c19e783116102235780636c19e783146106c4578063717bf336146106e4578063853828b61461070357806385852ce41461070b57600080fd5b80634ca4fb341461062a5780634e1273f41461065757806355f804b31461068457806361d027b3146106a457600080fd5b806344944f311161029057806344944f31146105bc5780634698a3d8146105e957806348b5f2bc146105ff5780634b30a9101461061557600080fd5b80632e1de27f146105695780632eb2c2d61461057c5780634017b12f1461059c57600080fd5b806318160ddd11610323578063238ac933116102fd578063238ac933146104d157806326df66ce14610509578063271cb22f146105295780632db218b61461054957600080fd5b806318160ddd1461048257806319cb4a1c146104975780631c8b232d146104b757600080fd5b80630af012dd1161035f5780630af012dd1461040a5780630b07e4d11461042c5780630e89341c1461044257806313af40351461046257600080fd5b8062fdd58e1461038557806301ffc9a7146103b857806306fdde03146103e8575b600080fd5b34801561039157600080fd5b506103a56103a0366004612b25565b610a76565b6040519081526020015b60405180910390f35b3480156103c457600080fd5b506103d86103d3366004612b65565b610b0c565b60405190151581526020016103af565b3480156103f457600080fd5b506103fd610b5e565b6040516103af9190612bcf565b34801561041657600080fd5b5061042a610425366004612be2565b610bf0565b005b34801561043857600080fd5b506103a560055481565b34801561044e57600080fd5b506103fd61045d366004612c04565b610c03565b34801561046e57600080fd5b5061042a61047d366004612c1d565b610c97565b34801561048e57600080fd5b506103a5610ccf565b3480156104a357600080fd5b5061042a6104b2366004612c38565b610ce6565b3480156104c357600080fd5b506010546103d89060ff1681565b3480156104dd57600080fd5b506012546104f1906001600160a01b031681565b6040516001600160a01b0390911681526020016103af565b34801561051557600080fd5b506010546103d89062010000900460ff1681565b34801561053557600080fd5b5061042a610544366004612be2565b610d05565b34801561055557600080fd5b5061042a610564366004612c83565b610d1f565b61042a610577366004612da0565b610d7b565b34801561058857600080fd5b5061042a610597366004612e7c565b6111b4565b3480156105a857600080fd5b5061042a6105b7366004612f26565b611200565b3480156105c857600080fd5b506103a56105d7366004612c1d565b601c6020526000908152604090205481565b3480156105f557600080fd5b506103a560175481565b34801561060b57600080fd5b506103a5600b5481565b34801561062157600080fd5b506103a5611342565b34801561063657600080fd5b506103a5610645366004612c04565b601a6020526000908152604090205481565b34801561066357600080fd5b50610677610672366004612f59565b611419565b6040516103af9190613055565b34801561069057600080fd5b5061042a61069f366004613068565b611543565b3480156106b057600080fd5b506011546104f1906001600160a01b031681565b3480156106d057600080fd5b5061042a6106df366004612c1d565b611557565b3480156106f057600080fd5b506010546103d890610100900460ff1681565b61042a6115ce565b34801561071757600080fd5b506103d8610726366004612da0565b611609565b34801561073757600080fd5b506103a560085481565b34801561074d57600080fd5b506103a560095481565b34801561076357600080fd5b506010546104f1906501000000000090046001600160a01b031681565b34801561078c57600080fd5b506103a560145481565b3480156107a257600080fd5b506103fd611693565b3480156107b757600080fd5b506103a560185481565b3480156107cd57600080fd5b506103a560165481565b3480156107e357600080fd5b5061042a6107f23660046130b9565b6116a2565b34801561080357600080fd5b506103a5600c5481565b34801561081957600080fd5b506103a5610828366004612c1d565b601b6020526000908152604090205481565b34801561084657600080fd5b506010546103d8906301000000900460ff1681565b34801561086757600080fd5b5061042a6108763660046130ec565b6116b1565b34801561088757600080fd5b506103a5600d5481565b61042a61089f366004613107565b6116d9565b3480156108b057600080fd5b506103a560135481565b3480156108c657600080fd5b506103a5600a5481565b3480156108dc57600080fd5b506103a560075481565b3480156108f257600080fd5b506103a560155481565b34801561090857600080fd5b506103a5600e5481565b34801561091e57600080fd5b506103a561092d366004612c04565b60196020526000908152604090205481565b34801561094b57600080fd5b506103a5600f5481565b34801561096157600080fd5b5061042a610970366004613157565b611b89565b34801561098157600080fd5b506103d861099036600461319a565b6001600160a01b03918216600090815260016020908152604080832093909416825291909152205460ff1690565b3480156109ca57600080fd5b5061042a6109d9366004612c04565b611bae565b3480156109ea57600080fd5b5061042a6109f9366004612c1d565b611bbb565b348015610a0a57600080fd5b5061042a610a193660046131c4565b611be5565b348015610a2a57600080fd5b5061042a610a39366004612f26565b611c2a565b348015610a4a57600080fd5b506103a560065481565b348015610a6057600080fd5b506010546103d890640100000000900460ff1681565b60006001600160a01b038316610ae65760405162461bcd60e51b815260206004820152602a60248201527f455243313135353a2061646472657373207a65726f206973206e6f742061207660448201526930b634b21037bbb732b960b11b60648201526084015b60405180910390fd5b506000908152602081815260408083206001600160a01b03949094168352929052205490565b60006001600160e01b03198216636cdb3d1360e11b1480610b3d57506001600160e01b031982166303a24d0760e21b145b80610b5857506301ffc9a760e01b6001600160e01b03198316145b92915050565b606060038054610b6d90613229565b80601f0160208091040260200160405190810160405280929190818152602001828054610b9990613229565b8015610be65780601f10610bbb57610100808354040283529160200191610be6565b820191906000526020600020905b815481529060010190602001808311610bc957829003601f168201915b5050505050905090565b610bf8611d02565b600d91909155600e55565b606060028054610c1290613229565b80601f0160208091040260200160405190810160405280929190818152602001828054610c3e90613229565b8015610c8b5780601f10610c6057610100808354040283529160200191610c8b565b820191906000526020600020905b815481529060010190602001808311610c6e57829003601f168201915b50505050509050919050565b610c9f611d02565b601080546001600160a01b03909216650100000000000265010000000000600160c81b0319909216919091179055565b6000600c54600b54610ce19190613279565b905090565b610cee611d02565b600594909455600692909255600755600855600f55565b610d0d611d02565b60009182526019602052604090912055565b610d27611d02565b6010805492151563010000000263ff0000001994151562010000029490941663ffff0000199515156101000261ff00199715159790971661ffff199094169390931795909517939093161717909155600a55565b60105460ff610100909104161515600114610dd15760405162461bcd60e51b815260206004820152601660248201527521b630b4b6903430b9903737ba1039ba30b93a32b21760511b6044820152606401610add565b600a54421015610e175760405162461bcd60e51b81526020600482015260116024820152704e4f545f494e5f434c41494d5f54494d4560781b6044820152606401610add565b600d54600f541115610e815760405162461bcd60e51b815260206004820152602d60248201527f45786365656420746865207370656369616c206964206f6620636c61696d206160448201526c3a103a3434b99039ba30b3b29760991b6064820152608401610add565b610e8b8282611609565b610ed75760405162461bcd60e51b815260206004820152601760248201527f4e6f7420656c696769626c6520666f7220636c61696d2e0000000000000000006044820152606401610add565b600060015b6015811015610f1457610eef3382610a76565b15610f0257610eff826001613279565b91505b80610f0c81613291565b915050610edc565b50600754811015610f675760405162461bcd60e51b815260206004820152601760248201527f4e6f7420656e6f756768206e6f726d616c20636172642e0000000000000000006044820152606401610add565b600954341015610f895760405162461bcd60e51b8152600401610add906132aa565b600654600c54610f9a906001611d5a565b1115610fe85760405162461bcd60e51b815260206004820152601a60248201527f45786365656473204d41585f5350454349414c5f544f4b454e2e0000000000006044820152606401610add565b600f54600090815260196020908152604080832054601a90925290912054611011906001611d5a565b111561105f5760405162461bcd60e51b815260206004820152601a60248201527f45786365656473206964207175616e74697479206c696d69742e0000000000006044820152606401610add565b336000908152601c6020526040902054839061107c906001611d5a565b11156110ca5760405162461bcd60e51b815260206004820152601760248201527f4578636565647320636c61696d207175616e746974792e0000000000000000006044820152606401610add565b600f546000908152601a60205260409020546110e7906001611d5a565b600f546000908152601a6020908152604080832093909355338252601c90522054611113906001611d5a565b336000818152601c6020908152604080832094909455600f5484519182019094529081526111449290600190611d6d565b600c54611152906001611d5a565b600c55600f547fb32c32014221c522f5b713daa9a1df4bd21450f8b5c763ba3ca01f088f95c8649033906001611186610ccf565b60405161119694939291906132f5565b60405180910390a1600f546111ac906001613279565b600f55505050565b6001600160a01b0385163314806111d057506111d08533610990565b6111ec5760405162461bcd60e51b8152600401610add9061331b565b6111f98585858585611e81565b5050505050565b611208611d02565b60008111801561123b5750600082815260196020908152604080832054601a909252909120546112389083611d5a565b11155b6112875760405162461bcd60e51b815260206004820152601a60248201527f45786365656473206964207175616e74697479206c696d69742e0000000000006044820152606401610add565b6112a283838360405180602001604052806000815250611d6d565b60148211156112c057600c546112b89082611d5a565b600c556112d1565b600b546112cd9082611d5a565b600b555b6000828152601a60205260409020546112ea9082611d5a565b6000838152601a60205260409020557fb32c32014221c522f5b713daa9a1df4bd21450f8b5c763ba3ca01f088f95c864838383611325610ccf565b60405161133594939291906132f5565b60405180910390a1505050565b60105460009062010000900460ff1615156001146113975760405162461bcd60e51b815260206004820152601260248201527141554354494f4e5f4e4f545f41435449564560701b6044820152606401610add565b6013544210156113a8575060155490565b6000601454601354426113bb9190613369565b6113c59190613396565b90506018548111156113d657506018545b6017546113e390826133aa565b601554111561140c576017546113f990826133aa565b6015546114069190613369565b91505090565b505060165490565b505b90565b6060815183511461147e5760405162461bcd60e51b815260206004820152602960248201527f455243313135353a206163636f756e747320616e6420696473206c656e677468604482015268040dad2e6dac2e8c6d60bb1b6064820152608401610add565b6000835167ffffffffffffffff81111561149a5761149a612cdf565b6040519080825280602002602001820160405280156114c3578160200160208202803683370190505b50905060005b845181101561153b5761150e8582815181106114e7576114e76133c9565b6020026020010151858381518110611501576115016133c9565b6020026020010151610a76565b828281518110611520576115206133c9565b602090810291909101015261153481613291565b90506114c9565b509392505050565b61154b611d02565b61155481612056565b50565b61155f611d02565b6001600160a01b0381166115ac5760405162461bcd60e51b815260206004820152601460248201527353455454494e475f5a45524f5f4144445245535360601b6044820152606401610add565b601280546001600160a01b0319166001600160a01b0392909216919091179055565b6115d6611d02565b6011546040516001600160a01b03909116904780156108fc02916000818181858888f1935050505061160757600080fd5b565b60008061167a6116747f182854de6a51f3818344a7eb784b9d55c1e6d2d20c9f9aea309f5daaaaddfec1336040805160208101939093526001600160a01b03909116908201526060810187905260800160405160208183030381529060405280519060200120612069565b846120b7565b6012546001600160a01b03918216911614949350505050565b606060048054610b6d90613229565b6116ad3383836120d3565b5050565b6116b9611d02565b601080549115156401000000000264ff0000000019909216919091179055565b60105460ff1615156001146117225760405162461bcd60e51b815260206004820152600f60248201526e53414c455f4e4f545f41435449564560881b6044820152606401610add565b600a544210156117675760405162461bcd60e51b815260206004820152601060248201526f4e4f545f494e5f53414c455f54494d4560801b6044820152606401610add565b3233146117ab5760405162461bcd60e51b815260206004820152601260248201527110d05313115497d254d7d0d3d395149050d560721b6044820152606401610add565b6010546301000000900460ff16151560010361181d576117cb8282611609565b6118175760405162461bcd60e51b815260206004820152601b60248201527f4e6f7420656c696769626c6520666f722077686974656c6973742e00000000006044820152606401610add565b60088290555b60105462010000900460ff1615156001036118fe576118448361183e611342565b906121b3565b3410156118935760405162461bcd60e51b815260206004820152601f60248201527f45746865722076616c75652073656e74206973206e6f7420656e6f7567682e006044820152606401610add565b6000831180156118b15750600e54600b546118ae9085611d5a565b11155b6118f95760405162461bcd60e51b815260206004820152601960248201527822bc31b2b2b2399026a0ac2fa727a926a0a62faa27a5a2a71760391b6044820152606401610add565b61192a565b60095461190b90846121b3565b34101561192a5760405162461bcd60e51b8152600401610add906132aa565b6000831180156119485750600554600b546119459085611d5a565b11155b6119905760405162461bcd60e51b815260206004820152601960248201527822bc31b2b2b2399026a0ac2fa727a926a0a62faa27a5a2a71760391b6044820152606401610add565b600854336000908152601b60205260409020546119ad9085611d5a565b11156119ef5760405162461bcd60e51b815260206004820152601160248201527022bc31b2b2b2399038bab0b73a34ba3c9760791b6044820152606401610add565b336000908152601b60205260408120548190611a0b9086611d5a565b336000908152601b60205260408120919091555b85811015611b81576040516bffffffffffffffffffffffff193360601b166020820152603481018290524260548201526000906074016040516020818303038152906040529050611a6f816121bf565b9350611a7c846001613279565b92505b600083815260196020908152604080832054601a90925290912054611aa5906001611d5a565b1115611acb57611ab6836001613279565b92506014831115611ac657600192505b611a7f565b6000838152601a6020526040902054611ae5906001611d5a565b601a600085815260200190815260200160002081905550611b183384600160405180602001604052806000815250611d6d565b600b54611b26906001611d5a565b600b557fb32c32014221c522f5b713daa9a1df4bd21450f8b5c763ba3ca01f088f95c86433846001611b56610ccf565b604051611b6694939291906132f5565b60405180910390a15080611b7981613291565b915050611a1f565b505050505050565b611b91611d02565b601395909555601493909355601591909155601655601755601855565b611bb6611d02565b600955565b611bc3611d02565b601180546001600160a01b0319166001600160a01b0392909216919091179055565b6001600160a01b038516331480611c015750611c018533610990565b611c1d5760405162461bcd60e51b8152600401610add9061331b565b6111f985858585856121f8565b601054640100000000900460ff161515600114611c805760405162461bcd60e51b8152602060048201526014602482015273213ab937103430b9b713ba1039ba30b93a32b21760611b6044820152606401610add565b6001600160a01b038316321480611c9c5750611c9c8333610990565b611cf25760405162461bcd60e51b815260206004820152602160248201527f43616c6c6572206973206e6f74206f776e6572206e6f7220617070726f7665646044820152601760f91b6064820152608401610add565b611cfd838383612322565b505050565b6010546501000000000090046001600160a01b031633146116075760405162461bcd60e51b81526020600482015260126024820152712cb7ba9030b932903737ba1037bbb732b91760711b6044820152606401610add565b6000611d668284613279565b9392505050565b6001600160a01b038416611dcd5760405162461bcd60e51b815260206004820152602160248201527f455243313135353a206d696e7420746f20746865207a65726f206164647265736044820152607360f81b6064820152608401610add565b336000611dd98561249e565b90506000611de68561249e565b90506000868152602081815260408083206001600160a01b038b16845290915281208054879290611e18908490613279565b909155505060408051878152602081018790526001600160a01b03808a1692600092918716917fc3d58168c5ae7397731d063d5bbf3d657854427343f4c083240f7aacaa2d0f62910160405180910390a4611e78836000898989896124e9565b50505050505050565b8151835114611ee35760405162461bcd60e51b815260206004820152602860248201527f455243313135353a2069647320616e6420616d6f756e7473206c656e677468206044820152670dad2e6dac2e8c6d60c31b6064820152608401610add565b6001600160a01b038416611f095760405162461bcd60e51b8152600401610add906133df565b3360005b8451811015611ff0576000858281518110611f2a57611f2a6133c9565b602002602001015190506000858381518110611f4857611f486133c9565b602090810291909101810151600084815280835260408082206001600160a01b038e168352909352919091205490915081811015611f985760405162461bcd60e51b8152600401610add90613424565b6000838152602081815260408083206001600160a01b038e8116855292528083208585039055908b16825281208054849290611fd5908490613279565b9250508190555050505080611fe990613291565b9050611f0d565b50846001600160a01b0316866001600160a01b0316826001600160a01b03167f4a39dc06d4c0dbc64b70af90fd698a233a518aa5d07e595d983b8c0526c8f7fb878760405161204092919061346e565b60405180910390a4611b81818787878787612644565b80516116ad906002906020840190612a79565b6000610b586120766126ff565b8360405161190160f01b6020820152602281018390526042810182905260009060620160405160208183030381529060405280519060200120905092915050565b60008060006120c68585612826565b9150915061153b8161286b565b816001600160a01b0316836001600160a01b0316036121465760405162461bcd60e51b815260206004820152602960248201527f455243313135353a2073657474696e6720617070726f76616c20737461747573604482015268103337b91039b2b63360b91b6064820152608401610add565b6001600160a01b03838116600081815260016020908152604080832094871680845294825291829020805460ff191686151590811790915591519182527f17307eab39ab6107e8899845ad3d59bd9653f200f220920489ca2b5937696c31910160405180910390a3505050565b6000611d6682846133aa565b600080826040516020016121d39190612bcf565b60408051601f1981840301815291905280516020909101209050611d6660148261349c565b6001600160a01b03841661221e5760405162461bcd60e51b8152600401610add906133df565b33600061222a8561249e565b905060006122378561249e565b90506000868152602081815260408083206001600160a01b038c1684529091529020548581101561227a5760405162461bcd60e51b8152600401610add90613424565b6000878152602081815260408083206001600160a01b038d8116855292528083208985039055908a168252812080548892906122b7908490613279565b909155505060408051888152602081018890526001600160a01b03808b16928c821692918816917fc3d58168c5ae7397731d063d5bbf3d657854427343f4c083240f7aacaa2d0f62910160405180910390a4612317848a8a8a8a8a6124e9565b505050505050505050565b6001600160a01b0383166123845760405162461bcd60e51b815260206004820152602360248201527f455243313135353a206275726e2066726f6d20746865207a65726f206164647260448201526265737360e81b6064820152608401610add565b3360006123908461249e565b9050600061239d8461249e565b60408051602080820183526000918290528882528181528282206001600160a01b038b16835290522054909150848110156124265760405162461bcd60e51b8152602060048201526024808201527f455243313135353a206275726e20616d6f756e7420657863656564732062616c604482015263616e636560e01b6064820152608401610add565b6000868152602081815260408083206001600160a01b038b81168086529184528285208a8703905582518b81529384018a90529092908816917fc3d58168c5ae7397731d063d5bbf3d657854427343f4c083240f7aacaa2d0f62910160405180910390a4604080516020810190915260009052611e78565b604080516001808252818301909252606091600091906020808301908036833701905050905082816000815181106124d8576124d86133c9565b602090810291909101015292915050565b6001600160a01b0384163b15611b815760405163f23a6e6160e01b81526001600160a01b0385169063f23a6e619061252d90899089908890889088906004016134b0565b6020604051808303816000875af1925050508015612568575060408051601f3d908101601f19168201909252612565918101906134f5565b60015b61261457612574613512565b806308c379a0036125ad575061258861352d565b8061259357506125af565b8060405162461bcd60e51b8152600401610add9190612bcf565b505b60405162461bcd60e51b815260206004820152603460248201527f455243313135353a207472616e7366657220746f206e6f6e2d455243313135356044820152732932b1b2b4bb32b91034b6b83632b6b2b73a32b960611b6064820152608401610add565b6001600160e01b0319811663f23a6e6160e01b14611e785760405162461bcd60e51b8152600401610add906135b7565b6001600160a01b0384163b15611b815760405163bc197c8160e01b81526001600160a01b0385169063bc197c819061268890899089908890889088906004016135ff565b6020604051808303816000875af19250505080156126c3575060408051601f3d908101601f191682019092526126c0918101906134f5565b60015b6126cf57612574613512565b6001600160e01b0319811663bc197c8160e01b14611e785760405162461bcd60e51b8152600401610add906135b7565b6000306001600160a01b037f00000000000000000000000000000000000000000000000000000000000000001614801561275857507f000000000000000000000000000000000000000000000000000000000000000046145b1561278257507f000000000000000000000000000000000000000000000000000000000000000090565b50604080517f00000000000000000000000000000000000000000000000000000000000000006020808301919091527f0000000000000000000000000000000000000000000000000000000000000000828401527f000000000000000000000000000000000000000000000000000000000000000060608301524660808301523060a0808401919091528351808403909101815260c0909201909252805191012090565b600080825160410361285c5760208301516040840151606085015160001a612850878285856129b5565b94509450505050612864565b506000905060025b9250929050565b600081600481111561287f5761287f61365d565b036128875750565b600181600481111561289b5761289b61365d565b036128e85760405162461bcd60e51b815260206004820152601860248201527f45434453413a20696e76616c6964207369676e617475726500000000000000006044820152606401610add565b60028160048111156128fc576128fc61365d565b036129495760405162461bcd60e51b815260206004820152601f60248201527f45434453413a20696e76616c6964207369676e6174757265206c656e677468006044820152606401610add565b600381600481111561295d5761295d61365d565b036115545760405162461bcd60e51b815260206004820152602260248201527f45434453413a20696e76616c6964207369676e6174757265202773272076616c604482015261756560f01b6064820152608401610add565b6000807f7fffffffffffffffffffffffffffffff5d576e7357a4501ddfe92f46681b20a08311156129ec5750600090506003612a70565b6040805160008082526020820180845289905260ff881692820192909252606081018690526080810185905260019060a0016020604051602081039080840390855afa158015612a40573d6000803e3d6000fd5b5050604051601f1901519150506001600160a01b038116612a6957600060019250925050612a70565b9150600090505b94509492505050565b828054612a8590613229565b90600052602060002090601f016020900481019282612aa75760008555612aed565b82601f10612ac057805160ff1916838001178555612aed565b82800160010185558215612aed579182015b82811115612aed578251825591602001919060010190612ad2565b506114149291505b808211156114145760008155600101612af5565b80356001600160a01b0381168114612b2057600080fd5b919050565b60008060408385031215612b3857600080fd5b612b4183612b09565b946020939093013593505050565b6001600160e01b03198116811461155457600080fd5b600060208284031215612b7757600080fd5b8135611d6681612b4f565b6000815180845260005b81811015612ba857602081850181015186830182015201612b8c565b81811115612bba576000602083870101525b50601f01601f19169290920160200192915050565b602081526000611d666020830184612b82565b60008060408385031215612bf557600080fd5b50508035926020909101359150565b600060208284031215612c1657600080fd5b5035919050565b600060208284031215612c2f57600080fd5b611d6682612b09565b600080600080600060a08688031215612c5057600080fd5b505083359560208501359550604085013594606081013594506080013592509050565b80358015158114612b2057600080fd5b600080600080600060a08688031215612c9b57600080fd5b612ca486612c73565b9450612cb260208701612c73565b9350612cc060408701612c73565b9250612cce60608701612c73565b949793965091946080013592915050565b634e487b7160e01b600052604160045260246000fd5b601f8201601f1916810167ffffffffffffffff81118282101715612d1b57612d1b612cdf565b6040525050565b600067ffffffffffffffff831115612d3c57612d3c612cdf565b604051612d53601f8501601f191660200182612cf5565b809150838152848484011115612d6857600080fd5b83836020830137600060208583010152509392505050565b600082601f830112612d9157600080fd5b611d6683833560208501612d22565b60008060408385031215612db357600080fd5b82359150602083013567ffffffffffffffff811115612dd157600080fd5b612ddd85828601612d80565b9150509250929050565b600067ffffffffffffffff821115612e0157612e01612cdf565b5060051b60200190565b600082601f830112612e1c57600080fd5b81356020612e2982612de7565b604051612e368282612cf5565b83815260059390931b8501820192828101915086841115612e5657600080fd5b8286015b84811015612e715780358352918301918301612e5a565b509695505050505050565b600080600080600060a08688031215612e9457600080fd5b612e9d86612b09565b9450612eab60208701612b09565b9350604086013567ffffffffffffffff80821115612ec857600080fd5b612ed489838a01612e0b565b94506060880135915080821115612eea57600080fd5b612ef689838a01612e0b565b93506080880135915080821115612f0c57600080fd5b50612f1988828901612d80565b9150509295509295909350565b600080600060608486031215612f3b57600080fd5b612f4484612b09565b95602085013595506040909401359392505050565b60008060408385031215612f6c57600080fd5b823567ffffffffffffffff80821115612f8457600080fd5b818501915085601f830112612f9857600080fd5b81356020612fa582612de7565b604051612fb28282612cf5565b83815260059390931b8501820192828101915089841115612fd257600080fd5b948201945b83861015612ff757612fe886612b09565b82529482019490820190612fd7565b9650508601359250508082111561300d57600080fd5b50612ddd85828601612e0b565b600081518084526020808501945080840160005b8381101561304a5781518752958201959082019060010161302e565b509495945050505050565b602081526000611d66602083018461301a565b60006020828403121561307a57600080fd5b813567ffffffffffffffff81111561309157600080fd5b8201601f810184136130a257600080fd5b6130b184823560208401612d22565b949350505050565b600080604083850312156130cc57600080fd5b6130d583612b09565b91506130e360208401612c73565b90509250929050565b6000602082840312156130fe57600080fd5b611d6682612c73565b60008060006060848603121561311c57600080fd5b8335925060208401359150604084013567ffffffffffffffff81111561314157600080fd5b61314d86828701612d80565b9150509250925092565b60008060008060008060c0878903121561317057600080fd5b505084359660208601359650604086013595606081013595506080810135945060a0013592509050565b600080604083850312156131ad57600080fd5b6131b683612b09565b91506130e360208401612b09565b600080600080600060a086880312156131dc57600080fd5b6131e586612b09565b94506131f360208701612b09565b93506040860135925060608601359150608086013567ffffffffffffffff81111561321d57600080fd5b612f1988828901612d80565b600181811c9082168061323d57607f821691505b60208210810361325d57634e487b7160e01b600052602260045260246000fd5b50919050565b634e487b7160e01b600052601160045260246000fd5b6000821982111561328c5761328c613263565b500190565b6000600182016132a3576132a3613263565b5060010190565b6020808252602b908201527f45746865722076616c75652073656e74206973206e6f7420657175616c20746f60408201526a103a343290383934b1b29760a91b606082015260800190565b6001600160a01b0394909416845260208401929092526040830152606082015260800190565b6020808252602e908201527f455243313135353a2063616c6c6572206973206e6f7420746f6b656e206f776e60408201526d195c881bdc88185c1c1c9bdd995960921b606082015260800190565b60008282101561337b5761337b613263565b500390565b634e487b7160e01b600052601260045260246000fd5b6000826133a5576133a5613380565b500490565b60008160001904831182151516156133c4576133c4613263565b500290565b634e487b7160e01b600052603260045260246000fd5b60208082526025908201527f455243313135353a207472616e7366657220746f20746865207a65726f206164604082015264647265737360d81b606082015260800190565b6020808252602a908201527f455243313135353a20696e73756666696369656e742062616c616e636520666f60408201526939103a3930b739b332b960b11b606082015260800190565b604081526000613481604083018561301a565b8281036020840152613493818561301a565b95945050505050565b6000826134ab576134ab613380565b500690565b6001600160a01b03868116825285166020820152604081018490526060810183905260a0608082018190526000906134ea90830184612b82565b979650505050505050565b60006020828403121561350757600080fd5b8151611d6681612b4f565b600060033d11156114165760046000803e5060005160e01c90565b600060443d101561353b5790565b6040516003193d81016004833e81513d67ffffffffffffffff816024840111818411171561356b57505050505090565b82850191508151818111156135835750505050505090565b843d870101602082850101111561359d5750505050505090565b6135ac60208286010187612cf5565b509095945050505050565b60208082526028908201527f455243313135353a204552433131353552656365697665722072656a656374656040820152676420746f6b656e7360c01b606082015260800190565b6001600160a01b0386811682528516602082015260a06040820181905260009061362b9083018661301a565b828103606084015261363d818661301a565b905082810360808401526136518185612b82565b98975050505050505050565b634e487b7160e01b600052602160045260246000fdfea26469706673582212205182e292c5d0966eb0f4b578ff67f3495e96cf22b84f83d9cb468aa62262bb4f64736f6c634300080d0033687474703a2f2f6170692e756e6e616d65746f6b656e2e636f6d2f4d657461646174612f7b69647d",
  "devdoc": {
    "kind": "dev",
    "methods": {
      "balanceOf(address,uint256)": {
        "details": "See {IERC1155-balanceOf}. Requirements: - `account` cannot be the zero address."
      },
      "balanceOfBatch(address[],uint256[])": {
        "details": "See {IERC1155-balanceOfBatch}. Requirements: - `accounts` and `ids` must have the same length."
      },
      "isApprovedForAll(address,address)": {
        "details": "See {IERC1155-isApprovedForAll}."
      },
      "safeBatchTransferFrom(address,address,uint256[],uint256[],bytes)": {
        "details": "See {IERC1155-safeBatchTransferFrom}."
      },
      "safeTransferFrom(address,address,uint256,uint256,bytes)": {
        "details": "See {IERC1155-safeTransferFrom}."
      },
      "setApprovalForAll(address,bool)": {
        "details": "See {IERC1155-setApprovalForAll}."
      },
      "supportsInterface(bytes4)": {
        "details": "See {IERC165-supportsInterface}."
      },
      "uri(uint256)": {
        "details": "See {IERC1155MetadataURI-uri}. This implementation returns the same URI for *all* token types. It relies on the token type ID substitution mechanism https://eips.ethereum.org/EIPS/eip-1155#metadata[defined in the EIP]. Clients calling this function must replace the `\\{id\\}` substring with the actual token type ID."
      }
    },
    "version": 1
  },
  "userdoc": {
    "kind": "user",
    "methods": {},
    "version": 1
  },
  "storageLayout": {
    "storage": [
      {
        "astId": 25,
        "contract": "contracts/Unname.sol:Unname",
        "label": "_balances",
        "offset": 0,
        "slot": "0",
        "type": "t_mapping(t_uint256,t_mapping(t_address,t_uint256))"
      },
      {
        "astId": 31,
        "contract": "contracts/Unname.sol:Unname",
        "label": "_operatorApprovals",
        "offset": 0,
        "slot": "1",
        "type": "t_mapping(t_address,t_mapping(t_address,t_bool))"
      },
      {
        "astId": 33,
        "contract": "contracts/Unname.sol:Unname",
        "label": "_uri",
        "offset": 0,
        "slot": "2",
        "type": "t_string_storage"
      },
      {
        "astId": 3679,
        "contract": "contracts/Unname.sol:Unname",
        "label": "_name",
        "offset": 0,
        "slot": "3",
        "type": "t_string_storage"
      },
      {
        "astId": 3682,
        "contract": "contracts/Unname.sol:Unname",
        "label": "_symbol",
        "offset": 0,
        "slot": "4",
        "type": "t_string_storage"
      },
      {
        "astId": 3685,
        "contract": "contracts/Unname.sol:Unname",
        "label": "MAX_NORMAL_TOKEN",
        "offset": 0,
        "slot": "5",
        "type": "t_uint256"
      },
      {
        "astId": 3688,
        "contract": "contracts/Unname.sol:Unname",
        "label": "MAX_SPECIAL_TOKEN",
        "offset": 0,
        "slot": "6",
        "type": "t_uint256"
      },
      {
        "astId": 3691,
        "contract": "contracts/Unname.sol:Unname",
        "label": "SPECIAL_CARD_CONDITION",
        "offset": 0,
        "slot": "7",
        "type": "t_uint256"
      },
      {
        "astId": 3694,
        "contract": "contracts/Unname.sol:Unname",
        "label": "MAX_ADDRESS_TOKEN",
        "offset": 0,
        "slot": "8",
        "type": "t_uint256"
      },
      {
        "astId": 3697,
        "contract": "contracts/Unname.sol:Unname",
        "label": "PRICE",
        "offset": 0,
        "slot": "9",
        "type": "t_uint256"
      },
      {
        "astId": 3700,
        "contract": "contracts/Unname.sol:Unname",
        "label": "saleTimestamp",
        "offset": 0,
        "slot": "10",
        "type": "t_uint256"
      },
      {
        "astId": 3703,
        "contract": "contracts/Unname.sol:Unname",
        "label": "normalSupply",
        "offset": 0,
        "slot": "11",
        "type": "t_uint256"
      },
      {
        "astId": 3706,
        "contract": "contracts/Unname.sol:Unname",
        "label": "specialSupply",
        "offset": 0,
        "slot": "12",
        "type": "t_uint256"
      },
      {
        "astId": 3709,
        "contract": "contracts/Unname.sol:Unname",
        "label": "claimStageLimit",
        "offset": 0,
        "slot": "13",
        "type": "t_uint256"
      },
      {
        "astId": 3712,
        "contract": "contracts/Unname.sol:Unname",
        "label": "auctionStageLimit",
        "offset": 0,
        "slot": "14",
        "type": "t_uint256"
      },
      {
        "astId": 3715,
        "contract": "contracts/Unname.sol:Unname",
        "label": "specialCardId",
        "offset": 0,
        "slot": "15",
        "type": "t_uint256"
      },
      {
        "astId": 3718,
        "contract": "contracts/Unname.sol:Unname",
        "label": "hasSaleStarted",
        "offset": 0,
        "slot": "16",
        "type": "t_bool"
      },
      {
        "astId": 3721,
        "contract": "contracts/Unname.sol:Unname",
        "label": "hasClaimStarted",
        "offset": 1,
        "slot": "16",
        "type": "t_bool"
      },
      {
        "astId": 3724,
        "contract": "contracts/Unname.sol:Unname",
        "label": "hasAuctionStarted",
        "offset": 2,
        "slot": "16",
        "type": "t_bool"
      },
      {
        "astId": 3727,
        "contract": "contracts/Unname.sol:Unname",
        "label": "whitelistSwitch",
        "offset": 3,
        "slot": "16",
        "type": "t_bool"
      },
      {
        "astId": 3730,
        "contract": "contracts/Unname.sol:Unname",
        "label": "burnStarted",
        "offset": 4,
        "slot": "16",
        "type": "t_bool"
      },
      {
        "astId": 3733,
        "contract": "contracts/Unname.sol:Unname",
        "label": "owner",
        "offset": 5,
        "slot": "16",
        "type": "t_address"
      },
      {
        "astId": 3736,
        "contract": "contracts/Unname.sol:Unname",
        "label": "treasury",
        "offset": 0,
        "slot": "17",
        "type": "t_address"
      },
      {
        "astId": 3739,
        "contract": "contracts/Unname.sol:Unname",
        "label": "signer",
        "offset": 0,
        "slot": "18",
        "type": "t_address"
      },
      {
        "astId": 3741,
        "contract": "contracts/Unname.sol:Unname",
        "label": "auctionStartTimestamp",
        "offset": 0,
        "slot": "19",
        "type": "t_uint256"
      },
      {
        "astId": 3743,
        "contract": "contracts/Unname.sol:Unname",
        "label": "auctionTimeStep",
        "offset": 0,
        "slot": "20",
        "type": "t_uint256"
      },
      {
        "astId": 3745,
        "contract": "contracts/Unname.sol:Unname",
        "label": "auctionStartPrice",
        "offset": 0,
        "slot": "21",
        "type": "t_uint256"
      },
      {
        "astId": 3747,
        "contract": "contracts/Unname.sol:Unname",
        "label": "auctionEndPrice",
        "offset": 0,
        "slot": "22",
        "type": "t_uint256"
      },
      {
        "astId": 3749,
        "contract": "contracts/Unname.sol:Unname",
        "label": "auctionPriceStep",
        "offset": 0,
        "slot": "23",
        "type": "t_uint256"
      },
      {
        "astId": 3751,
        "contract": "contracts/Unname.sol:Unname",
        "label": "auctionStepNumber",
        "offset": 0,
        "slot": "24",
        "type": "t_uint256"
      },
      {
        "astId": 3755,
        "contract": "contracts/Unname.sol:Unname",
        "label": "quantityLimit",
        "offset": 0,
        "slot": "25",
        "type": "t_mapping(t_uint256,t_uint256)"
      },
      {
        "astId": 3759,
        "contract": "contracts/Unname.sol:Unname",
        "label": "idHasMinted",
        "offset": 0,
        "slot": "26",
        "type": "t_mapping(t_uint256,t_uint256)"
      },
      {
        "astId": 3763,
        "contract": "contracts/Unname.sol:Unname",
        "label": "addressHasMinted",
        "offset": 0,
        "slot": "27",
        "type": "t_mapping(t_address,t_uint256)"
      },
      {
        "astId": 3767,
        "contract": "contracts/Unname.sol:Unname",
        "label": "addressHasClaimed",
        "offset": 0,
        "slot": "28",
        "type": "t_mapping(t_address,t_uint256)"
      }
    ],
    "types": {
      "t_address": {
        "encoding": "inplace",
        "label": "address",
        "numberOfBytes": "20"
      },
      "t_bool": {
        "encoding": "inplace",
        "label": "bool",
        "numberOfBytes": "1"
      },
      "t_mapping(t_address,t_bool)": {
        "encoding": "mapping",
        "key": "t_address",
        "label": "mapping(address => bool)",
        "numberOfBytes": "32",
        "value": "t_bool"
      },
      "t_mapping(t_address,t_mapping(t_address,t_bool))": {
        "encoding": "mapping",
        "key": "t_address",
        "label": "mapping(address => mapping(address => bool))",
        "numberOfBytes": "32",
        "value": "t_mapping(t_address,t_bool)"
      },
      "t_mapping(t_address,t_uint256)": {
        "encoding": "mapping",
        "key": "t_address",
        "label": "mapping(address => uint256)",
        "numberOfBytes": "32",
        "value": "t_uint256"
      },
      "t_mapping(t_uint256,t_mapping(t_address,t_uint256))": {
        "encoding": "mapping",
        "key": "t_uint256",
        "label": "mapping(uint256 => mapping(address => uint256))",
        "numberOfBytes": "32",
        "value": "t_mapping(t_address,t_uint256)"
      },
      "t_mapping(t_uint256,t_uint256)": {
        "encoding": "mapping",
        "key": "t_uint256",
        "label": "mapping(uint256 => uint256)",
        "numberOfBytes": "32",
        "value": "t_uint256"
      },
      "t_string_storage": {
        "encoding": "bytes",
        "label": "string",
        "numberOfBytes": "32"
      },
      "t_uint256": {
        "encoding": "inplace",
        "label": "uint256",
        "numberOfBytes": "32"
      }
    }
  }
}