{
  "address": "0x77E4c192b6ab081584aBB7d71E795663587f7324",
  "abi": [
    {
      "inputs": [],
      "stateMutability": "nonpayable",
      "type": "constructor"
    },
    {
      "inputs": [
        {
          "internalType": "address",
          "name": "operator",
          "type": "address"
        }
      ],
      "name": "OperatorNotAllowed",
      "type": "error"
    },
    {
      "anonymous": false,
      "inputs": [
        {
          "indexed": true,
          "internalType": "address",
          "name": "account",
          "type": "address"
        },
        {
          "indexed": true,
          "internalType": "address",
          "name": "operator",
          "type": "address"
        },
        {
          "indexed": false,
          "internalType": "bool",
          "name": "approved",
          "type": "bool"
        }
      ],
      "name": "ApprovalForAll",
      "type": "event"
    },
    {
      "anonymous": false,
      "inputs": [
        {
          "indexed": true,
          "internalType": "address",
          "name": "operator",
          "type": "address"
        },
        {
          "indexed": true,
          "internalType": "address",
          "name": "from",
          "type": "address"
        },
        {
          "indexed": true,
          "internalType": "address",
          "name": "to",
          "type": "address"
        },
        {
          "indexed": false,
          "internalType": "uint256[]",
          "name": "ids",
          "type": "uint256[]"
        },
        {
          "indexed": false,
          "internalType": "uint256[]",
          "name": "values",
          "type": "uint256[]"
        }
      ],
      "name": "TransferBatch",
      "type": "event"
    },
    {
      "anonymous": false,
      "inputs": [
        {
          "indexed": true,
          "internalType": "address",
          "name": "operator",
          "type": "address"
        },
        {
          "indexed": true,
          "internalType": "address",
          "name": "from",
          "type": "address"
        },
        {
          "indexed": true,
          "internalType": "address",
          "name": "to",
          "type": "address"
        },
        {
          "indexed": false,
          "internalType": "uint256",
          "name": "id",
          "type": "uint256"
        },
        {
          "indexed": false,
          "internalType": "uint256",
          "name": "value",
          "type": "uint256"
        }
      ],
      "name": "TransferSingle",
      "type": "event"
    },
    {
      "anonymous": false,
      "inputs": [
        {
          "indexed": false,
          "internalType": "string",
          "name": "value",
          "type": "string"
        },
        {
          "indexed": true,
          "internalType": "uint256",
          "name": "id",
          "type": "uint256"
        }
      ],
      "name": "URI",
      "type": "event"
    },
    {
      "anonymous": false,
      "inputs": [
        {
          "indexed": false,
          "internalType": "address",
          "name": "owner",
          "type": "address"
        },
        {
          "indexed": false,
          "internalType": "uint256",
          "name": "id",
          "type": "uint256"
        },
        {
          "indexed": false,
          "internalType": "uint256",
          "name": "quantity",
          "type": "uint256"
        },
        {
          "indexed": false,
          "internalType": "uint256",
          "name": "totalSupply",
          "type": "uint256"
        }
      ],
      "name": "mintEvent",
      "type": "event"
    },
    {
      "inputs": [],
      "name": "MAX_ADDRESS_TOKEN",
      "outputs": [
        {
          "internalType": "uint256",
          "name": "",
          "type": "uint256"
        }
      ],
      "stateMutability": "view",
      "type": "function"
    },
    {
      "inputs": [],
      "name": "MAX_NORMAL_TOKEN",
      "outputs": [
        {
          "internalType": "uint256",
          "name": "",
          "type": "uint256"
        }
      ],
      "stateMutability": "view",
      "type": "function"
    },
    {
      "inputs": [],
      "name": "MAX_SPECIAL_TOKEN",
      "outputs": [
        {
          "internalType": "uint256",
          "name": "",
          "type": "uint256"
        }
      ],
      "stateMutability": "view",
      "type": "function"
    },
    {
      "inputs": [],
      "name": "OPERATOR_FILTER_REGISTRY",
      "outputs": [
        {
          "internalType": "contract IOperatorFilterRegistry",
          "name": "",
          "type": "address"
        }
      ],
      "stateMutability": "view",
      "type": "function"
    },
    {
      "inputs": [],
      "name": "PRICE",
      "outputs": [
        {
          "internalType": "uint256",
          "name": "",
          "type": "uint256"
        }
      ],
      "stateMutability": "view",
      "type": "function"
    },
    {
      "inputs": [],
      "name": "SPECIAL_CARD_CONDITION",
      "outputs": [
        {
          "internalType": "uint256",
          "name": "",
          "type": "uint256"
        }
      ],
      "stateMutability": "view",
      "type": "function"
    },
    {
      "inputs": [
        {
          "internalType": "address",
          "name": "",
          "type": "address"
        }
      ],
      "name": "addressHasClaimed",
      "outputs": [
        {
          "internalType": "uint256",
          "name": "",
          "type": "uint256"
        }
      ],
      "stateMutability": "view",
      "type": "function"
    },
    {
      "inputs": [
        {
          "internalType": "address",
          "name": "",
          "type": "address"
        }
      ],
      "name": "addressHasMinted",
      "outputs": [
        {
          "internalType": "uint256",
          "name": "",
          "type": "uint256"
        }
      ],
      "stateMutability": "view",
      "type": "function"
    },
    {
      "inputs": [],
      "name": "auctionEndPrice",
      "outputs": [
        {
          "internalType": "uint256",
          "name": "",
          "type": "uint256"
        }
      ],
      "stateMutability": "view",
      "type": "function"
    },
    {
      "inputs": [],
      "name": "auctionPriceStep",
      "outputs": [
        {
          "internalType": "uint256",
          "name": "",
          "type": "uint256"
        }
      ],
      "stateMutability": "view",
      "type": "function"
    },
    {
      "inputs": [],
      "name": "auctionStageLimit",
      "outputs": [
        {
          "internalType": "uint256",
          "name": "",
          "type": "uint256"
        }
      ],
      "stateMutability": "view",
      "type": "function"
    },
    {
      "inputs": [],
      "name": "auctionStartPrice",
      "outputs": [
        {
          "internalType": "uint256",
          "name": "",
          "type": "uint256"
        }
      ],
      "stateMutability": "view",
      "type": "function"
    },
    {
      "inputs": [],
      "name": "auctionStartTimestamp",
      "outputs": [
        {
          "internalType": "uint256",
          "name": "",
          "type": "uint256"
        }
      ],
      "stateMutability": "view",
      "type": "function"
    },
    {
      "inputs": [],
      "name": "auctionStepNumber",
      "outputs": [
        {
          "internalType": "uint256",
          "name": "",
          "type": "uint256"
        }
      ],
      "stateMutability": "view",
      "type": "function"
    },
    {
      "inputs": [],
      "name": "auctionTimeStep",
      "outputs": [
        {
          "internalType": "uint256",
          "name": "",
          "type": "uint256"
        }
      ],
      "stateMutability": "view",
      "type": "function"
    },
    {
      "inputs": [
        {
          "internalType": "address",
          "name": "account",
          "type": "address"
        },
        {
          "internalType": "uint256",
          "name": "id",
          "type": "uint256"
        }
      ],
      "name": "balanceOf",
      "outputs": [
        {
          "internalType": "uint256",
          "name": "",
          "type": "uint256"
        }
      ],
      "stateMutability": "view",
      "type": "function"
    },
    {
      "inputs": [
        {
          "internalType": "address[]",
          "name": "accounts",
          "type": "address[]"
        },
        {
          "internalType": "uint256[]",
          "name": "ids",
          "type": "uint256[]"
        }
      ],
      "name": "balanceOfBatch",
      "outputs": [
        {
          "internalType": "uint256[]",
          "name": "",
          "type": "uint256[]"
        }
      ],
      "stateMutability": "view",
      "type": "function"
    },
    {
      "inputs": [
        {
          "internalType": "address",
          "name": "account",
          "type": "address"
        },
        {
          "internalType": "uint256",
          "name": "id",
          "type": "uint256"
        },
        {
          "internalType": "uint256",
          "name": "quantity",
          "type": "uint256"
        }
      ],
      "name": "burn",
      "outputs": [],
      "stateMutability": "nonpayable",
      "type": "function"
    },
    {
      "inputs": [],
      "name": "burnStarted",
      "outputs": [
        {
          "internalType": "bool",
          "name": "",
          "type": "bool"
        }
      ],
      "stateMutability": "view",
      "type": "function"
    },
    {
      "inputs": [
        {
          "internalType": "uint256",
          "name": "maxQuantity",
          "type": "uint256"
        },
        {
          "internalType": "bytes",
          "name": "SIGNATURE",
          "type": "bytes"
        }
      ],
      "name": "claimSpecial",
      "outputs": [],
      "stateMutability": "payable",
      "type": "function"
    },
    {
      "inputs": [],
      "name": "claimStageLimit",
      "outputs": [
        {
          "internalType": "uint256",
          "name": "",
          "type": "uint256"
        }
      ],
      "stateMutability": "view",
      "type": "function"
    },
    {
      "inputs": [],
      "name": "getDutchAuctionPrice",
      "outputs": [
        {
          "internalType": "uint256",
          "name": "",
          "type": "uint256"
        }
      ],
      "stateMutability": "view",
      "type": "function"
    },
    {
      "inputs": [
        {
          "internalType": "address",
          "name": "to",
          "type": "address"
        },
        {
          "internalType": "uint256",
          "name": "id",
          "type": "uint256"
        },
        {
          "internalType": "uint256",
          "name": "quantity",
          "type": "uint256"
        }
      ],
      "name": "giveawayNFT",
      "outputs": [],
      "stateMutability": "nonpayable",
      "type": "function"
    },
    {
      "inputs": [],
      "name": "hasAuctionStarted",
      "outputs": [
        {
          "internalType": "bool",
          "name": "",
          "type": "bool"
        }
      ],
      "stateMutability": "view",
      "type": "function"
    },
    {
      "inputs": [],
      "name": "hasClaimStarted",
      "outputs": [
        {
          "internalType": "bool",
          "name": "",
          "type": "bool"
        }
      ],
      "stateMutability": "view",
      "type": "function"
    },
    {
      "inputs": [],
      "name": "hasSaleStarted",
      "outputs": [
        {
          "internalType": "bool",
          "name": "",
          "type": "bool"
        }
      ],
      "stateMutability": "view",
      "type": "function"
    },
    {
      "inputs": [
        {
          "internalType": "uint256",
          "name": "",
          "type": "uint256"
        }
      ],
      "name": "idHasMinted",
      "outputs": [
        {
          "internalType": "uint256",
          "name": "",
          "type": "uint256"
        }
      ],
      "stateMutability": "view",
      "type": "function"
    },
    {
      "inputs": [
        {
          "internalType": "address",
          "name": "account",
          "type": "address"
        },
        {
          "internalType": "address",
          "name": "operator",
          "type": "address"
        }
      ],
      "name": "isApprovedForAll",
      "outputs": [
        {
          "internalType": "bool",
          "name": "",
          "type": "bool"
        }
      ],
      "stateMutability": "view",
      "type": "function"
    },
    {
      "inputs": [
        {
          "internalType": "uint256",
          "name": "quantity",
          "type": "uint256"
        },
        {
          "internalType": "uint256",
          "name": "maxQuantity",
          "type": "uint256"
        },
        {
          "internalType": "bytes",
          "name": "SIGNATURE",
          "type": "bytes"
        }
      ],
      "name": "mintNormal",
      "outputs": [],
      "stateMutability": "payable",
      "type": "function"
    },
    {
      "inputs": [],
      "name": "name",
      "outputs": [
        {
          "internalType": "string",
          "name": "",
          "type": "string"
        }
      ],
      "stateMutability": "view",
      "type": "function"
    },
    {
      "inputs": [],
      "name": "normalSupply",
      "outputs": [
        {
          "internalType": "uint256",
          "name": "",
          "type": "uint256"
        }
      ],
      "stateMutability": "view",
      "type": "function"
    },
    {
      "inputs": [],
      "name": "owner",
      "outputs": [
        {
          "internalType": "address",
          "name": "",
          "type": "address"
        }
      ],
      "stateMutability": "view",
      "type": "function"
    },
    {
      "inputs": [
        {
          "internalType": "uint256",
          "name": "",
          "type": "uint256"
        }
      ],
      "name": "quantityLimit",
      "outputs": [
        {
          "internalType": "uint256",
          "name": "",
          "type": "uint256"
        }
      ],
      "stateMutability": "view",
      "type": "function"
    },
    {
      "inputs": [
        {
          "internalType": "address",
          "name": "from",
          "type": "address"
        },
        {
          "internalType": "address",
          "name": "to",
          "type": "address"
        },
        {
          "internalType": "uint256[]",
          "name": "ids",
          "type": "uint256[]"
        },
        {
          "internalType": "uint256[]",
          "name": "amounts",
          "type": "uint256[]"
        },
        {
          "internalType": "bytes",
          "name": "data",
          "type": "bytes"
        }
      ],
      "name": "safeBatchTransferFrom",
      "outputs": [],
      "stateMutability": "nonpayable",
      "type": "function"
    },
    {
      "inputs": [
        {
          "internalType": "address",
          "name": "from",
          "type": "address"
        },
        {
          "internalType": "address",
          "name": "to",
          "type": "address"
        },
        {
          "internalType": "uint256",
          "name": "tokenId",
          "type": "uint256"
        },
        {
          "internalType": "uint256",
          "name": "amount",
          "type": "uint256"
        },
        {
          "internalType": "bytes",
          "name": "data",
          "type": "bytes"
        }
      ],
      "name": "safeTransferFrom",
      "outputs": [],
      "stateMutability": "nonpayable",
      "type": "function"
    },
    {
      "inputs": [],
      "name": "saleTimestamp",
      "outputs": [
        {
          "internalType": "uint256",
          "name": "",
          "type": "uint256"
        }
      ],
      "stateMutability": "view",
      "type": "function"
    },
    {
      "inputs": [
        {
          "internalType": "address",
          "name": "operator",
          "type": "address"
        },
        {
          "internalType": "bool",
          "name": "approved",
          "type": "bool"
        }
      ],
      "name": "setApprovalForAll",
      "outputs": [],
      "stateMutability": "nonpayable",
      "type": "function"
    },
    {
      "inputs": [
        {
          "internalType": "string",
          "name": "baseURI",
          "type": "string"
        }
      ],
      "name": "setBaseURI",
      "outputs": [],
      "stateMutability": "nonpayable",
      "type": "function"
    },
    {
      "inputs": [
        {
          "internalType": "bool",
          "name": "_burnStarted",
          "type": "bool"
        }
      ],
      "name": "setBurn",
      "outputs": [],
      "stateMutability": "nonpayable",
      "type": "function"
    },
    {
      "inputs": [
        {
          "internalType": "uint256",
          "name": "_auctionStartTimestamp",
          "type": "uint256"
        },
        {
          "internalType": "uint256",
          "name": "_auctionTimeStep",
          "type": "uint256"
        },
        {
          "internalType": "uint256",
          "name": "_auctionStartPrice",
          "type": "uint256"
        },
        {
          "internalType": "uint256",
          "name": "_auctionEndPrice",
          "type": "uint256"
        },
        {
          "internalType": "uint256",
          "name": "_auctionPriceStep",
          "type": "uint256"
        },
        {
          "internalType": "uint256",
          "name": "_auctionStepNumber",
          "type": "uint256"
        }
      ],
      "name": "setDutchAuction",
      "outputs": [],
      "stateMutability": "nonpayable",
      "type": "function"
    },
    {
      "inputs": [
        {
          "internalType": "uint256",
          "name": "_id",
          "type": "uint256"
        },
        {
          "internalType": "uint256",
          "name": "_MAX",
          "type": "uint256"
        }
      ],
      "name": "setIdLimit",
      "outputs": [],
      "stateMutability": "nonpayable",
      "type": "function"
    },
    {
      "inputs": [
        {
          "internalType": "address",
          "name": "_owner",
          "type": "address"
        }
      ],
      "name": "setOwner",
      "outputs": [],
      "stateMutability": "nonpayable",
      "type": "function"
    },
    {
      "inputs": [
        {
          "internalType": "uint256",
          "name": "_price",
          "type": "uint256"
        }
      ],
      "name": "setPRICE",
      "outputs": [],
      "stateMutability": "nonpayable",
      "type": "function"
    },
    {
      "inputs": [
        {
          "internalType": "bool",
          "name": "_hasSaleStarted",
          "type": "bool"
        },
        {
          "internalType": "bool",
          "name": "_hasClaimStarted",
          "type": "bool"
        },
        {
          "internalType": "bool",
          "name": "_hasAuctionStarted",
          "type": "bool"
        },
        {
          "internalType": "bool",
          "name": "_whitelistSwitch",
          "type": "bool"
        },
        {
          "internalType": "uint256",
          "name": "_saleTimestamp",
          "type": "uint256"
        }
      ],
      "name": "setSaleSwitch",
      "outputs": [],
      "stateMutability": "nonpayable",
      "type": "function"
    },
    {
      "inputs": [
        {
          "internalType": "address",
          "name": "_signer",
          "type": "address"
        }
      ],
      "name": "setSigner",
      "outputs": [],
      "stateMutability": "nonpayable",
      "type": "function"
    },
    {
      "inputs": [
        {
          "internalType": "uint256",
          "name": "_claimStageLimit",
          "type": "uint256"
        },
        {
          "internalType": "uint256",
          "name": "_auctionStageLimit",
          "type": "uint256"
        }
      ],
      "name": "setStageLimit",
      "outputs": [],
      "stateMutability": "nonpayable",
      "type": "function"
    },
    {
      "inputs": [
        {
          "internalType": "uint256",
          "name": "_MAX_NORMAL_TOKEN",
          "type": "uint256"
        },
        {
          "internalType": "uint256",
          "name": "_MAX_SPECIAL_TOKEN",
          "type": "uint256"
        },
        {
          "internalType": "uint256",
          "name": "_SPECIAL_CARD_CONDITION",
          "type": "uint256"
        },
        {
          "internalType": "uint256",
          "name": "_MAX_ADDRESS_TOKEN",
          "type": "uint256"
        },
        {
          "internalType": "uint256",
          "name": "_specialCardId",
          "type": "uint256"
        }
      ],
      "name": "setTokenLimit",
      "outputs": [],
      "stateMutability": "nonpayable",
      "type": "function"
    },
    {
      "inputs": [
        {
          "internalType": "address",
          "name": "_treasury",
          "type": "address"
        }
      ],
      "name": "setTreasury",
      "outputs": [],
      "stateMutability": "nonpayable",
      "type": "function"
    },
    {
      "inputs": [],
      "name": "signer",
      "outputs": [
        {
          "internalType": "address",
          "name": "",
          "type": "address"
        }
      ],
      "stateMutability": "view",
      "type": "function"
    },
    {
      "inputs": [],
      "name": "specialCardId",
      "outputs": [
        {
          "internalType": "uint256",
          "name": "",
          "type": "uint256"
        }
      ],
      "stateMutability": "view",
      "type": "function"
    },
    {
      "inputs": [],
      "name": "specialSupply",
      "outputs": [
        {
          "internalType": "uint256",
          "name": "",
          "type": "uint256"
        }
      ],
      "stateMutability": "view",
      "type": "function"
    },
    {
      "inputs": [
        {
          "internalType": "bytes4",
          "name": "interfaceId",
          "type": "bytes4"
        }
      ],
      "name": "supportsInterface",
      "outputs": [
        {
          "internalType": "bool",
          "name": "",
          "type": "bool"
        }
      ],
      "stateMutability": "view",
      "type": "function"
    },
    {
      "inputs": [],
      "name": "symbol",
      "outputs": [
        {
          "internalType": "string",
          "name": "",
          "type": "string"
        }
      ],
      "stateMutability": "view",
      "type": "function"
    },
    {
      "inputs": [],
      "name": "totalSupply",
      "outputs": [
        {
          "internalType": "uint256",
          "name": "",
          "type": "uint256"
        }
      ],
      "stateMutability": "view",
      "type": "function"
    },
    {
      "inputs": [],
      "name": "treasury",
      "outputs": [
        {
          "internalType": "address",
          "name": "",
          "type": "address"
        }
      ],
      "stateMutability": "view",
      "type": "function"
    },
    {
      "inputs": [
        {
          "internalType": "uint256",
          "name": "",
          "type": "uint256"
        }
      ],
      "name": "uri",
      "outputs": [
        {
          "internalType": "string",
          "name": "",
          "type": "string"
        }
      ],
      "stateMutability": "view",
      "type": "function"
    },
    {
      "inputs": [
        {
          "internalType": "uint256",
          "name": "maxQuantity",
          "type": "uint256"
        },
        {
          "internalType": "bytes",
          "name": "SIGNATURE",
          "type": "bytes"
        }
      ],
      "name": "verify",
      "outputs": [
        {
          "internalType": "bool",
          "name": "",
          "type": "bool"
        }
      ],
      "stateMutability": "view",
      "type": "function"
    },
    {
      "inputs": [],
      "name": "whitelistSwitch",
      "outputs": [
        {
          "internalType": "bool",
          "name": "",
          "type": "bool"
        }
      ],
      "stateMutability": "view",
      "type": "function"
    },
    {
      "inputs": [],
      "name": "withdrawAll",
      "outputs": [],
      "stateMutability": "payable",
      "type": "function"
    }
  ],
  "transactionHash": "0x06edec98560d7df602358f38793c2bf9118c11da267ca016dd54d25888db489d",
  "args": [],
  "numDeployments": 1,
  "solcInputHash": "cdba1b5866dbb1cf02bbbfe13f182601",
  "bytecode": "0x6101806040526001610140819052600560fc1b61016090815262000027916003919062000405565b50604080518082019091526004808252631411955560e21b602090920191825262000053918162000405565b50610898600581905560166006556003600755600a60088190556702c68af0bb1400006009556361e5301090556000600b819055600c55601e600d55600e556015600f55601080546001600160c81b031916785279246e3626cebe71a4c181382a50a71d2a4156000000000017905560118054735279246e3626cebe71a4c181382a50a71d2a41566001600160a01b031991821681179092556012805490911690911790553480156200010557600080fd5b50733cc6cdda760b79bafa08df41ecfa224f810dceb6600160405180606001604052806028815260200162003d82602891396040805180820182526006815265556e6e616d6560d01b6020808301918252835180850190945260058452640312e302e360dc1b908401528151902060e08190527f06c015bd22b4c69690933c1058878ebdfef31f9aaae40bbe86d8a09fe1b2972c6101008190524660a0529192917f8b73c3c69bb8fe3d512ecc4cf759cc79239f7b179b0ffacaa9a75d522b39400f620002178184846040805160208101859052908101839052606081018290524660808201523060a082015260009060c0016040516020818303038152906040528051906020012090509392505050565b6080523060c052610120525062000233925083915050620003ec565b506daaeb6d7670e522a718067333cd4e3b1562000379578015620002c757604051633e9f1edf60e11b81523060048201526001600160a01b03831660248201526daaeb6d7670e522a718067333cd4e90637d3e3dbe906044015b600060405180830381600087803b158015620002a857600080fd5b505af1158015620002bd573d6000803e3d6000fd5b5050505062000379565b6001600160a01b03821615620003185760405163a0af290360e01b81523060048201526001600160a01b03831660248201526daaeb6d7670e522a718067333cd4e9063a0af2903906044016200028d565b604051632210724360e11b81523060048201526daaeb6d7670e522a718067333cd4e90634420e48690602401600060405180830381600087803b1580156200035f57600080fd5b505af115801562000374573d6000803e3d6000fd5b505050505b50600190505b6015811015620003b0576000818152601960205260409020606e905580620003a781620004ab565b9150506200037f565b5060155b602b811015620003e55760008181526019602052604090206001905580620003dc81620004ab565b915050620003b4565b506200050f565b80516200040190600290602084019062000405565b5050565b8280546200041390620004d3565b90600052602060002090601f01602090048101928262000437576000855562000482565b82601f106200045257805160ff191683800117855562000482565b8280016001018555821562000482579182015b828111156200048257825182559160200191906001019062000465565b506200049092915062000494565b5090565b5b8082111562000490576000815560010162000495565b600060018201620004cc57634e487b7160e01b600052601160045260246000fd5b5060010190565b600181811c90821680620004e857607f821691505b6020821081036200050957634e487b7160e01b600052602260045260246000fd5b50919050565b60805160a05160c05160e05161010051610120516138236200055f600039600061260c0152600061265b015260006126360152600061258f015260006125b9015260006125e301526138236000f3fe60806040526004361061038b5760003560e01c806385852ce4116101dc578063c6a96c8f11610102578063e7e43465116100a0578063f242432a1161006f578063f242432a14610a2b578063f5298aca14610a4b578063f5bb134e14610a6b578063fbf76eb214610a8157600080fd5b8063e7e4346514610982578063e985e9c5146109a2578063eea52d38146109eb578063f0f4426014610a0b57600080fd5b8063d756985b116100dc578063d756985b14610913578063d7eef86514610929578063dcb8101f1461093f578063e2e771a41461096c57600080fd5b8063c6a96c8f146108d1578063c7822598146108e7578063cca8a0d8146108fd57600080fd5b8063a04a6ac81161017a578063bcd25ee511610149578063bcd25ee514610867578063bd55cf0d14610888578063c44f81e2146108a8578063c4f9ff10146108be57600080fd5b8063a04a6ac8146107ee578063a22cb46514610804578063a5b5665c14610824578063b2a098d91461083a57600080fd5b80638da5cb5b116101b65780638da5cb5b146107845780639196eba5146107ad57806395d89b41146107c3578063964dd240146107d857600080fd5b806385852ce414610738578063862a2b45146107585780638d859f3e1461076e57600080fd5b80632e1de27f116102c15780634b30a9101161025f57806361d027b31161022e57806361d027b3146106d15780636c19e783146106f1578063717bf33614610711578063853828b61461073057600080fd5b80634b30a910146106425780634ca4fb34146106575780634e1273f41461068457806355f804b3146106b157600080fd5b806341f434341161029b57806341f43434146105c757806344944f31146105e95780634698a3d81461061657806348b5f2bc1461062c57600080fd5b80632e1de27f146105745780632eb2c2d6146105875780634017b12f146105a757600080fd5b806318160ddd1161032e578063238ac93311610308578063238ac933146104dc57806326df66ce14610514578063271cb22f146105345780632db218b61461055457600080fd5b806318160ddd1461048d57806319cb4a1c146104a25780631c8b232d146104c257600080fd5b80630af012dd1161036a5780630af012dd146104155780630b07e4d1146104375780630e89341c1461044d57806313af40351461046d57600080fd5b8062fdd58e1461039057806301ffc9a7146103c357806306fdde03146103f3575b600080fd5b34801561039c57600080fd5b506103b06103ab366004612c6d565b610aa3565b6040519081526020015b60405180910390f35b3480156103cf57600080fd5b506103e36103de366004612cad565b610b39565b60405190151581526020016103ba565b3480156103ff57600080fd5b50610408610b8b565b6040516103ba9190612d17565b34801561042157600080fd5b50610435610430366004612d2a565b610c1d565b005b34801561044357600080fd5b506103b060055481565b34801561045957600080fd5b50610408610468366004612d4c565b610c30565b34801561047957600080fd5b50610435610488366004612d65565b610cc4565b34801561049957600080fd5b506103b0610cfc565b3480156104ae57600080fd5b506104356104bd366004612d80565b610d13565b3480156104ce57600080fd5b506010546103e39060ff1681565b3480156104e857600080fd5b506012546104fc906001600160a01b031681565b6040516001600160a01b0390911681526020016103ba565b34801561052057600080fd5b506010546103e39062010000900460ff1681565b34801561054057600080fd5b5061043561054f366004612d2a565b610d32565b34801561056057600080fd5b5061043561056f366004612dc9565b610d4c565b610435610582366004612eee565b610da8565b34801561059357600080fd5b506104356105a2366004612fca565b6111e1565b3480156105b357600080fd5b506104356105c2366004613074565b611210565b3480156105d357600080fd5b506104fc6daaeb6d7670e522a718067333cd4e81565b3480156105f557600080fd5b506103b0610604366004612d65565b601c6020526000908152604090205481565b34801561062257600080fd5b506103b060175481565b34801561063857600080fd5b506103b0600b5481565b34801561064e57600080fd5b506103b0611352565b34801561066357600080fd5b506103b0610672366004612d4c565b601a6020526000908152604090205481565b34801561069057600080fd5b506106a461069f3660046130a7565b611429565b6040516103ba91906131a3565b3480156106bd57600080fd5b506104356106cc3660046131b6565b611553565b3480156106dd57600080fd5b506011546104fc906001600160a01b031681565b3480156106fd57600080fd5b5061043561070c366004612d65565b611567565b34801561071d57600080fd5b506010546103e390610100900460ff1681565b6104356115de565b34801561074457600080fd5b506103e3610753366004612eee565b611619565b34801561076457600080fd5b506103b060085481565b34801561077a57600080fd5b506103b060095481565b34801561079057600080fd5b506010546104fc906501000000000090046001600160a01b031681565b3480156107b957600080fd5b506103b060145481565b3480156107cf57600080fd5b506104086116a3565b3480156107e457600080fd5b506103b060185481565b3480156107fa57600080fd5b506103b060165481565b34801561081057600080fd5b5061043561081f366004613207565b6116b2565b34801561083057600080fd5b506103b0600c5481565b34801561084657600080fd5b506103b0610855366004612d65565b601b6020526000908152604090205481565b34801561087357600080fd5b506010546103e3906301000000900460ff1681565b34801561089457600080fd5b506104356108a336600461323e565b6116cb565b3480156108b457600080fd5b506103b0600d5481565b6104356108cc36600461325b565b6116f3565b3480156108dd57600080fd5b506103b060135481565b3480156108f357600080fd5b506103b0600a5481565b34801561090957600080fd5b506103b060075481565b34801561091f57600080fd5b506103b060155481565b34801561093557600080fd5b506103b0600e5481565b34801561094b57600080fd5b506103b061095a366004612d4c565b60196020526000908152604090205481565b34801561097857600080fd5b506103b0600f5481565b34801561098e57600080fd5b5061043561099d3660046132ab565b611b9b565b3480156109ae57600080fd5b506103e36109bd3660046132ee565b6001600160a01b03918216600090815260016020908152604080832093909416825291909152205460ff1690565b3480156109f757600080fd5b50610435610a06366004612d4c565b611bc0565b348015610a1757600080fd5b50610435610a26366004612d65565b611bcd565b348015610a3757600080fd5b50610435610a46366004613321565b611bf7565b348015610a5757600080fd5b50610435610a66366004613074565b611c1e565b348015610a7757600080fd5b506103b060065481565b348015610a8d57600080fd5b506010546103e390640100000000900460ff1681565b60006001600160a01b038316610b135760405162461bcd60e51b815260206004820152602a60248201527f455243313135353a2061646472657373207a65726f206973206e6f742061207660448201526930b634b21037bbb732b960b11b60648201526084015b60405180910390fd5b506000908152602081815260408083206001600160a01b03949094168352929052205490565b60006001600160e01b03198216636cdb3d1360e11b1480610b6a57506001600160e01b031982166303a24d0760e21b145b80610b8557506301ffc9a760e01b6001600160e01b03198316145b92915050565b606060038054610b9a90613386565b80601f0160208091040260200160405190810160405280929190818152602001828054610bc690613386565b8015610c135780601f10610be857610100808354040283529160200191610c13565b820191906000526020600020905b815481529060010190602001808311610bf657829003601f168201915b5050505050905090565b610c25611cf1565b600d91909155600e55565b606060028054610c3f90613386565b80601f0160208091040260200160405190810160405280929190818152602001828054610c6b90613386565b8015610cb85780601f10610c8d57610100808354040283529160200191610cb8565b820191906000526020600020905b815481529060010190602001808311610c9b57829003601f168201915b50505050509050919050565b610ccc611cf1565b601080546001600160a01b03909216650100000000000265010000000000600160c81b0319909216919091179055565b6000600c54600b54610d0e91906133d6565b905090565b610d1b611cf1565b600594909455600692909255600755600855600f55565b610d3a611cf1565b60009182526019602052604090912055565b610d54611cf1565b6010805492151563010000000263ff0000001994151562010000029490941663ffff0000199515156101000261ff00199715159790971661ffff199094169390931795909517939093161717909155600a55565b60105460ff610100909104161515600114610dfe5760405162461bcd60e51b815260206004820152601660248201527521b630b4b6903430b9903737ba1039ba30b93a32b21760511b6044820152606401610b0a565b600a54421015610e445760405162461bcd60e51b81526020600482015260116024820152704e4f545f494e5f434c41494d5f54494d4560781b6044820152606401610b0a565b600d54600f541115610eae5760405162461bcd60e51b815260206004820152602d60248201527f45786365656420746865207370656369616c206964206f6620636c61696d206160448201526c3a103a3434b99039ba30b3b29760991b6064820152608401610b0a565b610eb88282611619565b610f045760405162461bcd60e51b815260206004820152601760248201527f4e6f7420656c696769626c6520666f7220636c61696d2e0000000000000000006044820152606401610b0a565b600060015b6015811015610f4157610f1c3382610aa3565b15610f2f57610f2c8260016133d6565b91505b80610f39816133ee565b915050610f09565b50600754811015610f945760405162461bcd60e51b815260206004820152601760248201527f4e6f7420656e6f756768206e6f726d616c20636172642e0000000000000000006044820152606401610b0a565b600954341015610fb65760405162461bcd60e51b8152600401610b0a90613407565b600654600c54610fc7906001611d49565b11156110155760405162461bcd60e51b815260206004820152601a60248201527f45786365656473204d41585f5350454349414c5f544f4b454e2e0000000000006044820152606401610b0a565b600f54600090815260196020908152604080832054601a9092529091205461103e906001611d49565b111561108c5760405162461bcd60e51b815260206004820152601a60248201527f45786365656473206964207175616e74697479206c696d69742e0000000000006044820152606401610b0a565b336000908152601c602052604090205483906110a9906001611d49565b11156110f75760405162461bcd60e51b815260206004820152601760248201527f4578636565647320636c61696d207175616e746974792e0000000000000000006044820152606401610b0a565b600f546000908152601a6020526040902054611114906001611d49565b600f546000908152601a6020908152604080832093909355338252601c90522054611140906001611d49565b336000818152601c6020908152604080832094909455600f5484519182019094529081526111719290600190611d5c565b600c5461117f906001611d49565b600c55600f547fb32c32014221c522f5b713daa9a1df4bd21450f8b5c763ba3ca01f088f95c86490339060016111b3610cfc565b6040516111c39493929190613452565b60405180910390a1600f546111d99060016133d6565b600f55505050565b846001600160a01b03811633146111fb576111fb33611e70565b6112088686868686611f29565b505050505050565b611218611cf1565b60008111801561124b5750600082815260196020908152604080832054601a909252909120546112489083611d49565b11155b6112975760405162461bcd60e51b815260206004820152601a60248201527f45786365656473206964207175616e74697479206c696d69742e0000000000006044820152606401610b0a565b6112b283838360405180602001604052806000815250611d5c565b60148211156112d057600c546112c89082611d49565b600c556112e1565b600b546112dd9082611d49565b600b555b6000828152601a60205260409020546112fa9082611d49565b6000838152601a60205260409020557fb32c32014221c522f5b713daa9a1df4bd21450f8b5c763ba3ca01f088f95c864838383611335610cfc565b6040516113459493929190613452565b60405180910390a1505050565b60105460009062010000900460ff1615156001146113a75760405162461bcd60e51b815260206004820152601260248201527141554354494f4e5f4e4f545f41435449564560701b6044820152606401610b0a565b6013544210156113b8575060155490565b6000601454601354426113cb9190613478565b6113d591906134a5565b90506018548111156113e657506018545b6017546113f390826134b9565b601554111561141c5760175461140990826134b9565b6015546114169190613478565b91505090565b505060165490565b505b90565b6060815183511461148e5760405162461bcd60e51b815260206004820152602960248201527f455243313135353a206163636f756e747320616e6420696473206c656e677468604482015268040dad2e6dac2e8c6d60bb1b6064820152608401610b0a565b6000835167ffffffffffffffff8111156114aa576114aa612e2d565b6040519080825280602002602001820160405280156114d3578160200160208202803683370190505b50905060005b845181101561154b5761151e8582815181106114f7576114f76134d8565b6020026020010151858381518110611511576115116134d8565b6020026020010151610aa3565b828281518110611530576115306134d8565b6020908102919091010152611544816133ee565b90506114d9565b509392505050565b61155b611cf1565b61156481611f75565b50565b61156f611cf1565b6001600160a01b0381166115bc5760405162461bcd60e51b815260206004820152601460248201527353455454494e475f5a45524f5f4144445245535360601b6044820152606401610b0a565b601280546001600160a01b0319166001600160a01b0392909216919091179055565b6115e6611cf1565b6011546040516001600160a01b03909116904780156108fc02916000818181858888f1935050505061161757600080fd5b565b60008061168a6116847f182854de6a51f3818344a7eb784b9d55c1e6d2d20c9f9aea309f5daaaaddfec1336040805160208101939093526001600160a01b03909116908201526060810187905260800160405160208183030381529060405280519060200120611f8c565b84611fda565b6012546001600160a01b03918216911614949350505050565b606060048054610b9a90613386565b816116bc81611e70565b6116c68383611ff6565b505050565b6116d3611cf1565b601080549115156401000000000264ff0000000019909216919091179055565b60105460ff16151560011461173c5760405162461bcd60e51b815260206004820152600f60248201526e53414c455f4e4f545f41435449564560881b6044820152606401610b0a565b600a544210156117815760405162461bcd60e51b815260206004820152601060248201526f4e4f545f494e5f53414c455f54494d4560801b6044820152606401610b0a565b3233146117c55760405162461bcd60e51b815260206004820152601260248201527110d05313115497d254d7d0d3d395149050d560721b6044820152606401610b0a565b6010546301000000900460ff161515600103611837576117e58282611619565b6118315760405162461bcd60e51b815260206004820152601b60248201527f4e6f7420656c696769626c6520666f722077686974656c6973742e00000000006044820152606401610b0a565b60088290555b60105462010000900460ff1615156001036119185761185e83611858611352565b90612001565b3410156118ad5760405162461bcd60e51b815260206004820152601f60248201527f45746865722076616c75652073656e74206973206e6f7420656e6f7567682e006044820152606401610b0a565b6000831180156118cb5750600e54600b546118c89085611d49565b11155b6119135760405162461bcd60e51b815260206004820152601960248201527822bc31b2b2b2399026a0ac2fa727a926a0a62faa27a5a2a71760391b6044820152606401610b0a565b611944565b6009546119259084612001565b3410156119445760405162461bcd60e51b8152600401610b0a90613407565b6000831180156119625750600554600b5461195f9085611d49565b11155b6119aa5760405162461bcd60e51b815260206004820152601960248201527822bc31b2b2b2399026a0ac2fa727a926a0a62faa27a5a2a71760391b6044820152606401610b0a565b600854336000908152601b60205260409020546119c79085611d49565b1115611a095760405162461bcd60e51b815260206004820152601160248201527022bc31b2b2b2399038bab0b73a34ba3c9760791b6044820152606401610b0a565b336000908152601b60205260408120548190611a259086611d49565b336000908152601b60205260408120919091555b85811015611208576040516bffffffffffffffffffffffff193360601b166020820152603481018290524260548201526000906074016040516020818303038152906040529050611a898161200d565b9350611a968460016133d6565b92505b600083815260196020908152604080832054601a90925290912054611abf906001611d49565b1115611ae557611ad08360016133d6565b92506014831115611ae057600192505b611a99565b6000838152601a6020526040902054611aff906001611d49565b601a600085815260200190815260200160002081905550611b323384600160405180602001604052806000815250611d5c565b600b54611b40906001611d49565b600b557fb32c32014221c522f5b713daa9a1df4bd21450f8b5c763ba3ca01f088f95c86433846001611b70610cfc565b604051611b809493929190613452565b60405180910390a15080611b93816133ee565b915050611a39565b611ba3611cf1565b601395909555601493909355601591909155601655601755601855565b611bc8611cf1565b600955565b611bd5611cf1565b601180546001600160a01b0319166001600160a01b0392909216919091179055565b846001600160a01b0381163314611c1157611c1133611e70565b6112088686868686612046565b601054640100000000900460ff161515600114611c745760405162461bcd60e51b8152602060048201526014602482015273213ab937103430b9b713ba1039ba30b93a32b21760611b6044820152606401610b0a565b6001600160a01b038316321480611c905750611c9083336109bd565b611ce65760405162461bcd60e51b815260206004820152602160248201527f43616c6c6572206973206e6f74206f776e6572206e6f7220617070726f7665646044820152601760f91b6064820152608401610b0a565b6116c683838361208b565b6010546501000000000090046001600160a01b031633146116175760405162461bcd60e51b81526020600482015260126024820152712cb7ba9030b932903737ba1037bbb732b91760711b6044820152606401610b0a565b6000611d5582846133d6565b9392505050565b6001600160a01b038416611dbc5760405162461bcd60e51b815260206004820152602160248201527f455243313135353a206d696e7420746f20746865207a65726f206164647265736044820152607360f81b6064820152608401610b0a565b336000611dc885612207565b90506000611dd585612207565b90506000868152602081815260408083206001600160a01b038b16845290915281208054879290611e079084906133d6565b909155505060408051878152602081018790526001600160a01b03808a1692600092918716917fc3d58168c5ae7397731d063d5bbf3d657854427343f4c083240f7aacaa2d0f62910160405180910390a4611e6783600089898989612252565b50505050505050565b6daaeb6d7670e522a718067333cd4e3b1561156457604051633185c44d60e21b81523060048201526001600160a01b03821660248201526daaeb6d7670e522a718067333cd4e9063c617113490604401602060405180830381865afa158015611edd573d6000803e3d6000fd5b505050506040513d601f19601f82011682018060405250810190611f0191906134ee565b61156457604051633b79c77360e21b81526001600160a01b0382166004820152602401610b0a565b6001600160a01b038516331480611f455750611f4585336109bd565b611f615760405162461bcd60e51b8152600401610b0a9061350b565b611f6e85858585856123ad565b5050505050565b8051611f88906002906020840190612bc1565b5050565b6000610b85611f99612582565b8360405161190160f01b6020820152602281018390526042810182905260009060620160405160208183030381529060405280519060200120905092915050565b6000806000611fe985856126a9565b9150915061154b816126ee565b611f88338383612838565b6000611d5582846134b9565b600080826040516020016120219190612d17565b60408051601f1981840301815291905280516020909101209050611d55601482613559565b6001600160a01b038516331480612062575061206285336109bd565b61207e5760405162461bcd60e51b8152600401610b0a9061350b565b611f6e8585858585612918565b6001600160a01b0383166120ed5760405162461bcd60e51b815260206004820152602360248201527f455243313135353a206275726e2066726f6d20746865207a65726f206164647260448201526265737360e81b6064820152608401610b0a565b3360006120f984612207565b9050600061210684612207565b60408051602080820183526000918290528882528181528282206001600160a01b038b168352905220549091508481101561218f5760405162461bcd60e51b8152602060048201526024808201527f455243313135353a206275726e20616d6f756e7420657863656564732062616c604482015263616e636560e01b6064820152608401610b0a565b6000868152602081815260408083206001600160a01b038b81168086529184528285208a8703905582518b81529384018a90529092908816917fc3d58168c5ae7397731d063d5bbf3d657854427343f4c083240f7aacaa2d0f62910160405180910390a4604080516020810190915260009052611e67565b60408051600180825281830190925260609160009190602080830190803683370190505090508281600081518110612241576122416134d8565b602090810291909101015292915050565b6001600160a01b0384163b156112085760405163f23a6e6160e01b81526001600160a01b0385169063f23a6e6190612296908990899088908890889060040161356d565b6020604051808303816000875af19250505080156122d1575060408051601f3d908101601f191682019092526122ce918101906135b2565b60015b61237d576122dd6135cf565b806308c379a00361231657506122f16135ea565b806122fc5750612318565b8060405162461bcd60e51b8152600401610b0a9190612d17565b505b60405162461bcd60e51b815260206004820152603460248201527f455243313135353a207472616e7366657220746f206e6f6e2d455243313135356044820152732932b1b2b4bb32b91034b6b83632b6b2b73a32b960611b6064820152608401610b0a565b6001600160e01b0319811663f23a6e6160e01b14611e675760405162461bcd60e51b8152600401610b0a90613674565b815183511461240f5760405162461bcd60e51b815260206004820152602860248201527f455243313135353a2069647320616e6420616d6f756e7473206c656e677468206044820152670dad2e6dac2e8c6d60c31b6064820152608401610b0a565b6001600160a01b0384166124355760405162461bcd60e51b8152600401610b0a906136bc565b3360005b845181101561251c576000858281518110612456576124566134d8565b602002602001015190506000858381518110612474576124746134d8565b602090810291909101810151600084815280835260408082206001600160a01b038e1683529093529190912054909150818110156124c45760405162461bcd60e51b8152600401610b0a90613701565b6000838152602081815260408083206001600160a01b038e8116855292528083208585039055908b168252812080548492906125019084906133d6565b9250508190555050505080612515906133ee565b9050612439565b50846001600160a01b0316866001600160a01b0316826001600160a01b03167f4a39dc06d4c0dbc64b70af90fd698a233a518aa5d07e595d983b8c0526c8f7fb878760405161256c92919061374b565b60405180910390a4611208818787878787612a42565b6000306001600160a01b037f0000000000000000000000000000000000000000000000000000000000000000161480156125db57507f000000000000000000000000000000000000000000000000000000000000000046145b1561260557507f000000000000000000000000000000000000000000000000000000000000000090565b50604080517f00000000000000000000000000000000000000000000000000000000000000006020808301919091527f0000000000000000000000000000000000000000000000000000000000000000828401527f000000000000000000000000000000000000000000000000000000000000000060608301524660808301523060a0808401919091528351808403909101815260c0909201909252805191012090565b60008082516041036126df5760208301516040840151606085015160001a6126d387828585612afd565b945094505050506126e7565b506000905060025b9250929050565b600081600481111561270257612702613779565b0361270a5750565b600181600481111561271e5761271e613779565b0361276b5760405162461bcd60e51b815260206004820152601860248201527f45434453413a20696e76616c6964207369676e617475726500000000000000006044820152606401610b0a565b600281600481111561277f5761277f613779565b036127cc5760405162461bcd60e51b815260206004820152601f60248201527f45434453413a20696e76616c6964207369676e6174757265206c656e677468006044820152606401610b0a565b60038160048111156127e0576127e0613779565b036115645760405162461bcd60e51b815260206004820152602260248201527f45434453413a20696e76616c6964207369676e6174757265202773272076616c604482015261756560f01b6064820152608401610b0a565b816001600160a01b0316836001600160a01b0316036128ab5760405162461bcd60e51b815260206004820152602960248201527f455243313135353a2073657474696e6720617070726f76616c20737461747573604482015268103337b91039b2b63360b91b6064820152608401610b0a565b6001600160a01b03838116600081815260016020908152604080832094871680845294825291829020805460ff191686151590811790915591519182527f17307eab39ab6107e8899845ad3d59bd9653f200f220920489ca2b5937696c31910160405180910390a3505050565b6001600160a01b03841661293e5760405162461bcd60e51b8152600401610b0a906136bc565b33600061294a85612207565b9050600061295785612207565b90506000868152602081815260408083206001600160a01b038c1684529091529020548581101561299a5760405162461bcd60e51b8152600401610b0a90613701565b6000878152602081815260408083206001600160a01b038d8116855292528083208985039055908a168252812080548892906129d79084906133d6565b909155505060408051888152602081018890526001600160a01b03808b16928c821692918816917fc3d58168c5ae7397731d063d5bbf3d657854427343f4c083240f7aacaa2d0f62910160405180910390a4612a37848a8a8a8a8a612252565b505050505050505050565b6001600160a01b0384163b156112085760405163bc197c8160e01b81526001600160a01b0385169063bc197c8190612a86908990899088908890889060040161378f565b6020604051808303816000875af1925050508015612ac1575060408051601f3d908101601f19168201909252612abe918101906135b2565b60015b612acd576122dd6135cf565b6001600160e01b0319811663bc197c8160e01b14611e675760405162461bcd60e51b8152600401610b0a90613674565b6000807f7fffffffffffffffffffffffffffffff5d576e7357a4501ddfe92f46681b20a0831115612b345750600090506003612bb8565b6040805160008082526020820180845289905260ff881692820192909252606081018690526080810185905260019060a0016020604051602081039080840390855afa158015612b88573d6000803e3d6000fd5b5050604051601f1901519150506001600160a01b038116612bb157600060019250925050612bb8565b9150600090505b94509492505050565b828054612bcd90613386565b90600052602060002090601f016020900481019282612bef5760008555612c35565b82601f10612c0857805160ff1916838001178555612c35565b82800160010185558215612c35579182015b82811115612c35578251825591602001919060010190612c1a565b506114249291505b808211156114245760008155600101612c3d565b80356001600160a01b0381168114612c6857600080fd5b919050565b60008060408385031215612c8057600080fd5b612c8983612c51565b946020939093013593505050565b6001600160e01b03198116811461156457600080fd5b600060208284031215612cbf57600080fd5b8135611d5581612c97565b6000815180845260005b81811015612cf057602081850181015186830182015201612cd4565b81811115612d02576000602083870101525b50601f01601f19169290920160200192915050565b602081526000611d556020830184612cca565b60008060408385031215612d3d57600080fd5b50508035926020909101359150565b600060208284031215612d5e57600080fd5b5035919050565b600060208284031215612d7757600080fd5b611d5582612c51565b600080600080600060a08688031215612d9857600080fd5b505083359560208501359550604085013594606081013594506080013592509050565b801515811461156457600080fd5b600080600080600060a08688031215612de157600080fd5b8535612dec81612dbb565b94506020860135612dfc81612dbb565b93506040860135612e0c81612dbb565b92506060860135612e1c81612dbb565b949793965091946080013592915050565b634e487b7160e01b600052604160045260246000fd5b601f8201601f1916810167ffffffffffffffff81118282101715612e6957612e69612e2d565b6040525050565b600067ffffffffffffffff831115612e8a57612e8a612e2d565b604051612ea1601f8501601f191660200182612e43565b809150838152848484011115612eb657600080fd5b83836020830137600060208583010152509392505050565b600082601f830112612edf57600080fd5b611d5583833560208501612e70565b60008060408385031215612f0157600080fd5b82359150602083013567ffffffffffffffff811115612f1f57600080fd5b612f2b85828601612ece565b9150509250929050565b600067ffffffffffffffff821115612f4f57612f4f612e2d565b5060051b60200190565b600082601f830112612f6a57600080fd5b81356020612f7782612f35565b604051612f848282612e43565b83815260059390931b8501820192828101915086841115612fa457600080fd5b8286015b84811015612fbf5780358352918301918301612fa8565b509695505050505050565b600080600080600060a08688031215612fe257600080fd5b612feb86612c51565b9450612ff960208701612c51565b9350604086013567ffffffffffffffff8082111561301657600080fd5b61302289838a01612f59565b9450606088013591508082111561303857600080fd5b61304489838a01612f59565b9350608088013591508082111561305a57600080fd5b5061306788828901612ece565b9150509295509295909350565b60008060006060848603121561308957600080fd5b61309284612c51565b95602085013595506040909401359392505050565b600080604083850312156130ba57600080fd5b823567ffffffffffffffff808211156130d257600080fd5b818501915085601f8301126130e657600080fd5b813560206130f382612f35565b6040516131008282612e43565b83815260059390931b850182019282810191508984111561312057600080fd5b948201945b838610156131455761313686612c51565b82529482019490820190613125565b9650508601359250508082111561315b57600080fd5b50612f2b85828601612f59565b600081518084526020808501945080840160005b838110156131985781518752958201959082019060010161317c565b509495945050505050565b602081526000611d556020830184613168565b6000602082840312156131c857600080fd5b813567ffffffffffffffff8111156131df57600080fd5b8201601f810184136131f057600080fd5b6131ff84823560208401612e70565b949350505050565b6000806040838503121561321a57600080fd5b61322383612c51565b9150602083013561323381612dbb565b809150509250929050565b60006020828403121561325057600080fd5b8135611d5581612dbb565b60008060006060848603121561327057600080fd5b8335925060208401359150604084013567ffffffffffffffff81111561329557600080fd5b6132a186828701612ece565b9150509250925092565b60008060008060008060c087890312156132c457600080fd5b505084359660208601359650604086013595606081013595506080810135945060a0013592509050565b6000806040838503121561330157600080fd5b61330a83612c51565b915061331860208401612c51565b90509250929050565b600080600080600060a0868803121561333957600080fd5b61334286612c51565b945061335060208701612c51565b93506040860135925060608601359150608086013567ffffffffffffffff81111561337a57600080fd5b61306788828901612ece565b600181811c9082168061339a57607f821691505b6020821081036133ba57634e487b7160e01b600052602260045260246000fd5b50919050565b634e487b7160e01b600052601160045260246000fd5b600082198211156133e9576133e96133c0565b500190565b600060018201613400576134006133c0565b5060010190565b6020808252602b908201527f45746865722076616c75652073656e74206973206e6f7420657175616c20746f60408201526a103a343290383934b1b29760a91b606082015260800190565b6001600160a01b0394909416845260208401929092526040830152606082015260800190565b60008282101561348a5761348a6133c0565b500390565b634e487b7160e01b600052601260045260246000fd5b6000826134b4576134b461348f565b500490565b60008160001904831182151516156134d3576134d36133c0565b500290565b634e487b7160e01b600052603260045260246000fd5b60006020828403121561350057600080fd5b8151611d5581612dbb565b6020808252602e908201527f455243313135353a2063616c6c6572206973206e6f7420746f6b656e206f776e60408201526d195c881bdc88185c1c1c9bdd995960921b606082015260800190565b6000826135685761356861348f565b500690565b6001600160a01b03868116825285166020820152604081018490526060810183905260a0608082018190526000906135a790830184612cca565b979650505050505050565b6000602082840312156135c457600080fd5b8151611d5581612c97565b600060033d11156114265760046000803e5060005160e01c90565b600060443d10156135f85790565b6040516003193d81016004833e81513d67ffffffffffffffff816024840111818411171561362857505050505090565b82850191508151818111156136405750505050505090565b843d870101602082850101111561365a5750505050505090565b61366960208286010187612e43565b509095945050505050565b60208082526028908201527f455243313135353a204552433131353552656365697665722072656a656374656040820152676420746f6b656e7360c01b606082015260800190565b60208082526025908201527f455243313135353a207472616e7366657220746f20746865207a65726f206164604082015264647265737360d81b606082015260800190565b6020808252602a908201527f455243313135353a20696e73756666696369656e742062616c616e636520666f60408201526939103a3930b739b332b960b11b606082015260800190565b60408152600061375e6040830185613168565b82810360208401526137708185613168565b95945050505050565b634e487b7160e01b600052602160045260246000fd5b6001600160a01b0386811682528516602082015260a0604082018190526000906137bb90830186613168565b82810360608401526137cd8186613168565b905082810360808401526137e18185612cca565b9897505050505050505056fea2646970667358221220eed5a81681871ab2ac1529b40cd9bce0741af3bcb21999bc3b968a73874f168e64736f6c634300080d0033687474703a2f2f6170692e756e6e616d65746f6b656e2e636f6d2f4d657461646174612f7b69647d",
  "devdoc": {
    "kind": "dev",
    "methods": {
      "balanceOf(address,uint256)": {
        "details": "See {IERC1155-balanceOf}. Requirements: - `account` cannot be the zero address."
      },
      "balanceOfBatch(address[],uint256[])": {
        "details": "See {IERC1155-balanceOfBatch}. Requirements: - `accounts` and `ids` must have the same length."
      },
      "isApprovedForAll(address,address)": {
        "details": "See {IERC1155-isApprovedForAll}."
      },
      "safeBatchTransferFrom(address,address,uint256[],uint256[],bytes)": {
        "details": "See {IERC1155-safeBatchTransferFrom}."
      },
      "setApprovalForAll(address,bool)": {
        "details": "See {IERC1155-setApprovalForAll}."
      },
      "supportsInterface(bytes4)": {
        "details": "See {IERC165-supportsInterface}."
      },
      "uri(uint256)": {
        "details": "See {IERC1155MetadataURI-uri}. This implementation returns the same URI for *all* token types. It relies on the token type ID substitution mechanism https://eips.ethereum.org/EIPS/eip-1155#metadata[defined in the EIP]. Clients calling this function must replace the `\\{id\\}` substring with the actual token type ID."
      }
    },
    "version": 1
  },
  "userdoc": {
    "kind": "user",
    "methods": {},
    "version": 1
  },
  "storageLayout": {
    "storage": [
      {
        "astId": 25,
        "contract": "contracts/Unname.sol:Unname",
        "label": "_balances",
        "offset": 0,
        "slot": "0",
        "type": "t_mapping(t_uint256,t_mapping(t_address,t_uint256))"
      },
      {
        "astId": 31,
        "contract": "contracts/Unname.sol:Unname",
        "label": "_operatorApprovals",
        "offset": 0,
        "slot": "1",
        "type": "t_mapping(t_address,t_mapping(t_address,t_bool))"
      },
      {
        "astId": 33,
        "contract": "contracts/Unname.sol:Unname",
        "label": "_uri",
        "offset": 0,
        "slot": "2",
        "type": "t_string_storage"
      },
      {
        "astId": 3681,
        "contract": "contracts/Unname.sol:Unname",
        "label": "_name",
        "offset": 0,
        "slot": "3",
        "type": "t_string_storage"
      },
      {
        "astId": 3684,
        "contract": "contracts/Unname.sol:Unname",
        "label": "_symbol",
        "offset": 0,
        "slot": "4",
        "type": "t_string_storage"
      },
      {
        "astId": 3687,
        "contract": "contracts/Unname.sol:Unname",
        "label": "MAX_NORMAL_TOKEN",
        "offset": 0,
        "slot": "5",
        "type": "t_uint256"
      },
      {
        "astId": 3690,
        "contract": "contracts/Unname.sol:Unname",
        "label": "MAX_SPECIAL_TOKEN",
        "offset": 0,
        "slot": "6",
        "type": "t_uint256"
      },
      {
        "astId": 3693,
        "contract": "contracts/Unname.sol:Unname",
        "label": "SPECIAL_CARD_CONDITION",
        "offset": 0,
        "slot": "7",
        "type": "t_uint256"
      },
      {
        "astId": 3696,
        "contract": "contracts/Unname.sol:Unname",
        "label": "MAX_ADDRESS_TOKEN",
        "offset": 0,
        "slot": "8",
        "type": "t_uint256"
      },
      {
        "astId": 3699,
        "contract": "contracts/Unname.sol:Unname",
        "label": "PRICE",
        "offset": 0,
        "slot": "9",
        "type": "t_uint256"
      },
      {
        "astId": 3702,
        "contract": "contracts/Unname.sol:Unname",
        "label": "saleTimestamp",
        "offset": 0,
        "slot": "10",
        "type": "t_uint256"
      },
      {
        "astId": 3705,
        "contract": "contracts/Unname.sol:Unname",
        "label": "normalSupply",
        "offset": 0,
        "slot": "11",
        "type": "t_uint256"
      },
      {
        "astId": 3708,
        "contract": "contracts/Unname.sol:Unname",
        "label": "specialSupply",
        "offset": 0,
        "slot": "12",
        "type": "t_uint256"
      },
      {
        "astId": 3711,
        "contract": "contracts/Unname.sol:Unname",
        "label": "claimStageLimit",
        "offset": 0,
        "slot": "13",
        "type": "t_uint256"
      },
      {
        "astId": 3714,
        "contract": "contracts/Unname.sol:Unname",
        "label": "auctionStageLimit",
        "offset": 0,
        "slot": "14",
        "type": "t_uint256"
      },
      {
        "astId": 3717,
        "contract": "contracts/Unname.sol:Unname",
        "label": "specialCardId",
        "offset": 0,
        "slot": "15",
        "type": "t_uint256"
      },
      {
        "astId": 3720,
        "contract": "contracts/Unname.sol:Unname",
        "label": "hasSaleStarted",
        "offset": 0,
        "slot": "16",
        "type": "t_bool"
      },
      {
        "astId": 3723,
        "contract": "contracts/Unname.sol:Unname",
        "label": "hasClaimStarted",
        "offset": 1,
        "slot": "16",
        "type": "t_bool"
      },
      {
        "astId": 3726,
        "contract": "contracts/Unname.sol:Unname",
        "label": "hasAuctionStarted",
        "offset": 2,
        "slot": "16",
        "type": "t_bool"
      },
      {
        "astId": 3729,
        "contract": "contracts/Unname.sol:Unname",
        "label": "whitelistSwitch",
        "offset": 3,
        "slot": "16",
        "type": "t_bool"
      },
      {
        "astId": 3732,
        "contract": "contracts/Unname.sol:Unname",
        "label": "burnStarted",
        "offset": 4,
        "slot": "16",
        "type": "t_bool"
      },
      {
        "astId": 3735,
        "contract": "contracts/Unname.sol:Unname",
        "label": "owner",
        "offset": 5,
        "slot": "16",
        "type": "t_address"
      },
      {
        "astId": 3738,
        "contract": "contracts/Unname.sol:Unname",
        "label": "treasury",
        "offset": 0,
        "slot": "17",
        "type": "t_address"
      },
      {
        "astId": 3741,
        "contract": "contracts/Unname.sol:Unname",
        "label": "signer",
        "offset": 0,
        "slot": "18",
        "type": "t_address"
      },
      {
        "astId": 3743,
        "contract": "contracts/Unname.sol:Unname",
        "label": "auctionStartTimestamp",
        "offset": 0,
        "slot": "19",
        "type": "t_uint256"
      },
      {
        "astId": 3745,
        "contract": "contracts/Unname.sol:Unname",
        "label": "auctionTimeStep",
        "offset": 0,
        "slot": "20",
        "type": "t_uint256"
      },
      {
        "astId": 3747,
        "contract": "contracts/Unname.sol:Unname",
        "label": "auctionStartPrice",
        "offset": 0,
        "slot": "21",
        "type": "t_uint256"
      },
      {
        "astId": 3749,
        "contract": "contracts/Unname.sol:Unname",
        "label": "auctionEndPrice",
        "offset": 0,
        "slot": "22",
        "type": "t_uint256"
      },
      {
        "astId": 3751,
        "contract": "contracts/Unname.sol:Unname",
        "label": "auctionPriceStep",
        "offset": 0,
        "slot": "23",
        "type": "t_uint256"
      },
      {
        "astId": 3753,
        "contract": "contracts/Unname.sol:Unname",
        "label": "auctionStepNumber",
        "offset": 0,
        "slot": "24",
        "type": "t_uint256"
      },
      {
        "astId": 3757,
        "contract": "contracts/Unname.sol:Unname",
        "label": "quantityLimit",
        "offset": 0,
        "slot": "25",
        "type": "t_mapping(t_uint256,t_uint256)"
      },
      {
        "astId": 3761,
        "contract": "contracts/Unname.sol:Unname",
        "label": "idHasMinted",
        "offset": 0,
        "slot": "26",
        "type": "t_mapping(t_uint256,t_uint256)"
      },
      {
        "astId": 3765,
        "contract": "contracts/Unname.sol:Unname",
        "label": "addressHasMinted",
        "offset": 0,
        "slot": "27",
        "type": "t_mapping(t_address,t_uint256)"
      },
      {
        "astId": 3769,
        "contract": "contracts/Unname.sol:Unname",
        "label": "addressHasClaimed",
        "offset": 0,
        "slot": "28",
        "type": "t_mapping(t_address,t_uint256)"
      }
    ],
    "types": {
      "t_address": {
        "encoding": "inplace",
        "label": "address",
        "numberOfBytes": "20"
      },
      "t_bool": {
        "encoding": "inplace",
        "label": "bool",
        "numberOfBytes": "1"
      },
      "t_mapping(t_address,t_bool)": {
        "encoding": "mapping",
        "key": "t_address",
        "label": "mapping(address => bool)",
        "numberOfBytes": "32",
        "value": "t_bool"
      },
      "t_mapping(t_address,t_mapping(t_address,t_bool))": {
        "encoding": "mapping",
        "key": "t_address",
        "label": "mapping(address => mapping(address => bool))",
        "numberOfBytes": "32",
        "value": "t_mapping(t_address,t_bool)"
      },
      "t_mapping(t_address,t_uint256)": {
        "encoding": "mapping",
        "key": "t_address",
        "label": "mapping(address => uint256)",
        "numberOfBytes": "32",
        "value": "t_uint256"
      },
      "t_mapping(t_uint256,t_mapping(t_address,t_uint256))": {
        "encoding": "mapping",
        "key": "t_uint256",
        "label": "mapping(uint256 => mapping(address => uint256))",
        "numberOfBytes": "32",
        "value": "t_mapping(t_address,t_uint256)"
      },
      "t_mapping(t_uint256,t_uint256)": {
        "encoding": "mapping",
        "key": "t_uint256",
        "label": "mapping(uint256 => uint256)",
        "numberOfBytes": "32",
        "value": "t_uint256"
      },
      "t_string_storage": {
        "encoding": "bytes",
        "label": "string",
        "numberOfBytes": "32"
      },
      "t_uint256": {
        "encoding": "inplace",
        "label": "uint256",
        "numberOfBytes": "32"
      }
    }
  }
}